:020000040800F2
:10000000C8090020990100082F2D00084D2500087F
:100010002D2D00087D060008993200080000000020
:100020000000000000000000000000007D2E00081D
:10003000CF06000800000000312D00087F2E0008C8
:10004000B3010008B3010008B3010008B3010008C0
:10005000B3010008B3010008B3010008D906000885
:10006000B3010008B3010008B301000881060008CD
:10007000B3010008B3010008B30100088D060008B1
:10008000B301000899060008B3010008B301000895
:10009000B3010008B3010008B3010008DF0600083F
:1000A000B3010008FD2E0008B3010008B3010008E9
:1000B000B3010008092F0008B3010008B3010008CC
:1000C000B3010008B3010008B3010008B301000840
:1000D000B3010008813200088D320008B301000826
:1000E000D1060008B3010008B301000800F002F8CF
:1000F00000F042F80AA090E8000C82448344AAF180
:100100000107DA4501D100F037F8AFF2090EBAE87D
:100110000F0013F0010F18BFFB1A43F0010318473B
:100120003C3900005C390000103A24BF78C878C11F
:10013000FAD8520724BF30C830C144BF04680C60ED
:10014000704700000023002400250026103A28BF35
:1001500078C1FBD8520728BF30C148BF0B60704739
:10016000642900F08180752900F07E8000207047AE
:100170001FB51FBD10B510BD00F0A3F91146FFF764
:10018000F7FF03F09BF800F0C1F903B4FFF7F2FFAB
:1001900003BC00F0C9F9000009488047094800473E
:1001A000FEE7FEE7FEE7FEE7FEE7FEE7FEE7FEE727
:1001B000FEE7FEE704480549054A064B7047000084
:1001C000FB2E0008ED000008C8030020C80900202D
:1001D000C8050020C80500200FB41CB5074B06AAAF
:1001E0007B4469460090059800F053F90020694669
:1001F00000F062F91CBC5DF814FB0000D5020000A1
:100200002DE9F0410E460446002020622046E168B8
:10021000884730B3252805D0D4E901219047206ACA
:10022000401CF2E7E168204600278847050018D007
:10023000A5F14100192802D820354FF40067324655
:10024000294620462760FFF78BFF40B1012804D0E4
:10025000F61D26F007060836D8E7361DD6E72846ED
:10026000DAE7206ABDE8F0812DE9F0410646002476
:1002700010687529314616A510D0AFF3008000280C
:1002800002DA404213A507E031688A0701D512A5BA
:1002900002E0490704D511A5012401E0AFF3008075
:1002A00000210A2206F1240709E0B0FBF2FCB0FBB2
:1002B000F2F302FB1C00303078541846491C002829
:1002C000F3D123462A463046BDE8F04100F083B81A
:1002D000000000002D0000002B00000020000000A6
:1002E00010B5431C02E010F8011B71B18107FAD16F
:1002F0004FF0013202C88C1A8C4314EAC211F9D0B3
:10030000C01A0A0603D0C01E10BDC01A10BD0A04D0
:1003100001D0801E10BD0902FCD0401E10BD10B5DA
:10032000203AC0F00B80B1E81850203AA0E81850ED
:10033000B1E81850A0E81850BFF4F5AF5FEA027CAE
:1003400024BFB1E81850A0E8185044BF18C918C01D
:10035000BDE810405FEA827C24BF51F8043B40F8BE
:10036000043B08BF7047D20728BF31F8023B48BFA3
:1003700011F8012B28BF20F8023B48BF00F8012BE1
:1003800070474FF0000200B5134694469646203958
:1003900022BFA0E80C50A0E80C50B1F12001BFF43E
:1003A000F7AF090728BFA0E80C5048BF0CC05DF8A4
:1003B00004EB890028BF40F8042B08BF704748BFF2
:1003C00020F8022B11F0804F18BF00F8012B704766
:1003D0007047704770472DE9F0470D4699469246A1
:1003E000044600F124080168880604D5E06921F07C
:1003F0001001216000E00120A84201DD471B00E060
:100400000027A1697A1902EB0900081AA061207877
:10041000C00602D42046AFF30080002608E0D4E9ED
:1004200001211AF806009047206A401C761C2062C1
:100430004E45F4DB2078C0060AD52046AFF3008095
:1004400006E0D4E9012130209047206A401C206258
:10045000381EA7F10107F4DC07E0D4E9012118F800
:1004600005009047206A401C2062281EA5F1010566
:10047000F3DC2046AFF300802078000602D502208E
:10048000BDE8F0870120FBE701694A1C026108789A
:10049000704700B58FB0CDE90131002105910549C4
:1004A0007944CDE9031011466846FFF7A9FE0FB065
:1004B00000BD0000E5FFFFFF0A6802F8010B0A60BB
:1004C0007047754600F02CF8AE4605006946534665
:1004D00020F00700854618B020B5FFF76BFEBDE899
:1004E00020404FF000064FF000074FF000084FF09B
:1004F000000B21F00701AC46ACE8C009ACE8C0092C
:10050000ACE8C009ACE8C0098D46704710B5044698
:10051000AFF300802046BDE81040FFF736BE000074
:10052000004870476803002001491820ABBEFEE771
:10053000260002007047000070B50446006881681C
:10054000C943C90717D1816821F00101816000F01A
:1005500053FD05460AE000BF00F04EFD401B022897
:1005600004D920688068C043C00706D0206880682E
:10057000C043C007F0D0002070BDA06A40F010005A
:10058000A062E06A40F00100E062012070BD10B599
:100590000146406A826A12F0500F05D0006A026B71
:1005A000BDE8104008461047816A41F4007181623D
:1005B00001688968C1F3424107290CD1017B51B917
:1005C000816A21F480718162816AC90403D4816ADD
:1005D00041F00101816200F011F910BD10B5406ACF
:1005E000816A41F040018162C16A41F00401C16247
:1005F00000F006F910BD10B5406A00F000F910BD1A
:10060000F8B500260446009600688168C943C9070A
:100610002DD0816841F001018160164816490068BB
:10062000B0FBF1F000E0401E00900028FBD100F08C
:10063000E3FC054616E000BF00F0DEFC401B02288C
:1006400010D920688068C043C0070BD0A06A40F072
:100650001000A062E06A40F00100E06284F82460CB
:100660000120F8BD20688068C043C007E4D10020A5
:10067000F8BD00004C00002040420F00FEE70000E3
:10068000014800F08BBA00009C020020014800F0F5
:1006900085BA0000E0020020014800F07FBA0000A7
:1006A0002403002030B590F840500124AC40C56BC5
:1006B0006C60046863604368102B036803D0996022
:1006C0000068C26030BD9A600068C16030BD70478C
:1006D0004FF4806000F086BB022000F083BB402016
:1006E00000F080BB72B6FEE7034800680349098D3D
:1006F00000EB01400021704724040040000000206E
:10070000F8B50024009490F824202546012A12D040
:10071000012280F824204A681F23072A0DD2066888
:10072000776B521E02EB820293409F430B6893400B
:100730001F43776319E00220F8BD06680D2A0AD22C
:10074000376BD21F02EB820293409F430B689340AA
:100750001F43376309E0F76A0D3A02EB82029340C8
:100760009F430B6893401F43F7620A68072306689C
:100770000A2A0AD3F7680A3A02EB420293409F43DF
:100780008B6893401F43F76008E0376902EB420231
:1007900093409F438B6893401F4337610A68102A38
:1007A00001D0112A20D1124B02689A4217D19368C6
:1007B0001B0219D4936843F400039360096810295D
:1007C00012D10C490C4A0968B1FBF2F101EB81012D
:1007D000490000E0491E00910029FBD104E0816A34
:1007E00041F020018162012480F824502046F8BDA8
:1007F000002401404C00002040420F007047704729
:10080000704700002DE9F0414FF0000704003D461D
:100810007ED0A06A002628B9E66284F824602046CB
:1008200000F07EF82046FFF787FEA16AC90600D4D3
:1008300020B1A06A40F01000A06269E0A16A21F432
:10084000885141F00201A1626268E169237B0A4399
:1008500047EA43010A43A1684FF48077B94209D0BF
:10086000012907D05FF0000194F814C0BCF1010F1A
:1008700002D00AE03946F7E7F3B1A36A43F0200358
:10088000A362E36A43F00103E3622368D3F804C080
:100890002CF4694C4CEA010CC3F804C021688B6845
:1008A000DFF870C003EA0C0313438B60A168B94200
:1008B0000BD0012909D00CE0DFF85CC0A3690CEB78
:1008C00043330B4343F40061DFE7218A0D05A5F5AF
:1008D00080152168CB6A23F470032B43CB62216817
:1008E00089680E4B1940914208D1E662A16A21F055
:1008F000020141F00101A162BDE8F081A06A20F08F
:10090000020040F01000A062E06A40F00100E062E6
:100910000120F1E7FDF7E1FF00E0FFFFFE0E1FFF02
:1009200070B586B0002506460095019502950395A1
:1009300000681A4988422ED11949886940F400702C
:100940008861886900F400700490886940F00400B0
:1009500088618869694600F00400049002200090D4
:10096000032001900F4800F049FA104C0E48C4E9EA
:1009700000058020C4E902504000206180006061D1
:100980002020C4E90605204600F0B2F908B1FFF7BF
:10099000A9FE3462666206B070BD0000002401400A
:1009A0000010024000080140080002409C020020A4
:1009B0002DE9F047894604463B4900683B4F0E1D30
:1009C0009046884201D0B84207D1306810F4702FA9
:1009D00003D001252846BDE8F08794F824000128BB
:1009E0000CD0012084F824002046FFF709FE050002
:1009F0004FF0000004D084F82400EBE70220EAE77F
:100A0000A16A40F60162914341F48071A1622168BC
:100A1000B94218D1326812F4702F14D0A16A41F48F
:100A20008011A1623168490505D5A16A21F4005100
:100A300041F48051A162A16AC9040AD5E16A21F09A
:100A40000601E16206E0A26A22F48012A26249680D
:100A5000E9E7E06284F82400216A15488862216A87
:100A60001448C862216A1448086321686FF00200C4
:100A700008602068816841F4807181602168434684
:100A80004A464C31206A00F061F920688168C1F360
:100A900042410729816803D041F48011816099E7C0
:100AA00041F4A001FAE700000024014000280140C1
:100AB0008F050008F7050008DD05000810B590F85F
:100AC00021100022022905D00421816380F8202012
:100AD000012010BD01680B6823F00E030B60016854
:100AE0000B6823F001030B6090F84030C46B0121C8
:100AF00001FA03F3636080F8211080F8202010468B
:100B000010BD000010B590F821100024022903D078
:100B10000421816301243DE001680A6822F00E028D
:100B20000A6001680A6822F001020A601A4A016834
:100B3000914201D1012121E0174A1432914201D1A1
:100B400010211BE0144A2832914201D1891515E089
:100B5000114A3C32914201D189140FE00E4A5032C1
:100B6000914202D14FF4803108E00B4A6432914245
:100B700002D14FF4801101E04FF08071064A083A2B
:100B80005160012180F82110002180F82010416B74
:100B900001B18847204610BD080002402DE9F05FF2
:100BA000C16B0C6801680B68D0F840C0042202FADF
:100BB0000CF2494DDFF824A1494E4A4FDFF828B125
:100BC000DFF828E122422CD05A072AD50A6892067B
:100BD00003D40A6822F004020A600168A94201D124
:100BE000042219E0514501D1402215E0B14202D161
:100BF0004FF4806210E0B94202D14FF480420BE022
:100C0000594502D14FF4802206E0714502D14FF4DC
:100C1000800201E04FF080622F4908394A60C16AC2
:100C20003BE04FF0020808FA0CF818EA040F4FF006
:100C300000094FF0010235D05FEA837832D50B68A6
:100C40009B0605D40B6823F00A030B6080F8212073
:100C50000168A94201D1022219E0514501D12022A7
:100C600015E0B14202D14FF4007210E0B94202D156
:100C70004FF400520BE0594502D14FF4003206E028
:100C8000714502D14FF4001201E04FF00072124999
:100C900008394A6080F82090816A00291AD0BDE89E
:100CA000F05F0847082505FA0CF5254212D01B070E
:100CB00010D50B6823F00E030B6090F84010C36B47
:100CC00002FA01F15960826380F8212080F82090B7
:100CD000016BE2E7BDE8F09F080002401C00024003
:100CE0003000024044000240580002406C000240C4
:100CF00030B528B308C8134914221944B1FBF2F1E6
:100D00008900C16310498163022141771A6843F663
:100D1000F0718A43D0E900142143D0E902452C4305
:100D200021430469214344692143846921431143D8
:100D3000196000214163012242770177084630BDE6
:100D4000012030BDF8FFFDBF0000024070B5044631
:100D500090F82000002501280CD0012084F8200004
:100D600094F821600020012E06D084F8200002258E
:100D7000284670BD022070BD022684F82160A06361
:100D80002068066826F0010606602046FFF78AFC08
:100D9000E06A00282068016802D041F00E0106E0F8
:100DA00021F0040101602068016841F00A0101603E
:100DB0002068016841F001010160D9E770B504467F
:100DC00000F01AF90546601C02D00448007804447B
:100DD00000F012F9401BA042FAD370BD4000002081
:100DE00070470000044910B50A68024202D008604A
:100DF000FFF7F6FF10BD0000140401402DE9F84F85
:100E0000DFF8B8910024A9F1040B23460F2709F15C
:100E1000040AABF1040EC9E00125A5402A40AA420C
:100E20007DD1674ED1F804C0ACEB0608B44532D092
:100E300014DCBCF1030F3AD009DCBCF1000F2AD05E
:100E4000BCF1010F1CD0BCF1020F31D11DE0BCF18F
:100E5000110F17D0BCF1120F2AD119E0B8F5881F75
:100E600019D006DCB8F5803F15D0B8F5801F1FD12A
:100E700011E0B8F5001F0ED0B8F5041F18D10AE034
:100E8000CB6815E0CB681B1D12E0CB6808330FE080
:100E9000CB680C330CE08B682BB1012B4FF00803AF
:100EA00003D0456104E0042302E0056100E0002373
:100EB000FF2A01D8064601E000F104064FEA840546
:100EC00001D9A5F12005D6F8008007FA05FC28EA2B
:100ED0000C0803FA05F548EA0508C6F800804D68D5
:100EE000ED0062D5374DAE6946F00106AE61AD69E1
:100EF00024F0030605F001050095334D06EB050CC3
:100F0000DCF80850A607360F07FA06F825EA0805A8
:100F1000DFF8B880404503D14FF0000817E044E007
:100F2000DFF8AC80404502D14FF001080FE0DFF858
:100F3000A480404502D14FF0020808E0DFF8988015
:100F4000404502D14FF0030801E04FF0040808FAD1
:100F500006F848EA0508CCF808804D68D9F8006022
:100F6000ED024D4601D5164300E096432E604D68D4
:100F7000DAF80060AD02554601D5164300E096430D
:100F80002E604D68DBF80060AD035D4601D5164369
:100F900000E096432E604D68DEF80060ED03754674
:100FA00001D5164300E096432E60641C0D682A4666
:100FB000E5407FF431AFBDE8F88F00000804014040
:100FC0000000111000100240000001400008014024
:100FD000000C01400010014000140140C26821EAE9
:100FE00002030A4043EA0241016170470AB101610C
:100FF00070470904FBE70000014880687047000063
:1010000040000020024881680278114481607047E6
:1010100040000020074810B5016841F01001016050
:10102000032000F075F80F2000F006F800F024F817
:10103000002010BD0020024070B50D4D04464FF455
:101040007A712878B1FBF0F00A490968B1FBF0F039
:1010500000F03BFE48B9102C07D200222146501E5A
:1010600000F036F800206C6070BD012070BD0000FB
:10107000400000204C0000200C4808B5816941F078
:1010800001018161816901F001010091C16941F0B3
:101090008051C161C06900F08050009004484168EF
:1010A00021F0E06141F00071416008BD0010024094
:1010B00000000140002809DB00F01F0201219140DF
:1010C0004009800000F1E020C0F8001170470000E6
:1010D000F0B40E4B1B680C46C3F30223C3F10705A3
:1010E000042D00D90425191D072901D2002300E091
:1010F000DB1E012606FA05F1491E214099409E405B
:10110000761E16403143F0BC02F0C7B80CED00E08B
:10111000064900F0070208684FF6FF03184040EA4E
:101120000220034A10430860704700000CED00E005
:101130000000FA052DE9F84305460078354CC00754
:1011400054D0E0690026C00008D4E06940F0805027
:10115000E061E069012600F0805000902E480168AF
:10116000C90512D40168804641F480710160FFF71F
:1011700043FF074605E000BFFFF73EFFC01B6428A2
:1011800023D8D8F80000C005F6D5206A10F44070C6
:1011900021D0A98801F4407181421CD0206A1F49E6
:1011A000012220F440700A6000220A602062C00719
:1011B00011D0FFF721FF074641F2883808E000BF51
:1011C000FFF71AFFC11B414502D90320BDE8F88390
:1011D000206A8007F4D5206A696820F440700843CB
:1011E00020621EB1E06920F08050E061287880071D
:1011F00005D56068A96820F44040084360602878FD
:10120000C00605D56068E96820F480000843606086
:101210000020DBE700100240007000404004424222
:101220002DE9F0470F46050061D0434E306800F0CD
:101230000700B84209D2306820F007003843306018
:10124000306800F00700B84251D128683B4C810754
:1012500012D5400703D5606840F4E06060602878EC
:10126000000703D5606840F4605060606068A9685A
:1012700020F0F000084360602878C00728D0686834
:10128000012810D02168022810D0890700292EDA01
:10129000616821F0030101436160FFF7ADFE804604
:1012A00041F288390DE021688903EFE78901EDE714
:1012B000FFF7A2FEA0EB0801494502D90320BDE8D3
:1012C000F0876068696800F00C00B0EB810FEFD127
:1012D000306800F00700B8420BD9306820F00700F2
:1012E00038433060306800F00700B84201D0012078
:1012F000E5E72878400705D56068E96820F4E060F4
:10130000084360602878000706D56068296920F4E2
:10131000605040EAC100606000F038F86168084A37
:10132000C1F30311515CC8400649086006480068D3
:10133000FFF782FE0020C2E70020024000100240BA
:10134000423A00084C0000204400002004480549AF
:1013500000684968044AC1F30221515CC8407047E3
:101360004C00002000100240523A00080448054991
:1013700000684968044AC1F3C221515CC840704703
:101380004C00002000100240523A00080E4A5168FA
:101390000E4801F00C03042B11D0082B0FD10C4880
:1013A000C1F38343C903C05C0AD55168084AC1F33D
:1013B0004041921E515C054A5043B0FBF1F070472A
:1013C00004494843704700000010024000127A00B0
:1013D000323A000800093D002DE9F84F040070D0B2
:1013E0002078C04DC00749D06868C0F3810001284B
:1013F00007D06868C0F38100022809D16868C0037B
:1014000006D52868800339D560680028E7D035E024
:101410006068B0F5803F0BD010B1B0F5A02F11D0AF
:10142000286820F480302860286820F4802002E0BA
:10143000286840F480302860606890B1FFF7DCFDD8
:1014400006460AE0286840F480202860F0E700BFE4
:10145000FFF7D2FD801B642873D828688003F7D576
:101460000CE0FFF7C9FD064605E000BFFFF7C4FD2D
:10147000801B6428F0D828688003F7D420789A4E1F
:1014800080074FF001094FF0000839D5686810F067
:101490000C0F07D06868C0F38100022809D1686882
:1014A000C00306D42868800714D52069012808D114
:1014B00010E02069B0B1C6F80090FFF79DFD074627
:1014C00005E00AE1FFF798FDC01B0228C4D8286890
:1014D0008007F7D52868616920F0F80040EAC1006C
:1014E00028600DE0C6F80080FFF786FD074604E09F
:1014F000FFF782FDC01B022823D828688007F7D495
:10150000207800072CD57948A169D9B1C0F800909E
:10151000FFF772FD074604E0FFF76EFDC01B0228CF
:101520000FD8686A8007F7D571484FF4FA51006800
:10153000B0FBF1F0009000BF0098411E0091FAD27C
:101540000EE080E0C0F80080FFF756FD074604E09B
:10155000FFF752FDC01B022875D8686A8007F7D4D0
:101560002078400760D5E8690027C00008D4E86902
:1015700040F08050E861E869012700F08050009059
:101580005C480168C90513D40168834641F4807141
:101590000160FFF731FD824606E000BFFFF72CFD3A
:1015A000A0EB0A0064284ED8DBF80000C005F5D592
:1015B000E06801280AD008B1052813D0286A20F075
:1015C00001002862286A20F0040002E0286A40F046
:1015D00001002862E06841F2883B98B1FFF70CFDFA
:1015E00082460BE0286A40F004002862EEE700BF64
:1015F000FFF702FDA0EB0A0159455AD8286A800777
:10160000F6D50CE0FFF7F8FC824605E0FFF7F4FCA6
:10161000A0EB0A0159454CD8286A8007F6D41FB1BF
:10162000E86920F08050E861E06988B36968C1F337
:101630008101022944D00228C6F8608004D0FFF757
:10164000DBFC044638E034E0FFF7D6FC074604E054
:10165000FFF7D2FCC01B02282BD828688001F7D4E2
:10166000206AB0F5803F05D16868A16820F4003099
:1016700008436860D4E908010843696821F47411DB
:1016800008436860C6F86090FFF7B6FC044606E0C1
:1016900025E000BFFFF7B0FC001B022809D828682E
:1016A0008001F7D51BE000BFFFF7A6FC001B022856
:1016B00002D90320BDE8F88F28688001F4D40EE039
:1016C0000128F7D06868226A00F48031914204D181
:1016D000616A00F47010884201D00120EAE700201E
:1016E000E8E700000010024000004242800442424D
:1016F0004C0000200070004090F85100704770B519
:10170000040009D0606A002540B125616561A562C9
:1017100094F8510040B10CE0012070BD6068B0F554
:10172000827FF4D0E561F2E784F85050204600F063
:101730003FF8022084F851002068016821F0400140
:101740000160A088218900F4827001F404410843FB
:10175000A18901F400610843217C01F002010843E2
:10176000217D01F001010843218B01F40071084340
:10177000217F01F03801084394F8201001F0800126
:101780000843218D01F40051084321680860A069D5
:10179000042101EA1040216848602068C16921F4F1
:1017A0000061C1616565012084F85100002070BDB1
:1017B00030B585B00024009401940294039400682D
:1017C0001449884223D11448816941F480518161D0
:1017D000816901F480510491816941F004018161C2
:1017E00080690E4D00F004000490A02000900220BB
:1017F00001900320039069462846FFF7FFFA402036
:10180000CDE90004694628460294FFF7F7FA05B0CF
:1018100030BD0000003001400010024000080140CF
:101820002DE9F84F044690F851001D4616460F4624
:10183000012838D160684FF00408B0F5827F01D1EB
:10184000A06830B3FFF7D8FB8246002F75D0002E7A
:1018500073D094F85000012825D04FF0010984F886
:10186000509084F851804FF00008C4F85480A7636A
:10187000A687E687C4F83080A4F83480A4F83680C0
:10188000C4F84080C4F84480A068B0F5004F0CD084
:1018900015E084F85180009313460A46204600F074
:1018A0001CF9BDE8F88F0220FBE72068016821F0F1
:1018B000400101602068016821F4804101602068D6
:1018C0000168490603D4016841F040010160E06805
:1018D000C0B134E020688168C90709D0007BA16BE2
:1018E0000870A06B401CA063E08F401EE08709E0F9
:1018F000FFF782FBA0EB0A00A84202D3681C01D0CC
:1019000032E085B3E08F0028E4D11BE020688168D5
:10191000C90709D0C068A16B0880A06B801CA063B8
:10192000E08F401EE0870AE0FFF766FBA0EB0A00AD
:10193000A84203D3681C02D016E012E09DB1E08FEC
:101940000028E3D152462946204601F0F2F908B1B9
:101950002020606584F8519084F85080606D0028E4
:101960009FD001209DE7FFE784F8519084F85080D4
:10197000032096E72DE9F84F984616468A46044616
:10198000FFF73AFB814694F8510001281ED1BAF1C5
:10199000000F73D0002E71D094F85000012815D09C
:1019A000012784F85070032084F8510000256565F4
:1019B000C4F830A0A686E686A563A587E58765649A
:1019C0002564A068B0F5004F03D00CE00220BDE80C
:1019D000F88F2068016821F04001016020680168EB
:1019E00041F48041016020680168490603D4016820
:1019F00041F040010160E068B0F5006F606803D01D
:101A000048B3012E27D047E008B1012E1FD1206B2B
:101A100021680088C86006E020688168890709D5C8
:101A2000216B0988C160206B801C2063E08E401E02
:101A3000E0860CE0FFF7E0FAA0EB0901414503D393
:101A4000B8F1FF3F03D035E0B8F1000F32D0E08E9F
:101A50000028E1D123E0206B21680078087306E0BC
:101A60002068816889070AD5216B09780173206B8A
:101A7000401C2063E08E401EE0860DE02BE0FFF767
:101A8000BBFAA0EB0901414503D3B8F1FF3F03D0F6
:101A900010E0B8F1000F0DD0E08E0028E0D14A46EA
:101AA0004146204601F073F908B120206065A06826
:101AB00030B109E084F8517084F85050032086E773
:101AC0002068C1688068009084F8517004F8505F05
:101AD00060680028F3D0012079E72DE9FF4F81B03D
:101AE0001D46934604464FF001090E9EFFF784FA07
:101AF000074694F851006168012806D0B1F5827F4D
:101B00003CD1A168C9BB042838D10298002871D003
:101B1000BBF1000FFBD0002DF9D094F85000012844
:101B20002CD04FF0010A84F850A094F851000428FA
:101B300002D0052084F851004FF00008C4F854800A
:101B4000C4F838B0E587A58702992163E586A586A4
:101B5000C4F84080C4F8448020680168490603D472
:101B6000016841F040010160E068B0F5006F606815
:101B700008D0F0B3012D49D081E0FFE7022005B085
:101B8000BDE8F08F08B1012D39D1206B21680088A4
:101B9000C860206B801C2063E08E401EE0862EE033
:101BA0002068816889070FD5E18E69B1B9F1010F0D
:101BB0000AD1216B0988C160206B801C2063E08EF4
:101BC000401EE0864FF0000920688168C9070CD0EC
:101BD000E18F51B1C068A16B0880A06B801CA0632D
:101BE000E08F401EE0874FF00109FFF705FAC01BA8
:101BF00001E00BE067E0B04201D3701C50D1E08EF1
:101C00000028CDD1E08F0028CAD13EE0206B2168AA
:101C100000780873206B401C2063E08E401EE08635
:101C20002DE02068816889070FD5E18E69B1B9F18F
:101C3000010F0AD1216B09780173206B401C2063CE
:101C4000E08E401EE0864FF0000920688168C907D9
:101C50000CD0E18F51B1C068A16B0870A06B401C23
:101C6000A063E08F401EE0874FF00109FFF7C4F941
:101C7000C01BB04202D3701C01D011E086B1E08ECF
:101C80000028CED1E08F0028CBD13A4631462046FD
:101C900001F07DF850B12020606584F8508012E09A
:101CA00084F851A084F85080032068E7A06818B930
:101CB0002068C1688068009084F851A084F8508042
:101CC000606D0028F1D0012059E710B5401EB0F139
:101CD000807F01D3012010BD4FF0E02460610F210F
:101CE000601701F0DAFA0020A061072020610020CF
:101CF00010BD70477047000070B590F83C20012A75
:101D000026D0012480F83C40022280F83D20036860
:101D10005A689D6822F070060A6832435A600D4B7B
:101D200002689A4208D0B2F1804F05D00A4B9A421D
:101D300002D00A4B9A4204D1496825F08003194326
:101D4000916080F83D40002180F83C10084670BD4D
:101D5000022070BD002C014000040040000800403B
:101D600010B5040003D094F83D0010B107E0012045
:101D700010BD002084F83C00204600F01FF802202F
:101D800084F83D00211D206801F0C4F8012084F88A
:101D9000460084F83E0084F83F0084F8400084F850
:101DA000410084F8420084F8430084F8440084F839
:101DB000450084F83D00002010BD000008B5154A1C
:101DC0000168154891420ED1816941F40061816139
:101DD0008069002200F40060009011461920FFF78E
:101DE00077F9192010E00D4A914211D1C16941F0F3
:101DF0000201C161C069002200F0020000900121CF
:101E00001D20FFF765F91D20BDE80840FFF752B916
:101E100008BD0000002C01400010024000040040FA
:101E200090F83D10012901D001207047022180F86F
:101E30003D100168CA6842F00102CA6000680B499F
:101E4000884208D0B0F1804F05D00949884202D0BD
:101E50000849884204D1816801F00701062903D0AE
:101E6000016841F00101016000207047002C014031
:101E7000000400400008004070B5044690F83C00A3
:101E80000025012817D0012684F83C60022084F840
:101E90003D002068826822F0770222F47F4282604F
:101EA0000868502838D00DDC20284FD005DC90B3CE
:101EB000102811D14AE0022070BD302846D04028B9
:101EC0000AD13BE060282FD070280DD0B0F5805F9C
:101ED00003D0B0F5005F12D0012584F83D600020EA
:101EE00084F83C00284670BDCB68D1E90121206808
:101EF00001F04CF82068816841F0770109E0CB6877
:101F0000D1E90121206801F041F82068816841F49D
:101F100080418160E1E719E0CA684968206801F002
:101F200047F85021206806E0CA684968206801F037
:101F300050F86021206801F033F8CEE7CA6849689C
:101F4000206801F035F840212068F4E72268014656
:101F50001046F0E770472DE9F04104460068C66876
:101F600005694FF00007A90713D5B10711D5F91E70
:101F7000016101202077206880698007204602D017
:101F8000FFF7E8FF04E000F07EF8204600F07CF860
:101F90002777680716D5700714D521686FF00400FD
:101FA0000861022020772068806910F4407F204675
:101FB00002D0FFF7CFFF04E000F065F8204600F004
:101FC00063F82777280715D5300713D521686FF0F8
:101FD00008000861042020772068C0698007204637
:101FE00002D0FFF7B7FF04E000F04DF8204600F004
:101FF0004BF82777E80616D5F00614D521686FF060
:1020000010000861082020772068C06910F4407F24
:10201000204602D0FFF79EFF04E000F034F820468F
:1020200000F032F82777E80708D0F00706D02168DB
:102030006FF001000861204600F028F8280608D556
:10204000300606D521686FF0800008612046FFF752
:1020500050FE680608D5700606D521686FF040006E
:102060000861204600F02CF8A8060AD5B00608D56D
:1020700021686FF0200008612046BDE8F041FFF7BD
:1020800039BEBDE8F081704770470000094B026817
:1020900009499A4205D1CA69521CCA618A78521C00
:1020A0008A700068054A904202D1886A401C8862A2
:1020B00070470000002C0140000000200004004098
:1020C0007047704770470000F8B50168044608681B
:1020D000CA684B6910F00F0F4FF0000559D003F09C
:1020E000010602F49077374365D0C10705D0D105CA
:1020F00003D5616C41F001016164410705D5D90741
:1021000003D0616C41F002016164810705D5D907F4
:1021100003D0616C41F004016164010707D502F04E
:102120002001314303D0616C41F008016164616CAE
:1021300000293AD0800604D5900602D5204600F04A
:10214000E2FF20684069616CC0F38010090700D489
:1021500060B3204600F0A2FF20684069400621D508
:102160002068143050E8001F21F0400140E80012C0
:10217000002AF5D1E06BA8B16D494163E06BFEF731
:10218000C1FC002811D0E06B416B01B0BDE8F0400C
:10219000084783060FD593060DD52046BDE8F840C5
:1021A00000F0B1BF2046FFF78DFFF8BD2046FFF7D6
:1021B00089FF6564F8BD266B2023012E7CD1C606FD
:1021C0007AD5D60678D508684868009048694FF0F7
:1021D0000206400640D5E16B086840680004000C28
:1021E000E8D0A28D8242E5D9E085886920282DD0EB
:1021F00020680C3050E8001F21F4807140E8001284
:10220000002AF5D12068143050E8001F21F00101A8
:1022100040E80012002AF5D12068143050E8001F71
:1022200021F0400140E80012002AF5D184F8423044
:10223000256320680C3050E8001F21F0100140E8B1
:102240000012002AF5D1E06BFEF738FC6663A08D22
:10225000E18D401A81B22AE0A08DE18D401A81B251
:10226000E08D0028A6D00029A4D022680C3252E8C4
:10227000000F20F4907042E80007002FF5D120688D
:10228000143050E8002F22F0010240E80027002F10
:10229000F5D184F84230256320680C3050E8002FD7
:1022A00022F0100240E80023002BF5D1666320469F
:1022B000FFF707FFF8BDFFE705062BD5150629D563
:1022C00094F841002128F5D1A068B0F5805F01D1D4
:1022D0002069B0B1206A411C216221680078486001
:1022E000E08C401E0004000CE084E3D12068C1684B
:1022F00021F08001C1602068C16841F04001C160E7
:10230000D8E7206A0088C0F308004860206A801C73
:102310002062E5E74006CDD55006CBD5CA682046F9
:1023200022F04002CA6084F8413000F00DF9C1E7A4
:10233000F72F000870B5040004D094F84100002580
:1023400010B106E0012070BD84F84050204600F036
:1023500023F8242084F841002068C16821F400514A
:10236000C160204600F030FF2068016921F49041EF
:1023700001612068416921F02A0141612068C1683A
:1023800041F40051C1606564202084F8410084F864
:1023900042006563002070BDF0B585B00024009454
:1023A0000194029403940646DFF804C1036841488F
:1023B00002210322404D8027634538D1836943F4CD
:1023C00080438361836903F480430493836943F00A
:1023D000040383618069039200F004000490080202
:1023E000CDE9000169462846FEF708FD2815CDE92C
:1023F0000004694628460294FEF700FD304D2F4840
:10240000C5E90004C5E902472C616C61AC6128464E
:10241000EC61FEF76DFC08B1FEF764F9F56300228C
:10242000114625206E62FEF753FE25203CE0DFF8C2
:1024300094C063453AD1C36943F40033C361C369AF
:1024400003F400330493836943F0040383618069D8
:10245000039200F0040004900420CDE900016946D5
:102460002846FEF7CBFC0820CDE900046946284643
:102470000294FEF7C3FC1148134D283001C510200B
:1024800091C5114845F810496C61AC61EC61FEF7EB
:102490002FFC08B1FEF726F9B5630022114626206D
:1024A0006E62FEF715FE2620FEF704FE05B0F0BDB5
:1024B000003801400010024000080140580002406E
:1024C000E002002000440040240300207047000088
:1024D00070B5044690F84100202801D0022070BD5C
:1024E00049B342B32162A284E284002060642123C4
:1024F00084F84130A56B114BAB62A56B104BEB62BE
:10250000A56B104B2B63A36B5863256813462A1DDC
:10251000A06BFEF71BFC21686FF04000086020688C
:10252000143050E8001F41F0800140E80012002AFA
:10253000F5D1002070BD012070BD000051300008B1
:10254000933000080730000870477047FEE7F8B581
:10255000044641F080008DF8000017461E46A18811
:1025600000222068FEF742FD4FF4FA652B46012257
:102570006946A069FFF7FEF9A069FFF7BDF80128D9
:10258000FAD12B4632463946A069FFF7F3F9A06924
:10259000FFF7B2F80128FAD1A18801222068FEF7DE
:1025A00025FDF8BD70B50446002100F06DF80A2045
:1025B000FEF704FC0121204600F0A9F805460A2098
:1025C000FEF7FCFB45F080020121204600F0E1F916
:1025D0006420FEF7F3FB2046216A00F00DF994F821
:1025E0002A10204600F05CF994F82B10204600F0E9
:1025F00038F923220C21204600F0CBF9204600F0C8
:1026000079F994F82410204600F054F9FF221F2194
:10261000204600F0BEF994F8250094F82610000139
:1026200000EB4100C2B21D21204600F0B2F9204665
:1026300000F0BCF8208D2021020A204600F0A9F904
:1026400094F828202121204600F0A3F940212046BB
:1026500000F05DF840F03F024021204600F099F97B
:102660000121204600F010F80120E0610A20FEF769
:10267000A5FB4221204600F04AF8122802D04FF470
:10268000CA7070BDC82070BD70B50C4605460121EA
:1026900000F03DF8024664B1012C0FD0032C13D09A
:1026A000052C17D0062C1BD0022C1FD0042C23D0B5
:1026B00027E0002002F0F802E86122E0012002F0A9
:1026C000F802521CE8611CE0032002F0F802D21C60
:1026D000E86116E0052002F0F802521DE86110E002
:1026E000062002F0F802921DE8610AE0022002F0E2
:1026F000F802921CE86104E0042002F0F802121DC6
:10270000E8612846BDE87040012100F042B90EB5ED
:1027100001F07F018DF8081001210A46009101ABFC
:1027200002A900F003F89DF804000EBD2DE9F04762
:102730000E461546044681889846DDF820900068CC
:102740000022FEF753FC4FF4FA673B462A46314617
:10275000A069FFF70FF9A069FEF7CEFF0128FAD1B3
:102760003B464A464146A069FFF75AF8A069FEF782
:10277000C3FF0128FAD1A1882068BDE8F0470122F3
:10278000FEF734BC10B50446818980680022FEF74C
:102790002DFC0220FEF712FBA1890122A068FEF7A2
:1027A00025FCBDE810406420FEF708BB10B594B0CE
:1027B000044650220F496846FDF7B1FD94F82410F5
:1027C0000120884001F0A1F894F825206B4603EB26
:1027D000C203D3E9002300F011FF01F067F81028CD
:1027E00001DD012100E00021204600F025F814B0B1
:1027F00010BD0000E039000870B50546C80444115A
:10280000C4F307420621284600F0C3F80520FEF76E
:10281000D5FAC4F307220721284600F0BAF80520AC
:10282000FEF7CCFAE2B20821284600F0B2F8BDE883
:1028300070400520FEF7C2BA70B50C460546262149
:10284000FFF765FF14B140F0080201E000F0F70265
:102850002621284600F09DF8BDE870400A20FEF7CA
:10286000ADBA10B52D2901D22D2105E0F02901D9ED
:10287000F02106E0782904D805222D3991FBF2F1E8
:1028800003E00A221E31B1FBF2F1C9B22031CAB213
:102890000B2100F07EF8BDE810400A20FEF78EBA4A
:1028A00010B50A46092100F074F8BDE810400A206E
:1028B000FEF784BA70B50C4606460C2901DD0C24DF
:1028C00002E0072C00DA07241E21FFF720FF05464F
:1028D0000A20FEF773FA64F31F15EAB21E21304690
:1028E00000F057F80A20FEF769FA3046BDE870405C
:1028F000FFF75CBF10B504461E21FFF708FF40F04C
:1029000007021E21204600F044F8BDE810400A20CE
:10291000FEF754BA0521FFF7B7BE2DE9F0410F4687
:102920001C46164680460121C569FFF7ADFE0E2103
:102930004046FFF7ECFE02460D21404600F029F824
:1029400032462221404600F024F833463A46002120
:102950004046FFF7FCFD03214046FFF795FE12219C
:102960004046FFF7D4FE00070BD5FF221221404658
:1029700000F00FF829464046FFF786FE0120BDE82B
:10298000F081641EEBD129464046FFF77DFE002012
:10299000F5E70EB541F080018DF8081001218DF8A2
:1029A00004200A46009101AB02A900F001F80EBD17
:1029B0002DE9F0470E461546044681889846DDF815
:1029C000209000680022FEF711FB4FF4FA673B46A7
:1029D0002A463146A069FEF7CDFFA069FEF78CFEBE
:1029E0000128FAD13B464A464146A069FEF7C2FF9C
:1029F000A069FEF781FE0128FAD1A1882068BDE810
:102A0000F0470122FEF7F2BA81610E49012302C0AC
:102A1000102120F8041B0C4902C0038041600221F0
:102A200001810C2142610176062141768376FF21E6
:102A300081777821C1770A21818300210162416277
:102A40007047000000080140000C01400022C260F5
:102A500080F8102020F81210C368521C0B44C36089
:102A6000052AF7DB704710B5027CC36830F81240C6
:102A70001B1BC36020F81210C2681144C160027CA5
:102A8000521CD2B20274052A01D30022027405201E
:102A9000B1FBF0F080B210BD3EB5002111480091AD
:102AA00001910F4A02910260012481600473017553
:102AB0004FF460220461C2614160FDF7A3FE08B1DA
:102AC00072B6FEE705200094CDE90140694605484D
:102AD000FDF716FE002801D072B6FEE73EBD0000ED
:102AE00000240140500000202DE9F04786B000246A
:102AF00043480094019402940394816941F01001C9
:102B00008161816901F010010491816941F0200126
:102B10008161816901F020010491816941F0040122
:102B20008161816901F004010491816941F008012A
:102B300081618069DFF8CC8000F008004FF4C04567
:102B40000490002229464046FEF750FADFF8B8907C
:102B5000002210214846FEF749FADFF8B0A04FF6F0
:102B60000107002239465046FEF740FA0126CDE91A
:102B70000056022569464046CDE90245FEF73EF97A
:102B80001020CDE9000669464846CDE90245FEF72A
:102B900035F9CDE9007669465046CDE90245FEF7A4
:102BA0002DF940F2024000901948CDE9010569462F
:102BB0005046FEF723F9402000901648CDE9010465
:102BC00069465046FEF71AF9002211460720FEF723
:102BD0007FFA0720FEF76EFA002211461720FEF753
:102BE00077FA1720FEF766FA002211462820FEF732
:102BF0006FFA2820FEF75EFA06B0BDE8F087000005
:102C0000001002400010014000080140000C01408B
:102C100000001110000031100F4810B50D4901607F
:102C20004FF48271416000218160C1604FF40072F5
:102C30000161C0E905120822C0E9072141628162F1
:102C40000A21C162FEF75BFD002801D072B6FEE7E3
:102C500010BD0000003001408000002010B586B09B
:102C60000024174800940194029403940494134997
:102C7000059401604721C0E901143121C0E9031422
:102C80008021C0E90541FFF76BF808B172B6FEE795
:102C90004FF48050009069460948FFF7EDF808B1FD
:102CA00072B6FEE7049404A905480594FFF724F8DA
:102CB000002801D072B6FEE706B010BD002C01401E
:102CC000D800002010B586B0002417480094019465
:102CD0000294039404941349059401604721C0E9C8
:102CE00001144FF6FF71C0E903148461FFF738F84F
:102CF00008B172B6FEE74FF48050009069460A486A
:102D0000FFF7BAF808B172B6FEE7049404A90648C2
:102D10000594FEF7F1FF002801D072B6FEE706B079
:102D200010BD00000004004020010020FEE7FEE787
:102D30007047F8B5044640684FF48273984217D143
:102D4000A0684FF48065B0F5004F01D0A8420FD1C4
:102D50002068066826F0400606606068984207D141
:102D6000A068A84204D100920B460022012103E092
:102D700000920B4600228021204600F023F8002814
:102D800004D0606D40F0200060650320F8BDF8B508
:102D900015460E460B46009204460122022100F021
:102DA00011F840B93346002280212046009500F0FA
:102DB00009F8002804D0606D40F020006065032011
:102DC000F8BD00002DE9F8431E46914688460446AA
:102DD000089DFEF711F9401B351AFEF70DF907465D
:102DE00025480068C0F3CB30684338E0701C37D00A
:102DF000FEF702F9C01BA84203D215B1009860B3D8
:102E00002CE02068416821F0E00141606068B0F585
:102E1000827F0BD1A068B0F5004F02D0B0F5806F73
:102E200004D12068016821F040010160A06AB0F57A
:102E3000005F09D12068016821F400510160206819
:102E4000016841F400510160012084F85100002024
:102E500084F850000320BDE8F8830025401E009050
:102E60002068816838EA010004D000214945BDD1BD
:102E70000020F0E70121F9E74C0000207047FEF741
:102E8000C1B830B593B028216846FDF77AFA14210D
:102E90000AA8FDF776FA002501200F9510951195E7
:102EA000010412958DE8230004904FF4E010CDE961
:102EB0000810022407946846FEF78EFA08B172B62D
:102EC000FEE70AA90F2081E831004FF48060CDE9C8
:102ED0000D0502210AA8FEF7A3F908B172B6FEE7B4
:102EE0004FF4004011900F940FA8FEF723F900282B
:102EF00001D072B6FEE713B030BD70470148FFF74E
:102F00002AB80000D80000200148FFF724B80000CC
:102F100020010020F0B50268194B1A4C1A4D4FF0F1
:102F20008047984205D0B84203D0A04201D0A842C1
:102F300003D122F070064A683243984205D0B84265
:102F400003D0A04201D0A84203D122F44074CA6841
:102F500022434C6922F08002224302608A68C262E6
:102F60000A688262984201D10969016301214161C5
:102F70000169C90703D0016921F001010161F0BDB8
:102F8000002C0140000400400008004010B5846897
:102F900042EA032224F47F440A432243826010BDA4
:102FA000826822F070020A4342F007018160704794
:102FB00010B5036A046A24F001040462846924F0F1
:102FC000F00444EA021423F00A020A438461026214
:102FD00010BD10B5036A046A24F010040462846909
:102FE00023F0A00324F4704444EA023243EA0111BE
:102FF0008261016210BD10B5406A0021C185C184A3
:10300000FFF760F810BD70B5446A2068406994F815
:103010004110C0F3C0100025212904D118B1E58466
:10302000204600F062F82068406994F84210C0F32E
:103030008010222904D118B1E585204600F02EF831
:10304000606C40F0100060642046FFF73BF870BDF4
:1030500010B50146406A09680968890616D400213E
:10306000C1840168143151E8002F22F0800241E848
:103070000023002BF5D101680C3151E8002F42F0FC
:10308000400241E80023002BF5D110BDFFF75CFAA8
:1030900010BD10B5406AFFF758FA10BD01680C3139
:1030A00051E8002F22F4907241E80023002BF5D163
:1030B0000168143151E8002F22F0010241E8002399
:1030C000002BF5D1016B012909D101680C3151E8C0
:1030D000002F22F0100241E80023002BF5D120211F
:1030E00080F8421000210163704701680C3151E8FB
:1030F000002F22F0C00241E80023002BF5D120214F
:1031000080F84110704708B590F84210222901D08C
:10311000022008BD82684FF480539A4201D10169B0
:1031200021B1816A9A421BD04AB10AE00268816AE1
:103130005268C2F308020A80816A891C08E00269A9
:1031400072B10268526802F07F020A70816A491CFB
:103150008162C18D491E0904090CC18503D01BE0A1
:1031600002685268F1E70168CA6822F02002CA606A
:103170000168CA6822F48072CA6001684A6922F054
:1031800001024A61202180F8421000214163026B54
:10319000012A03D0FFF79AF9002008BD01630168F6
:1031A0000C3151E8002F22F0100241E80023002BDF
:1031B000F5D101680A68D20602D50A68496800910B
:1031C000818DFEF77EFFE7E770B504460068016970
:1031D000E26821F44051114301612169A06808436C
:1031E000616908432168CA6841F20C639A4302434B
:1031F000CA6020684169A26921F4407111434161AC
:103200001E492068884202D1FEF7B0F801E0FEF7BF
:103210009DF800EBC00101EB0012606864218000A2
:10322000B2FBF0F3B3FBF1F36FF018067343B2FB9C
:10323000F0F5B2FBF0F605EB8305322303EB051541
:10324000B5FBF1F5B6FBF1F605F0F00505EB06155B
:10325000B2FBF0F6B2FBF0F0B0FBF1F06FF0180249
:10326000504306EB800003EB0010B0FBF1F0216847
:1032700000F00F002844886070BD00000038014055
:103280000148FEF721BF0000680100200148FEF759
:103290001BBF0000B0010020FEE70907090E00284F
:1032A00004DB00F1E02080F80014704700F00F000C
:1032B00000F1E02080F8141D7047000088B0FDF791
:1032C000A9FEFFF7DEFDFFF70FFCBE48416941F0A4
:1032D000010141614069002200F0010000901146A7
:1032E0000B20FDF7F5FE0B20FDF7E4FE0022114652
:1032F0000F20FDF7EDFE0F20FDF7DCFE002211464A
:103300001120FDF7E5FE1120FDF7D4FEFFF7A6FC26
:10331000AE48AD49002501604FF4E131C0E9011527
:103320000C24C560C0E904548561C561FFF702F84B
:1033300008B172B6FEE7A548A5494830A14601602C
:10334000A449C0E90115C560C0E904548561C5619F
:10335000FEF7F0FF08B172B6FEE7FFF79DFBFFF73F
:103360005BFCFFF7AFFC9C4F4FF400560022314648
:103370003846FDF73BFE002271109848FDF736FEF7
:1033800092494FF44A72E83901F5BC70FFF73CFBF3
:103390008E489030FFF7F6F98C489030FFF702F92D
:1033A0008F4C208104E0002231463846FDF71EFE96
:1033B0002089C828F7D1012251038748FDF716FE5E
:1033C00082489030FFF7A6FA80489038FEF728FD33
:1033D0007E484838FEF724FD814901220C3181489E
:1033E000FDF7E6FA4FF40066314602A8FFF72EFB20
:1033F000002231467948FDF7F9FDDFF8D0B14FF0F2
:10340000010A0BF1C40B4FF47A78A069401CA0614B
:10341000D4E90701884202D3E56184F803A0A078CB
:10342000022862D3A570A18902A8FFF71CFBE081E6
:103430002082E8B3618AD9B3E278012A53D140F6F9
:10344000020291424FD890424DD9FDF74DF9012229
:10345000C4E90E01614FD60231463846FDF7C6FD7C
:10346000AA218BF8001055218BF801108BF802A0CF
:1034700062788BF80320531C63708BF804200621BC
:103480008BF8051007218BF80610082158468BF899
:103490000710092101720A2141720B2181724B49E7
:1034A0000522C4318BF80B904F4BA1F1340000E0A2
:1034B00019E0FFF732FA2070002231463846FDF756
:1034C00095FD2078012806D141034348FDF786FD8C
:1034D0006089401C6081E570D4E90E01226B821A7C
:1034E0006262C4E90C01208A6082207901283AD105
:1034F000AA218BF8001055218BF801108BF802A03F
:1035000061788BF803104A1C62708BF80410062156
:103510008BF8051007218BF80610082158468BF808
:103520000710092101720A2141720B21817227497A
:103530008BF80B90C4312C4B0522A1F13400FFF71E
:10354000ECF9207000224FF400612448FDF74EFD95
:103550002078012806D141031F48FDF73FFD60890F
:10356000401C60812571A07970B1A57100273E468D
:10357000A08907440120FDF721FC761CB6B2464520
:10358000F6D3B7FBF8F0A082607901287FF43DAF55
:103590006571616AE089CDE90001E26A0B48521C5D
:1035A000E262A38911A1D030FCF716FE0748D030A3
:1035B000FCF796FE054982B2D031A1F18800FEF7F2
:1035C00087FF22E700100240003801406801002018
:1035D0000044004020A1070000100140000C014001
:1035E00000000020500000208096980025752025BE
:1035F000752025752025640A000000002DE9C041D2
:1036000030B4DFF8A0C23CEA111418BF3CEA13142E
:1036100000F0EC8081EA03051CEA111444EAD57439
:1036200018BF1CEA131500F0C780A4EB05044FF087
:10363000004545EAC12145EAC32341EA505143EA26
:10364000525304F17F74994204F500344FEAC020CC
:103650004FEAC22208BF904200F09C804FEA1365F7
:103660000FF24016765D4FEA134506FB05F7C7F1EA
:10367000807706FB07F74FEAD737A7FB0368764248
:10368000C8F58038A7FB06CE38BFA8F1010807FBB4
:1036900008E64FF0000EA6FB028CE6FB03CEDCF141
:1036A000000CCEF1004E38BFAEF1010EA6FB0C5857
:1036B0004FF000074FF00005E6FB0E87A1FB08C6A0
:1036C000A0FB07CE16EB0E0645F10005E1FB0765F2
:1036D00015F1E04E7EBFA4F580345FEA46066D41E9
:1036E00016F1800745F100054FEA17274FEA0666F5
:1036F00047EA0567A6F1DE46B6F1805F4FEA152579
:103700001FD9384624F0010C05EBC471BCF1FE6FE3
:1037100001EB0C1102D8F0BCBDE8008124425CBF73
:1037200001F5801E9EEAC47F02D4F0BCBDE8008192
:10373000244238D4F0BCA1F1C041BDE8004100F002
:1037400049B94FEAD22242EA43524FEAD323A7FBB8
:1037500002864FEAD02040EA415007FB03661EEA8A
:103760000E0F4FEAD12105FB026658BFA6EB0056AB
:10377000B6EB00564FEA520E4EEAC37E18EB0E0E21
:1037800056EB530EBDD518EB02085E417F1C55F178
:103790000005B6E74FF480154FF000074FF0000624
:1037A0004FF00008ADE7F0BC4FF0000001F1C04160
:1037B00001F00041BDE8008111EA0C1F0CEA13156D
:1037C00000D00CE013EA0C1F00F025804FF0000041
:1037D000F0BC81EA030101F00041BDE80081F0BCCA
:1037E000BDE8004181EA030100F0F4B8F0BCBDE897
:1037F000004170B500F0A0F8097EFC3E00F007B86B
:1038000081EA03014FF0000001F00041704781EAB6
:10381000030100F0DFB8F0BCBDE800414FF000004C
:1038200021497047FFFDFBF9F7F5F4F2F0EEEDEBFF
:10383000E9E8E6E4E3E1E0DEDDDBDAD8D7D5D4D3AE
:10384000D1D0CFCDCCCBCAC8C7C6C5C4C2C1C0BFFA
:10385000BEBDBCBBBAB9B8B7B6B5B4B3B2B1B0AF00
:10386000AEADACABAAA9A8A8A7A6A5A4A3A3A2A1E4
:10387000A09F9F9E9D9C9C9B9A999998979796959F
:1038800095949393929191908F8F8E8E8D8C8C8B3B
:103890008B8A8989888887878685858484838382C3
:1038A000828181800000FF070000F87F4FEA41031A
:1038B0004FEA5353A3F58063D3F11E03C8BFD3F17E
:1038C000210C0CDD4FF0004242EAC12242EA505284
:1038D00032FA03FC8CEAE17CACEBE1707047102B10
:1038E000C4BF0020704703F5787CBCF1FF3F04D0D3
:1038F0006FF0004282EA2100704770B500F01CF8BA
:103900004992248000207047F2E710F0004248BF3F
:103910004042B0FA80F310FA03F10AD0C3F11D035C
:1039200003F580634FEA415002EB035202EBD121D1
:1039300070474FF0000070470EF1020E2EF0030E9C
:103940005EF8046B364205D4012A43EB030515F5F6
:10395000001F12D8012841EB010C1CF5001F0CD8E8
:103960000ED14FEAD17C15F5001F0CEB4C0C0CF17D
:10397000020C08BF4CEBD37C04E04FF0080C01E0D4
:103980004FEAD37C0CEB4C0526FA05F606F0070649
:10399000B6F1040C06D20EEB860CBDE870404CF07C
:1039A000010C6047DFE80CF0090B02024FF0004108
:1039B0004FF00000A1F5002170BD19461046012806
:1039C00051EB010418BFD4F5001484BF002001F0AE
:1039D000004170BD0808A0F500114FEA31017047A1
:1039E0003333333333331F40CDCCCCCCCCCC244019
:1039F0003333333333332F40CDCCCCCCCCCC3440E9
:103A00000000000000403F409A99999999D944409C
:103A10000000000000404F400000000000405F40F8
:103A20000000000000406F400000000000407F40A8
:103A3000010202030405060708090A0B0C0D0E0F0C
:103A4000101000000000000000000102030406073F
:103A50000809000000000102030400007C3A00088D
:103A6000000000205000000028010008CC3A0008A7
:103A70005000002078090000440100080000000008
:103A800000000000FA00000000000000000000003C
:103A9000000000000000000000000000803801006D
:103AA0000000000000000000000000000000000016
:103AB0000000000000000000000000000100000005
:0C3AC000100000000000000000127A005E
:04000005080000ED02
:00000001FF
