:020000040800F2
:10000000100B002089010008FF300008C1280008FB
:10001000FD30000857050008CD360008000000003C
:10002000000000000000000000000000DD320008B9
:100030009B0500080000000069310008DF3200085D
:10004000A3010008A3010008A3010008A301000800
:10005000A3010008A3010008A3010008F50500089A
:10006000A3010008A3010008A30100085905000826
:10007000A3010008A301000865050008A30100080A
:10008000A3010008A3010008A3010008A3010008C0
:10009000A3010008A3010008A3010008A3010008B0
:1000A000A30100085D330008A3010008A3010008B4
:1000B000A301000869330008A3010008A301000898
:1000C000A3010008A3010008A3010008A301000880
:1000D000A3010008C1360008A3010008A30100081D
:1000E000A3010008A3010008A301000800F002F822
:1000F00000F03AF80AA090E8000C82448344AAF188
:100100000107DA4501D100F02FF8AFF2090EBAE885
:100110000F0013F0010F18BFFB1A43F0010318473B
:10012000C43F0000E43F0000103A24BF78C878C103
:10013000FAD8520724BF30C830C144BF04680C60ED
:10014000704700000023002400250026103A28BF35
:1001500078C1FBD8520728BF30C148BF0B60704739
:100160001FB51FBD10B510BD00F08AF81146FFF78E
:10017000F7FF03F0BDFA00F0A8F803B4FFF7F2FFB1
:1001800003BC00F0AFF80000094880470948004769
:10019000FEE7FEE7FEE7FEE7FEE7FEE7FEE7FEE737
:1001A000FEE7FEE704480549054A064B7047000094
:1001B0005B330008ED00000810050020100B002044
:1001C000100700201007002010B5203AC0F00B8067
:1001D000B1E81850203AA0E81850B1E81850A0E84B
:1001E0001850BFF4F5AF5FEA027C24BFB1E81850A5
:1001F000A0E8185044BF18C918C0BDE810405FEA15
:10020000827C24BF51F8043B40F8043B08BF704790
:10021000D20728BF31F8023B48BF11F8012B28BF95
:1002200020F8023B48BF00F8012B70474FF0000256
:1002300000B5134694469646203922BFA0E80C50DC
:10024000A0E80C50B1F12001BFF4F7AF090728BFB7
:10025000A0E80C5048BF0CC05DF804EB890028BF33
:1002600040F8042B08BF704748BF20F8022B11F05C
:10027000804F18BF00F8012B7047704770477047D8
:10028000754600F02BF8AE4605006946534620F04F
:100290000700854618B020B5FFF784FFBDE8204071
:1002A0004FF000064FF000074FF000084FF0000B32
:1002B00021F00701AC46ACE8C009ACE8C009ACE8E5
:1002C000C009ACE8C0098D46704710B50446AFF3CD
:1002D00000802046BDE81040FFF74FBF0048704740
:1002E000AC04002001491820ABBEFEE72600020046
:1002F0007047000070B5044600688168C943C907AB
:1003000017D1816821F00101816000F031FE0546BE
:100310000AE000BF00F02CFE401B022804D9206830
:100320008068C043C00706D020688068C043C0070B
:10033000F0D0002070BDA06A40F01000A062E06A1A
:1003400040F00100E062012070BD10B50146406A36
:10035000826A12F0500F05D0006A026BBDE81040AF
:1003600008461047816A41F400718162016889681A
:10037000C1F3424107290CD1017B51B9816A21F4B3
:1003800080718162816AC90403D4816A41F00101EC
:10039000816200F0E3F910BD10B5406A816A41F056
:1003A00040018162C16A41F00401C16200F0D8F9E4
:1003B00010BD10B5406A00F0D2F910BDF8B50026A6
:1003C0000446009600688168C943C9072DD081683A
:1003D00041F001018160164816490068B0FBF1F058
:1003E00000E0401E00900028FBD100F0C1FD054652
:1003F00016E000BF00F0BCFD401B022810D92068A9
:100400008068C043C0070BD0A06A40F01000A06213
:10041000E06A40F00100E06284F824600120F8BD49
:1004200020688068C043C007E4D10020F8BD000008
:100430005800002040420F002DE9F041044600F032
:1004400097FDC4F8EC00D4F8E410411AC4F8E810A1
:10045000B1F5FA7F53D3C4F8E4002568288803F087
:1004600021FD2C4E314603F05BFC2B4F394603F047
:100470002DFDDFF8A880414603F028FDC4F8D40024
:100480002988201D02F08BFCA4F8DC0003F00AFD93
:10049000314603F045FC394603F018FD414603F0B0
:1004A00015FD1F491F4A00250123C4F8D8008842C2
:1004B0000BDAB4F8DE103C2903D2491CA4F8DE1094
:1004C00005E053710221517001E0A4F8DE5094F868
:1004D000E21039B91449884204DA1449884201DD2E
:1004E00084F8E2301249884210DD94F8E20068B1E5
:1004F000B4F8E000782804D2401CA4F8E000BDE87D
:10050000F0815571537084F8E250F8E7A4F8E05098
:10051000F5E7000000F07F4533335340CDCC9C40DD
:10052000CDCC144100000020CDCC2441000040403F
:100530000000284140F8D41B002140F8101908227F
:1005400041610183016241628162418381838177DC
:10055000C03802F00DBCFEE7014800F0CDBA000043
:1005600024040020014800F0C7BA000068040020FD
:1005700030B590F840500124AC40C56B6C60046805
:1005800063604368102B036803D099600068C26001
:1005900030BD9A600068C16030BD704730B5124D03
:1005A0002889B0F5FA7F1DD300242C8100F028F8AB
:1005B0000E49686491F8D720002A13D0D1F8E020C2
:1005C00082420FD2D1F8E020801A094A904209D91C
:1005D00081F8D740A1F8DC40C1F8E040C1F8E44020
:1005E00081F8D64030BD0000000000204402002009
:1005F000400D0300022000F0B1BB72B6FEE7000020
:1006000010B50549054CC86A2268CB6A9842FAD1F0
:1006100002EB004010BD0000000000202404004058
:100620002DE9F0410D4EB079002815D00020B071B1
:100630000546044606F148084FF47A77B8F80000FA
:100640000544012000F068FB641CBC42F6DBB5FBEE
:10065000F7F070820120B070BDE8F081000000204A
:10066000F8B50024009490F824202546012A12D0E1
:10067000012280F824204A681F23072A0DD2066829
:10068000776B521E02EB820293409F430B689340AC
:100690001F43776319E00220F8BD06680D2A0AD2CD
:1006A000376BD21F02EB820293409F430B6893404B
:1006B0001F43376309E0F76A0D3A02EB8202934069
:1006C0009F430B6893401F43F7620A68072306683D
:1006D0000A2A0AD3F7680A3A02EB420293409F4380
:1006E0008B6893401F43F76008E0376902EB4202D2
:1006F00093409F438B6893401F4337610A68102AD9
:1007000001D0112A20D1124B02689A4217D1936866
:100710001B0219D4936843F40003936009681029FD
:1007200012D10C490C4A0968B1FBF2F101EB8101CD
:10073000490000E0491E00910029FBD104E0816AD4
:1007400041F020018162012480F824502046F8BD48
:10075000002401405800002040420F0070477047BD
:10076000704700002DE9F0414FF0000704003D46BE
:100770007ED0A06A002628B9E66284F8246020466C
:1007800000F07EF82046FFF7B5FDA16AC90600D447
:1007900020B1A06A40F01000A06269E0A16A21F4D3
:1007A000885141F00201A1626268E169237B0A433A
:1007B00047EA43010A43A1684FF48077B94209D060
:1007C000012907D05FF0000194F814C0BCF1010FBB
:1007D00002D00AE03946F7E7F3B1A36A43F02003F9
:1007E000A362E36A43F00103E3622368D3F804C021
:1007F0002CF4694C4CEA010CC3F804C021688B68E6
:10080000DFF870C003EA0C0313438B60A168B942A0
:100810000BD0012909D00CE0DFF85CC0A3690CEB18
:1008200043330B4343F40061DFE7218A0D05A5F54F
:1008300080152168CB6A23F470032B43CB622168B7
:1008400089680E4B1940914208D1E662A16A21F0F5
:10085000020141F00101A162BDE8F081A06A20F02F
:10086000020040F01000A062E06A40F00100E06287
:100870000120F1E7FDF7E1FF00E0FFFFFE0E1FFFA3
:1008800070B586B000250646009501950295039542
:100890000068194988422DD11849886940F40070D0
:1008A0008861886900F400700490886940F0040051
:1008B00088618869694600F0040004900320009074
:1008C00001900F4800F056FA0F4C0E48C4E900059D
:1008D0008020C4E902504000206180006061202037
:1008E000C4E90605204600F0B1F908B1FFF785FE1E
:1008F0003462666206B070BD002401400010024000
:100900000008014008000240240400202DE9F047BF
:10091000894604463B4900683B4F0E1D904688427D
:1009200001D0B84207D1306810F4702F03D00125F0
:100930002846BDE8F08794F8240001280CD0012057
:1009400084F824002046FFF739FD05004FF0000031
:1009500004D084F82400EBE70220EAE7A16A40F61D
:100960000162914341F48071A1622168B94218D1BA
:10097000326812F4702F14D0A16A41F48011A16280
:100980003168490505D5A16A21F4005141F480512F
:10099000A162A16AC9040AD5E16A21F00601E162F7
:1009A00006E0A26A22F48012A2624968E9E7E062E6
:1009B00084F82400216A15488862216A1448C862B4
:1009C000216A1448086321686FF0020008602068FB
:1009D000816841F480718160216843464A464C3108
:1009E000206A00F061F920688168C1F3424107295B
:1009F000816803D041F48011816099E741F4A0013E
:100A0000FAE7000000240140002801404B030008E1
:100A1000B30300089903000810B590F821100022D4
:100A2000022905D00421816380F82020012010BD17
:100A300001680B6823F00E030B6001680B6823F05C
:100A400001030B6090F84030C46B012101FA03F3FD
:100A5000636080F8211080F82020104610BD00004F
:100A600010B590F821100024022903D004218163DD
:100A700001243DE001680A6822F00E020A60016864
:100A80000A6822F001020A601A4A0168914201D103
:100A9000012121E0174A1432914201D110211BE0BB
:100AA000144A2832914201D1891515E0114A3C328D
:100AB000914201D189140FE00E4A5032914202D185
:100AC0004FF4803108E00B4A6432914202D14FF476
:100AD000801101E04FF08071064A083A516001210F
:100AE00080F82110002180F82010416B01B1884767
:100AF000204610BD080002402DE9F05FC16B0C6874
:100B000001680B68D0F840C0042202FA0CF2494D8B
:100B1000DFF824A1494E4A4FDFF828B1DFF828E179
:100B200022422CD05A072AD50A68920603D40A68B2
:100B300022F004020A600168A94201D1042219E0EE
:100B4000514501D1402215E0B14202D14FF48062FB
:100B500010E0B94202D14FF480420BE0594502D176
:100B60004FF4802206E0714502D14FF4800201E08B
:100B70004FF080622F4908394A60C16A3BE04FF06C
:100B8000020808FA0CF818EA040F4FF000094FF0B9
:100B9000010235D05FEA837832D50B689B0605D415
:100BA0000B6823F00A030B6080F821200168A9423A
:100BB00001D1022219E0514501D1202215E0B142B4
:100BC00002D14FF4007210E0B94202D14FF400524A
:100BD0000BE0594502D14FF4003206E0714502D1D5
:100BE0004FF4001201E04FF00072124908394A60D8
:100BF00080F82090816A00291AD0BDE8F05F08478C
:100C0000082505FA0CF5254212D01B0710D50B68F4
:100C100023F00E030B6090F84010C36B02FA01F151
:100C20005960826380F8212080F82090016BE2E710
:100C3000BDE8F09F080002401C0002403000024066
:100C400044000240580002406C00024030B528B316
:100C500008C8134914221944B1FBF2F18900C16399
:100C600010498163022141771A6843F6F0718A4383
:100C7000D0E900142143D0E902452C432143046903
:100C800021434469214384692143114319600021B0
:100C90004163012242770177084630BD012030BD13
:100CA000F8FFFDBF0000024070B5044690F8200038
:100CB000002501280CD0012084F8200094F8216040
:100CC0000020012E06D084F820000225284670BDA1
:100CD000022070BD022684F82160A06320680668A7
:100CE00026F0010606602046FFF742FCE06A002875
:100CF0002068016802D041F00E0106E021F00401F5
:100D000001602068016841F00A0101602068016803
:100D100041F001010160D9E770B5044600F028F9FF
:100D20000546601C02D004480078044400F020F915
:100D3000401BA042FAD370BD4C0000200549898AAF
:100D4000814205D10448018A491C018201210171B7
:100D5000704700000402002000000020044910B584
:100D60000A68024202D00860FFF7E8FF10BD0000E9
:100D7000140401402DE9F84FDFF8B8910024A9F1DF
:100D8000040B23460F2709F1040AABF1040EC9E056
:100D90000125A5402A40AA427DD1674ED1F804C062
:100DA000ACEB0608B44532D014DCBCF1030F3AD0EA
:100DB00009DCBCF1000F2AD0BCF1010F1CD0BCF142
:100DC000020F31D11DE0BCF1110F17D0BCF1120F91
:100DD0002AD119E0B8F5881F19D006DCB8F5803F94
:100DE00015D0B8F5801F1FD111E0B8F5001F0ED047
:100DF000B8F5041F18D10AE0CB6815E0CB681B1DBD
:100E000012E0CB6808330FE0CB680C330CE08B6842
:100E10002BB1012B4FF0080303D0456104E00423FC
:100E200002E0056100E00023FF2A01D8064601E048
:100E300000F104064FEA840501D9A5F12005D6F892
:100E4000008007FA05FC28EA0C0803FA05F548EAD1
:100E50000508C6F800804D68ED0062D5374DAE69D3
:100E600046F00106AE61AD6924F0030605F0010508
:100E70000095334D06EB050CDCF80850A607360F3D
:100E800007FA06F825EA0805DFF8B880404503D1DF
:100E90004FF0000817E044E0DFF8AC80404502D195
:100EA0004FF001080FE0DFF8A480404502D14FF079
:100EB000020808E0DFF89880404502D14FF00308AF
:100EC00001E04FF0040808FA06F848EA0508CCF8F3
:100ED00008804D68D9F80060ED024D4601D51643F3
:100EE00000E096432E604D68DAF80060AD0255468A
:100EF00001D5164300E096432E604D68DBF8006094
:100F0000AD035D4601D5164300E096432E604D6863
:100F1000DEF80060ED03754601D5164300E0964308
:100F20002E60641C0D682A46E5407FF431AFBDE8B1
:100F3000F88F00000804014000001110001002406A
:100F40000000014000080140000C01400010014079
:100F500000140140C26821EA02030A4043EA024148
:100F6000016170470AB1016170470904FBE70000A5
:100F700001488068704700004C00002002488168EA
:100F800002781144816070474C000020074810B57A
:100F9000016841F010010160032000F075F80F2096
:100FA00000F006F800F024F8002010BD00200240F8
:100FB00070B50D4D04464FF47A712878B1FBF0F00E
:100FC0000A490968B1FBF0F000F03BFE48B9102C6B
:100FD00007D200222146501E00F036F800206C6037
:100FE00070BD012070BD00004C00002058000020A2
:100FF0000C4808B5816941F001018161816901F006
:1010000001010091C16941F08051C161C06900F0E6
:10101000805000900448416821F0E06141F0007187
:10102000416008BD0010024000000140002809DBBB
:1010300000F01F02012191404009800000F1E020F2
:10104000C0F8001170470000F0B40E4B1B680C464E
:10105000C3F30223C3F10705042D00D90425191D8C
:10106000072901D2002300E0DB1E012606FA05F164
:10107000491E214099409E40761E16403143F0BCE7
:1010800002F025BB0CED00E0064900F007020868FD
:101090004FF6FF03184040EA0220034A104308605D
:1010A000704700000CED00E00000FA052DE9F84360
:1010B00005460078354CC00754D0E0690026C000D2
:1010C00008D4E06940F08050E061E069012600F05A
:1010D000805000902E480168C90512D401688046EE
:1010E00041F480710160FFF743FF074605E000BF50
:1010F000FFF73EFFC01B642823D8D8F80000C005C6
:10110000F6D5206A10F4407021D0A98801F440710E
:1011100081421CD0206A1F49012220F440700A60DD
:1011200000220A602062C00711D0FFF721FF0746A6
:1011300041F2883808E000BFFFF71AFFC11B4145A4
:1011400002D90320BDE8F883206A8007F4D5206A1D
:10115000696820F44070084320621EB1E06920F005
:101160008050E0612878800705D56068A96820F480
:101170004040084360602878C00605D56068E9688B
:1011800020F48000084360600020DBE7001002408C
:1011900000700040400442422DE9F0470F46050030
:1011A00061D0434E306800F00700B84209D2306881
:1011B00020F0070038433060306800F00700B84284
:1011C00051D128683B4C810712D5400703D5606890
:1011D00040F4E06060602878000703D5606840F460
:1011E000605060606068A96820F0F00008436060AB
:1011F0002878C00728D06868012810D02168022804
:1012000010D0890700292EDA616821F0030101431B
:101210006160FFF7ADFE804641F288390DE021683C
:101220008903EFE78901EDE7FFF7A2FEA0EB0801D4
:10123000494502D90320BDE8F0876068696800F07D
:101240000C00B0EB810FEFD1306800F00700B8421E
:101250000BD9306820F0070038433060306800F068
:101260000700B84201D00120E5E72878400705D5FE
:101270006068E96820F4E06008436060287800074F
:1012800006D56068296920F4605040EAC1006060BA
:1012900000F038F86168084AC1F30311515CC84096
:1012A0000649086006480068FFF782FE0020C2E792
:1012B0000020024000100240CA40000858000020F0
:1012C000500000200448054900684968044AC1F3F9
:1012D0000221515CC84070475800002000100240B5
:1012E000DA4000080448054900684968044AC1F327
:1012F000C221515CC84070475800002000100240D5
:10130000DA4000080E4A51680E4801F00C03042B25
:1013100011D0082B0FD10C48C1F38343C903C05C23
:101320000AD55168084AC1F34041921E515C054AF2
:101330005043B0FBF1F07047044948437047000048
:101340000010024000127A00BA40000800093D0077
:101350002DE9F84F040070D02078C04DC00749D067
:101360006868C0F38100012807D06868C0F3810075
:10137000022809D16868C00306D52868800339D5DA
:1013800060680028E7D035E06068B0F5803F0BD09A
:1013900010B1B0F5A02F11D0286820F4803028605B
:1013A000286820F4802002E0286840F4803028601B
:1013B000606890B1FFF7DCFD06460AE0286840F45B
:1013C00080202860F0E700BFFFF7D2FD801B642873
:1013D00073D828688003F7D50CE0FFF7C9FD0646EF
:1013E00005E000BFFFF7C4FD801B6428F0D8286823
:1013F0008003F7D420789A4E80074FF001094FF010
:10140000000839D5686810F00C0F07D06868C0F381
:101410008100022809D16868C00306D428688007C3
:1014200014D52069012808D110E02069B0B1C6F8B0
:101430000090FFF79DFD074605E00AE1FFF798FDE4
:10144000C01B0228C4D828688007F7D528686169BE
:1014500020F0F80040EAC10028600DE0C6F80080E6
:10146000FFF786FD074604E0FFF782FDC01B022858
:1014700023D828688007F7D4207800072CD579482E
:10148000A169D9B1C0F80090FFF772FD074604E0EA
:10149000FFF76EFDC01B02280FD8686A8007F7D5DA
:1014A00071484FF4FA510068B0FBF1F0009000BFB2
:1014B0000098411E0091FAD20EE080E0C0F8008052
:1014C000FFF756FD074604E0FFF752FDC01B022858
:1014D00075D8686A8007F7D42078400760D5E86936
:1014E0000027C00008D4E86940F08050E861E8694E
:1014F000012700F0805000905C480168C90513D4B2
:101500000168834641F480710160FFF731FD824636
:1015100006E000BFFFF72CFDA0EB0A0064284ED8C0
:10152000DBF80000C005F5D5E06801280AD008B155
:10153000052813D0286A20F001002862286A20F0CC
:10154000040002E0286A40F001002862E06841F2ED
:10155000883B98B1FFF70CFD82460BE0286A40F00B
:1015600004002862EEE700BFFFF702FDA0EB0A01CE
:1015700059455AD8286A8007F6D50CE0FFF7F8FCE1
:10158000824605E0FFF7F4FCA0EB0A0159454CD870
:10159000286A8007F6D41FB1E86920F08050E8611E
:1015A000E06988B36968C1F38101022944D0022847
:1015B000C6F8608004D0FFF7DBFC044638E034E076
:1015C000FFF7D6FC074604E0FFF7D2FCC01B022859
:1015D0002BD828688001F7D4206AB0F5803F05D168
:1015E0006868A16820F4003008436860D4E9080105
:1015F0000843696821F4741108436860C6F8609074
:10160000FFF7B6FC044606E025E000BFFFF7B0FC9C
:10161000001B022809D828688001F7D51BE000BF0D
:10162000FFF7A6FC001B022802D90320BDE8F88FB3
:1016300028688001F4D40EE00128F7D06868226A97
:1016400000F48031914204D1616A00F47010884244
:1016500001D00120EAE70020E8E700000010024086
:1016600000004242800442425800002000700040C6
:1016700090F85100704770B5040009D0606A0025E9
:1016800040B125616561A56294F8510040B10CE05C
:10169000012070BD6068B0F5827FF4D0E561F2E7AB
:1016A00084F85050204600F03FF8022084F85100A2
:1016B0002068016821F040010160A088218900F4C0
:1016C000827001F404410843A18901F400610843D8
:1016D000217C01F002010843217D01F00101084352
:1016E000218B01F400710843217F01F03801084388
:1016F00094F8201001F080010843218D01F400517D
:10170000084321680860A069042101EA10402168AB
:1017100048602068C16921F40061C16165650120EC
:1017200084F85100002070BD30B585B000240094CD
:1017300001940294039400681449884223D1144808
:10174000816941F480518161816901F48051049182
:10175000816941F00401816180690E4D00F004004F
:101760000490A0200090022001900320039069467D
:101770002846FFF7FFFA4020CDE9000469462846D5
:101780000294FFF7F7FA05B030BD000000300140C9
:1017900000100240000801402DE9F84F044690F87F
:1017A00051001D4616460F46012838D160684FF09B
:1017B0000408B0F5827F01D1A06830B3FFF7D8FBF1
:1017C0008246002F75D0002E73D094F85000012867
:1017D00025D04FF0010984F8509084F851804FF0E3
:1017E0000008C4F85480A763A687E687C4F8308051
:1017F000A4F83480A4F83680C4F84080C4F844804B
:10180000A068B0F5004F0CD015E084F8518000932B
:1018100013460A46204600F01CF9BDE8F88F022066
:10182000FBE72068016821F0400101602068016841
:1018300021F48041016020680168490603D40168F1
:1018400041F040010160E068C0B134E02068816887
:10185000C90709D0007BA16B0870A06B401CA06376
:10186000E08F401EE08709E0FFF782FBA0EB0A0053
:10187000A84202D3681C01D032E085B3E08F002873
:10188000E4D11BE020688168C90709D0C068A16B5A
:101890000880A06B801CA063E08F401EE0870AE0F8
:1018A000FFF766FBA0EB0A00A84203D3681C02D036
:1018B00016E012E09DB1E08F0028E3D152462946A0
:1018C000204601F067FC08B12020606584F8519043
:1018D00084F85080606D00289FD001209DE7FFE7CD
:1018E00084F8519084F85080032096E72DE9F84F52
:1018F000984616468A460446FFF73AFB814694F816
:10190000510001281ED1BAF1000F73D0002E71D002
:1019100094F85000012815D0012784F85070032056
:1019200084F8510000256565C4F830A0A686E686D7
:10193000A563A587E58765642564A068B0F5004FB9
:1019400003D00CE00220BDE8F88F2068016821F088
:10195000400101602068016841F480410160206815
:101960000168490603D4016841F040010160E06864
:10197000B0F5006F606803D048B3012E27D047E070
:1019800008B1012E1FD1206B21680088C86006E0D5
:1019900020688168890709D5216B0988C160206B9F
:1019A000801C2063E08E401EE0860CE0FFF7E0FA2A
:1019B000A0EB0901414503D3B8F1FF3F03D035E067
:1019C000B8F1000F32D0E08E0028E1D123E0206B87
:1019D00021680078087306E02068816889070AD5C5
:1019E000216B09780173206B401C2063E08E401E40
:1019F000E0860DE02BE0FFF7BBFAA0EB09014145C3
:101A000003D3B8F1FF3F03D010E0B8F1000F0DD0C1
:101A1000E08E0028E0D14A464146204601F0E8FB2E
:101A200008B120206065A06830B109E084F85170E9
:101A300084F85050032086E72068C16880680090D1
:101A400084F8517004F8505F60680028F3D00120DA
:101A500079E72DE9FF4F81B01D46934604464FF0CC
:101A600001090E9EFFF784FA074694F85100616859
:101A7000012806D0B1F5827F3CD1A168C9BB0428FA
:101A800038D10298002871D0BBF1000FFBD0002D97
:101A9000F9D094F8500001282CD04FF0010A84F8B6
:101AA00050A094F85100042802D0052084F8510079
:101AB0004FF00008C4F85480C4F838B0E587A58713
:101AC00002992163E586A586C4F84080C4F8448065
:101AD00020680168490603D4016841F040010160B3
:101AE000E068B0F5006F606808D0F0B3012D49D010
:101AF00081E0FFE7022005B0BDE8F08F08B1012DBD
:101B000039D1206B21680088C860206B801C20635D
:101B1000E08E401EE0862EE02068816889070FD5A0
:101B2000E18E69B1B9F1010F0AD1216B0988C16059
:101B3000206B801C2063E08E401EE0864FF0000981
:101B400020688168C9070CD0E18F51B1C068A16BD2
:101B50000880A06B801CA063E08F401EE0874FF0E0
:101B60000109FFF705FAC01B01E00BE067E0B04296
:101B700001D3701C50D1E08E0028CDD1E08F002819
:101B8000CAD13EE0206B216800780873206B401CAE
:101B90002063E08E401EE0862DE020688168890782
:101BA0000FD5E18E69B1B9F1010F0AD1216B097826
:101BB0000173206B401C2063E08E401EE0864FF0D6
:101BC000000920688168C9070CD0E18F51B1C06855
:101BD000A16B0870A06B401CA063E08F401EE087E3
:101BE0004FF00109FFF7C4F9C01BB04202D3701CCB
:101BF00001D011E086B1E08E0028CED1E08F002820
:101C0000CBD13A463146204601F0F2FA50B12020BD
:101C1000606584F8508012E084F851A084F8508008
:101C2000032068E7A06818B92068C1688068009040
:101C300084F851A084F85080606D0028F1D0012014
:101C400059E710B5401EB0F1807F01D3012010BDCF
:101C50004FF0E02460610F21601701F038FD002093
:101C6000A06107202061002010BD70477047000070
:101C700070B590F83C20012A26D0012480F83C4021
:101C8000022280F83D2003685A689D6822F07006A1
:101C90000A6832435A600D4B02689A4208D0B2F18A
:101CA000804F05D00A4B9A4202D00A4B9A4204D187
:101CB000496825F080031943916080F83D40002178
:101CC00080F83C10084670BD022070BD002C014019
:101CD000000400400008004010B5040003D094F850
:101CE0003D0010B107E0012010BD002084F83C0049
:101CF000204600F01FF8022084F83D00211D2068D6
:101D000001F038FB012084F8460084F83E0084F896
:101D10003F0084F8400084F8410084F8420084F8D1
:101D2000430084F8440084F8450084F83D00002016
:101D300010BD000000B585B0002100910191029115
:101D40000391264A0168264891420ED1816941F4E7
:101D5000006181618069002200F4006004901146F6
:101D60001920FFF771F9192013E0B1F1804F14D059
:101D70001C4A91420FD1C16941F00201C161C069A1
:101D8000002200F00200049001211D20FFF75CF901
:101D90001D20FFF74BF905B000BDC16941F00101FD
:101DA000C161C16901F001010491816941F004013F
:101DB00081618069694600F0040004904FF400409E
:101DC00000900948FEF7D6FF0848416821F44071A9
:101DD00041F0E06141F480714160DCE7002C01409A
:101DE00000100240000400400008014000000140D3
:101DF00090F83D10012901D001207047022180F8A0
:101E00003D100168CA6842F00102CA6000680B49CF
:101E1000884208D0B0F1804F05D00949884202D0ED
:101E20000849884204D1816801F00701062903D0DE
:101E3000016841F00101016000207047002C014061
:101E4000000400400008004070B5044690F83C00D3
:101E50000025012817D0012684F83C60022084F870
:101E60003D002068826822F0770222F47F4282607F
:101E70000868502838D00DDC20284FD005DC90B3FE
:101E8000102811D14AE0022070BD302846D04028E9
:101E90000AD13BE060282FD070280DD0B0F5805FCC
:101EA00003D0B0F5005F12D0012584F83D6000201A
:101EB00084F83C00284670BDCB68D1E90121206838
:101EC00001F094FA2068816841F0770109E0CB685D
:101ED000D1E90121206801F089FA2068816841F484
:101EE00080418160E1E719E0CA684968206801F033
:101EF0008FFA5021206806E0CA684968206801F01E
:101F0000C5FA6021206801F07BFACEE7CA6849680B
:101F1000206801F07DFA40212068F4E7226801463C
:101F20001046F0E770472DE9F041054690F83C0077
:101F300000260C46012810D0012085F83C0072B123
:101F4000042A1CD0082A2CD00C2A50D001260020AC
:101F500085F83C003046BDE8F0810220FBE7D4E97B
:101F60000012E368286801F065FA2868816921F0A9
:101F70000C01816128688169A26811430FE0D4E9EE
:101F80000012E368286801F093FA2868816921F457
:101F90004061816128688169A26841EA022181610A
:101FA000D5E72868D4E9002C277B036A016A21F46D
:101FB00080710162C16923F4007321F0030141EAD9
:101FC0000C0121F0F00C39074FF400774CEA116155
:101FD00007EA02221A43C16102622868C16921F03E
:101FE0000C01C1612868C169A26811432BE028680F
:101FF000D4E90021E768036AD0F820C02CF4805CA3
:10200000C0F820C0D0F81CC023F400532CF4407C4E
:102010004CEA012121F4704C4FF6FF7101EA0731BF
:102020004FF4005741EA0C0107EA02321A43C1613A
:1020300002622868C16921F44061C1612868C169F0
:10204000A26841EA0221C16181E710B5040003D012
:1020500094F83D0010B107E0012010BD002084F885
:102060003C00204600F01EF8022084F83D00211DAF
:10207000206801F07FF9012084F8460084F83E00D2
:1020800084F83F0084F8400084F8410084F842005E
:1020900084F8430084F8440084F8450084F83D0047
:1020A000002010BD70472DE9F04104460068C66865
:1020B00005694FF00007A90713D5B10711D5F91E1F
:1020C000016101202077206880698007204602D0C6
:1020D000FFF728FF04E000F07EF8204600F07CF8CF
:1020E0002777680716D5700714D521686FF00400AC
:1020F0000861022020772068806910F4407F204624
:1021000002D0FFF70FFF04E000F065F8204600F072
:1021100063F82777280715D5300713D521686FF0A6
:1021200008000861042020772068C06980072046E5
:1021300002D0FFF7F7FE04E000F04DF8204600F073
:102140004BF82777E80616D5F00614D521686FF00E
:1021500010000861082020772068C06910F4407FD3
:10216000204602D0FFF7DEFE04E000F034F82046FF
:1021700000F032F82777E80708D0F00706D021688A
:102180006FF001000861204600F028F8280608D505
:10219000300606D521686FF0800008612046FFF701
:1021A00064FD680608D5700606D521686FF040000A
:1021B0000861204600F08CF8A8060AD5B00608D5BC
:1021C00021686FF0200008612046BDE8F041FFF76C
:1021D0004DBDBDE8F081704770470000F0B507467F
:1021E00000683749374D884262D1686A401C68628E
:1021F0006889401C6881A889401CA8812878401CF7
:10220000C0B22870022853D3FEF7FAF900212970D2
:102210002989491C29812C4C064620680188201DEB
:1022200000F0BDFDA4F8D80094F8D600012140B913
:10223000B4F8D820B4F8D400C838824238DA84F828
:10224000D610D4F8E000B4F8DA30301AB4F8D4205C
:1022500093422AD8B4F8D830934226D9D4F8E02053
:102260000AB345F21402904203D9A0F59C402038ED
:10227000F9E7A0F598422C3AB2F57A7F15D8C4F860
:10228000E460C4F8E80084F8EC10B4F8DC004B28F3
:1022900009D2B4F8DC00401C80B2A4F8DC004B2862
:1022A00001D184F8D710C4F8E06034F8D80F60800A
:1022B00006493868884202D1E86A401CE862F0BDED
:1022C000002C0140000000204402002000040040D7
:1022D0007047704770470000F8B501680446086809
:1022E000CA684B6910F00F0F4FF0000559D003F08A
:1022F000010602F49077374365D0C10705D0D105B8
:1023000003D5616C41F001016164410705D5D9072E
:1023100003D0616C41F002016164810705D5D907E2
:1023200003D0616C41F004016164010707D502F03C
:102330002001314303D0616C41F008016164616C9C
:1023400000293AD0800604D5900602D5204601F037
:10235000F9F820684069616CC0F38010090700D467
:1023600060B3204601F0C7F820684069400621D5D7
:102370002068143050E8001F21F0400140E80012AE
:10238000002AF5D1E06BA8B16D494163E06BFEF71F
:1023900067FB002811D0E06B416B01B0BDE8F04055
:1023A000084783060FD593060DD52046BDE8F840B3
:1023B00001F0C8B82046FFF78DFFF8BD2046FFF7B3
:1023C00089FF6564F8BD266B2023012E7CD1C606EB
:1023D0007AD5D60678D508684868009048694FF0E5
:1023E0000206400640D5E16B086840680004000C16
:1023F000E8D0A28D8242E5D9E085886920282DD0D9
:1024000020680C3050E8001F21F4807140E8001271
:10241000002AF5D12068143050E8001F21F0010196
:1024200040E80012002AF5D12068143050E8001F5F
:1024300021F0400140E80012002AF5D184F8423032
:10244000256320680C3050E8001F21F0100140E89F
:102450000012002AF5D1E06BFEF7DEFA6663A08D6C
:10246000E18D401A81B22AE0A08DE18D401A81B23F
:10247000E08D0028A6D00029A4D022680C3252E8B2
:10248000000F20F4907042E80007002FF5D120687B
:10249000143050E8002F22F0010240E80027002FFE
:1024A000F5D184F84230256320680C3050E8002FC5
:1024B00022F0100240E80023002BF5D1666320468D
:1024C000FFF707FFF8BDFFE705062BD5150629D551
:1024D00094F841002128F5D1A068B0F5805F01D1C2
:1024E0002069B0B1206A411C2162216800784860EF
:1024F000E08C401E0004000CE084E3D12068C16839
:1025000021F08001C1602068C16841F04001C160D4
:10251000D8E7206A0088C0F308004860206A801C61
:102520002062E5E74006CDD55006CBD5CA682046E7
:1025300022F04002CA6084F8413000F08EF8C1E712
:10254000E734000870B5040004D094F84100002579
:1025500010B106E0012070BD84F84050204600F024
:1025600023F8242084F841002068C16821F4005138
:10257000C160204601F048F82068016921F49041CB
:1025800001612068416921F02A0141612068C16828
:1025900041F40051C1606564202084F8410084F852
:1025A00042006563002070BD70B586B00025064608
:1025B00000950195029503950068224988423FD114
:1025C0002149886940F480408861886900F480402E
:1025D0000490886940F00400886188691B4C00F011
:1025E00004000490481500900220019003200390FD
:1025F00069462046FEF7BEFB2015CDE90005694679
:1026000020460295FEF7B6FB124C114820601020C0
:10261000C4E901058020C4E903056561A561204680
:10262000E561FEF713FB08B1FDF7E7FFB463002295
:10263000114625206662FEF707FD2520FEF7F6FC11
:1026400006B070BD00380140001002400008014093
:1026500044000240680400207047704710B5104CD9
:10266000A37810484FF4006163B1012B0CD0002215
:10267000022B0ED0032B04D1A089B0F5FA6F00D342
:10268000A27010BD002200E00122BDE81040FEF75C
:1026900069BCA2810122FEF765FC0320A07010BD79
:1026A000000000200008014070B5234890F8D700D2
:1026B000224C002590B96583214EA583E583002235
:1026C00020213046FEF74EFC002240213046FEF726
:1026D00049FC002280213046FEF744FC60784FF42C
:1026E0006161042812D00DDC4FF0FF06A0B1012873
:1026F00015D0022816D003280DD1658100F012FDF7
:10270000042017E0052811D0062804D160898842EA
:1027100001D36581657070BD00F0F2FC04E000F04B
:1027200001FD01E000F00EFD667070BD658100F0F6
:1027300009FD0620607070BD4402002000000020EA
:10274000000C01402DE9F0415A4C2079002873D04B
:102750000027277158490522A1F1340000F0A1F9A2
:10276000554DE07029786878AA78EB7808441A44C7
:102770001044C0B2AA2974D12979814271D16079FB
:1027800001286ED003206070FDF73AFF05F10C01BF
:10279000606391F8D720002A7ED051F8E02F44F6EC
:1027A0002063821AB2FBF3F603FB1622A2630968C8
:1027B000411AB1FBF3F1E163216B6423401A2064F9
:1027C000687864214843A082A97864204143E1826B
:1027D000E878584341F60B2320839A4203D944F604
:1027E00038239A4203D9628B521C62830AE043F277
:1027F00015439A4203D8E28B521CE28302E0A28B7B
:10280000521CA283638BA28B2C4D022693420AD9C1
:10281000B4F81EC0634506D9012220212846FEF7E0
:10282000A1FB00222EE09A4207D9B4F81EC06245EF
:1028300003D9814237D808E033E0B4F81EC09C4584
:1028400010D994450ED981422DD900222021284645
:10285000FEF788FB002240212846FEF783FB012279
:1028600015E019E0002220212846FEF77BFB00221C
:1028700040212846FEF776FB002280212846FEF7FD
:1028800071FB09E040212846FEF76CFB0022802105
:102890002846FEF767FBA67007485C38C7650766E1
:1028A0004766BDE8F081002220212846FEF75AFB4A
:1028B0000122E7E70000002038020020000C014060
:1028C000FEE770B50446002100F06DF80A20FEF71F
:1028D00023FA0121204600F0A9F805460A20FEF758
:1028E0001BFA45F080020121204600F0E4F9642043
:1028F000FEF712FA2046216A00F04CF994F82A10EB
:10290000204600F09BF994F82B10204600F077F950
:1029100023220C21204600F0CEF9204600F0B8F921
:1029200094F82410204600F093F9FF221F2120463E
:1029300000F0C1F994F8250094F82610000100EB8E
:102940004100C2B21D21204600F0B5F9204600F03A
:10295000FBF8208D2021020A204600F0ACF994F803
:1029600028202121204600F0A6F94021204600F031
:102970005DF840F03F024021204600F09CF9012123
:10298000204600F010F80120E0610A20FEF7C4F9AB
:102990004221204600F04AF8122802D04FF4CA70B3
:1029A00070BDC82070BD70B50C460546012100F011
:1029B0003DF8024664B1012C0FD0032C13D0052C36
:1029C00017D0062C1BD0022C1FD0042C23D027E0BC
:1029D000002002F0F802E86122E0012002F0F80293
:1029E000521CE8611CE0032002F0F802D21CE861EE
:1029F00016E0052002F0F802521DE86110E0062002
:102A000002F0F802921DE8610AE0022002F0F802EA
:102A1000921CE86104E0042002F0F802121DE86153
:102A20002846BDE87040012100F045B90EB501F01F
:102A30007F018DF8081001210A46009101AB02A91F
:102A400000F003F89DF804000EBD2DE9F0470E4696
:102A50001546044681889846DDF8209000680022DB
:102A6000FEF780FA4FF4FA673B462A463146A069E2
:102A7000FEF73CFFA069FEF7FBFD0128FAD13B46BB
:102A80004A464146A069FEF787FEA069FEF7F0FDC1
:102A90000128FAD1A1882068BDE8F0470122FEF79D
:102AA00061BA2DE9F04100250E4607461446284636
:102AB000294601E03154401CA042FBDB012138468D
:102AC000FFF771FF12213846FFF7B0FF40061FD510
:102AD000FF221221384600F0EEF813213846FFF7A6
:102AE000A5FF054610213846FFF7A0FF02460D213D
:102AF000384600F0E0F8AC4200D22546002405E05C
:102B000000213846FFF792FF3055641CAC42F7DBDA
:102B100005213846FFF747FF2846BDE8F08110B58C
:102B20000446818980680022FEF71CFA0220FEF725
:102B3000F3F8A1890122A068FEF714FABDE810405D
:102B40006420FEF7E9B8000010B594B004465022A6
:102B50000F496846FDF738FB94F82410012088409F
:102B600001F073F894F825206B4603EBC203D3E918
:102B7000002300F0E3FE01F039F8102801DD012107
:102B800000E00021204600F025F814B010BD000040
:102B90006840000870B50546C8044411C4F30742F4
:102BA0000621284600F087F80520FEF7B5F8C4F3A3
:102BB00007220721284600F07EF80520FEF7ACF832
:102BC000E2B20821284600F076F8BDE87040052002
:102BD000FEF7A2B870B50C4605462621FFF726FF82
:102BE00014B140F0080201E000F0F7022621284667
:102BF00000F061F8BDE870400A20FEF78DB810B50E
:102C00002D2901D22D2105E0F02901D9F02106E07E
:102C1000782904D805222D3991FBF2F103E00A222C
:102C20001E31B1FBF2F1C9B22031CAB20B2100F062
:102C300042F8BDE810400A20FEF76EB810B50A460B
:102C4000092100F038F8BDE810400A20FEF764B80A
:102C500070B50C4606460C2901DD0C2402E0072C59
:102C600000DA07241E21FFF7E1FE05460A20FEF7E1
:102C700053F864F31F15EAB21E21304600F01BF82A
:102C80000A20FEF749F83046BDE87040FFF75CBF08
:102C900010B504461E21FFF7C9FE40F007021E21B1
:102CA000204600F008F8BDE810400A20FEF734B8CE
:102CB0000521FFF778BE0EB541F080018DF80810B0
:102CC00001218DF804200A46009101AB02A900F011
:102CD00001F80EBD2DE9F0470E46154604468188E1
:102CE0009846DDF8209000680022FEF73BF94FF48B
:102CF000FA673B462A463146A069FEF7F7FDA06910
:102D0000FEF7B6FC0128FAD13B464A464146A06987
:102D1000FEF7ECFDA069FEF7ABFC0128FAD1A18813
:102D20002068BDE8F0470122FEF71CB981610E4919
:102D3000012302C0102120F8041B0C4902C00380AB
:102D40004160022101810C21426101760721417617
:102D50008376FF2181777821C1770A218183002141
:102D6000016241627047000000080140000C014010
:102D70000023C0F8C83080F8CC30A0F8CE201A4626
:102D800008E000BF20F81210D0F8C830521C0B44E5
:102D9000C0F8C830B0F8CE309342F3DC704710B5BD
:102DA00090F8CC20D0F8C83030F812401B1BC0F887
:102DB000C83020F81210D0F8C8200A44C0F8C82043
:102DC00090F8CC10491CCBB280F8CC30B0F8CE10C3
:102DD0008B4202D3002380F8CC30B2FBF1F080B2FA
:102DE00010BD0000FEB50024174800940194154959
:102DF000029401608915816001250573047502261E
:102E000006614FF460214460C161FDF7ABFC08B17D
:102E100072B6FEE705200094CDE9015069460A48E4
:102E2000FDF71EFC08B172B6FEE707200095CDE95C
:102E3000016069460448FDF713FC002801D072B612
:102E4000FEE7FEBD002401405C0000202DE9F047B4
:102E500086B000253B480095019502950395816950
:102E600041F010018161816901F0100104918169D3
:102E700041F020018161816901F0200104918169A3
:102E800041F004018161816901F0040104918169CB
:102E900041F0080181618069DFF8AC8000F0080032
:102EA0004FF400540490002221464046FEF75AF8A1
:102EB000DFF898904FF41167002239464846FEF734
:102EC00051F8DFF88CA0002248F2E1315046FEF7BD
:102ED00049F80126CDE900460224CDE902546946AD
:102EE0004046FDF747FFCDE90254CDE9007669463B
:102EF0004846FDF73FFF48F20130CDE90006CDE935
:102F0000025469465046FDF735FF12486946CDE93F
:102F1000004050460294FDF72DFFE0200090CDE9DF
:102F20000164694650460394FDF724FF00221146D0
:102F30000720FEF789F80720FEF778F806B0BDE80D
:102F4000F08700000010024000100140000801401E
:102F5000000C0140000011100F4810B50D49016030
:102F60004FF48271416000218160C1604FF40072B2
:102F70000161C0E905120822C0E9072141628162AE
:102F80000A21C162FEF777FB002801D072B6FEE786
:102F900010BD0000003001408C00002010B586B04C
:102FA0000024174800940194029403940494134954
:102FB000059401604721C0E901143121C0E90314DF
:102FC0008021C0E90541FEF787FE08B172B6FEE731
:102FD0004FF48050009069460948FEF735FF08B16C
:102FE00072B6FEE7049404A905480594FEF740FE76
:102FF000002801D072B6FEE706B010BD002C0140DB
:10300000E400002010B58AB00024214804940594FF
:1030100006940794089409940094019402944FF044
:1030200080410394C0E900144FF6FF71C0E90241EA
:1030300004618461FEF750FE08B172B6FEE74FF4FA
:103040008050049004A91248FEF7FEFE08B172B643
:10305000FEE70F48FEF7F9FF08B172B6FEE70894E5
:1030600008A90B480994FEF703FE08B172B6FEE703
:103070000120CDE9004002940022694604480394EF
:10308000FEF751FF002801D072B6FEE70AB010BD6E
:103090002C01002010B586B000241748009401943C
:1030A0000294039404941349059401604721C0E9F4
:1030B00001144FF6FF71C0E903148461FEF70CFEA2
:1030C00008B172B6FEE74FF48050009069460A4896
:1030D000FEF7BAFE08B172B6FEE7049404A90648EA
:1030E0000594FEF7C5FD002801D072B6FEE706B0D4
:1030F00010BD00000004004074010020FEE7FEE760
:1031000010B5074C00224FF400712046FDF72AFF4E
:103110000022A1152046BDE81040FDF723BF0000A6
:10312000000C014010B5064C012251022046FDF76B
:1031300019FF0022A1152046BDE81040FDF712BF7F
:10314000000C014010B5074C00224FF400712046DE
:10315000FDF708FF20460122BDE810401102FDF7EF
:1031600001BF0000000C0140704710B440F8D01BB4
:10317000002382801446837103814381838103612C
:1031800043618361C37103772146052210BCCC38AB
:10319000FFF7EEBDF8B5044640684FF482739842DD
:1031A00017D1A0684FF48065B0F5004F01D0A84258
:1031B0000FD12068066826F04006066060689842D5
:1031C00007D1A068A84204D100920B460022012139
:1031D00003E000920B4600228021204600F022F8F6
:1031E000002804D0606D40F0200060650320F8BD29
:1031F000F8B515460E460B46009204460122022100
:1032000000F010F840B93346002280212046009596
:1032100000F008F8002804D0606D40F020006065E0
:103220000320F8BD2DE9F8431E4691468846044622
:10323000089DFDF79DFE401B351AFDF799FE0746D8
:1032400025480068C0F3CB30684338E0701C37D0A5
:10325000FDF78EFEC01BA84203D215B1009860B3E3
:103260002CE02068416821F0E00141606068B0F521
:10327000827F0BD1A068B0F5004F02D0B0F5806F0F
:1032800004D12068016821F040010160A06AB0F516
:10329000005F09D12068016821F4005101602068B5
:1032A000016841F400510160012084F851000020C0
:1032B00084F850000320BDE8F8830025401E0090EC
:1032C0002068816838EA010004D000214945BDD159
:1032D0000020F0E70121F9E7580000207047FDF7D2
:1032E0004DBE30B593B028216846FCF79FFF1421EE
:1032F0000AA8FCF79BFF002501200F95109511955A
:10330000010412958DE8230004904FF4E010CDE9FC
:103310000810022407946846FEF71AF808B172B63E
:10332000FEE70AA90F2081E831004FF48060CDE963
:103330000D0502210AA8FDF72FFF08B172B6FEE7BE
:103340004FF4004011900F940FA8FDF7AFFE002836
:1033500001D072B6FEE713B030BD70470148FEF7EA
:10336000A2BE0000E40000200148FEF79CBE000061
:1033700074010020F0B50268194B1A4C1A4D4FF039
:103380008047984205D0B84203D0A04201D0A8425D
:1033900003D122F070064A683243984205D0B84201
:1033A00003D0A04201D0A84203D122F44074CA68DD
:1033B00022434C6922F08002224302608A68C26282
:1033C0000A688262984201D1096901630121416161
:1033D0000169C90703D0016921F001010161F0BD54
:1033E000002C0140000400400008004010B5846833
:1033F00042EA032224F47F440A432243826010BD40
:10340000826822F070020A4342F00701816070472F
:1034100010B5036A046A24F001040462846924F08C
:10342000F00444EA021423F00A020A4384610262AF
:1034300010BD000070B5056A046A24F0010404623E
:1034400084690F4EB04208D0B0F1804F05D00D4EC8
:10345000B04202D00C4EB04203D124F00304144316
:1034600001E044F001041A0724F0F00444EA126277
:1034700025F00A0301F00A0119438261016270BD5F
:10348000002C0140000400400008004010B5036A11
:10349000046A24F010040462846923F0A00324F475
:1034A000704444EA023243EA01118261016210BDB4
:1034B00030B5046A056A25F010050562856925F4B2
:1034C000407545EA022222F470454FF6FF7202EA87
:1034D000033224F0A0032A43A02404EA0111194373
:1034E0008261016230BD10B5406A0021C185C1848E
:1034F000FEF7F0FE10BD01680C3151E8002F22F4F8
:10350000907241E80023002BF5D10168143151E895
:10351000002F22F0010241E80023002BF5D1016BBE
:10352000012909D101680C3151E8002F22F0100265
:1035300041E80023002BF5D1202180F84210002122
:103540000163704708B590F84210222901D002208B
:1035500008BD82684FF480539A4201D1016921B1BC
:10356000816A9A421BD04AB10AE00268816A5268B5
:10357000C2F308020A80816A891C08E0026972B1FC
:103580000268526802F07F020A70816A491C8162F7
:10359000C18D491E0904090CC18503D01BE00268D6
:1035A0005268F1E70168CA6822F02002CA60016827
:1035B000CA6822F48072CA6001684A6922F0010276
:1035C0004A61202180F8421000214163026B012AE8
:1035D00003D0FFF741F8002008BD016301680C31FA
:1035E00051E8002F22F0100241E80023002BF5D112
:1035F00001680A68D20602D50A6849680091818D7F
:10360000FEF767FEE7E7000070B504460068016951
:10361000E26821F44051114301612169A068084327
:10362000616908432168CA6841F20C639A43024306
:10363000CA6020684169A26921F440711143416167
:103640001E492068884202D1FDF74CFE01E0FDF7DB
:1036500039FE00EBC00101EB0012606864218000BC
:10366000B2FBF0F3B3FBF1F36FF018067343B2FB58
:10367000F0F5B2FBF0F605EB8305322303EB0515FD
:10368000B5FBF1F5B6FBF1F605F0F00505EB061517
:10369000B2FBF0F6B2FBF0F0B0FBF1F06FF0180205
:1036A000504306EB800003EB0010B0FBF1F0216803
:1036B00000F00F002844886070BD00000038014011
:1036C0000148FEF709BE0000BC010020FEE7090723
:1036D000090E002804DB00F1E02080F80014704798
:1036E00000F00F0000F1E02080F8141D704700008A
:1036F00008B5FDF74BFCFFF7F4FDFFF7A7FB854886
:10370000416941F0010141614069002200F001007E
:10371000009011460B20FDF797FC0B20FDF786FC6F
:10372000002211460E20FDF78FFC0E20FDF77EFCD7
:10373000FFF734FC79487849002501607849C0E9F1
:1037400001150C21C560C0E904518561C561FEF712
:10375000F9FE08B172B6FEE7FFF744FBFFF7FCFB8A
:10376000FFF798FCFFF74EFC01226E4F56033146DF
:103770003846FDF7F7FBFFF7D5FCDFF8AC910122E7
:1037800020214C464846FDF7EDFB01224021204612
:10379000FDF7E8FB012280212046FDF7E3FB6349AA
:1037A0004FF46478424601F5BC70FFF7BFFA5B48FE
:1037B0004830FFF7B4F959484830FFF782F85C4CBD
:1037C000E0811BE0012231463846FDF7CBFB57492B
:1037D000424601F5BC70FFF7A9FA50484830FFF7A0
:1037E0009EF94E484830FFF76CF8E08100223146E0
:1037F0003846FDF7B7FB0F20FDF78EFAE089C828A1
:10380000E0D146484830FFF753FA002231463846A7
:10381000FDF7A8FBFFF774FC4549444802224831F4
:103820003038FDF773F842493C4840F2BA724831EB
:103830008830FFF79AFC3E493E484A31FCF77AFE51
:10384000DFF8F4A04FF40068012241465046FDF72E
:1038500089FB0F20FDF760FA002241465046FDF734
:1038600081FB6420FDF758FA002220214846FDF72D
:1038700079FB012241465046FDF774FB0F20FDF70E
:103880004BFA002241465046FDF76CFB6420FDF7E1
:1038900043FA002240214846FDF764FB01224146DD
:1038A0005046FDF75FFB0F20FDF736FA0022414638
:1038B0005046FDF757FB6420FDF72EFA00228021C9
:1038C0004846FDF74FFB19485830FEF791FA134868
:1038D0004838FEF78DFA206A401C2062D4E90901BD
:1038E000884204D3314638466562FDF733FBFEF764
:1038F00029FFFEF7D9FEFEF7B1FEFCF74FFE0D489B
:10390000FCF79AFDFCF78CFEE0790128E3D1E57124
:10391000E1E700000010024000380140BC01002037
:1039200020A1070000100140000C01408C00002085
:103930000000002034030020000801402DE9C041B0
:1039400030B4DFF8A0C23CEA111418BF3CEA1314EB
:1039500000F0EC8081EA03051CEA111444EAD574F6
:1039600018BF1CEA131500F0C780A4EB05044FF044
:10397000004545EAC12145EAC32341EA505143EAE3
:10398000525304F17F74994204F500344FEAC02089
:103990004FEAC22208BF904200F09C804FEA1365B4
:1039A0000FF24016765D4FEA134506FB05F7C7F1A7
:1039B000807706FB07F74FEAD737A7FB0368764205
:1039C000C8F58038A7FB06CE38BFA8F1010807FB71
:1039D00008E64FF0000EA6FB028CE6FB03CEDCF1FE
:1039E000000CCEF1004E38BFAEF1010EA6FB0C5814
:1039F0004FF000074FF00005E6FB0E87A1FB08C65D
:103A0000A0FB07CE16EB0E0645F10005E1FB0765AE
:103A100015F1E04E7EBFA4F580345FEA46066D41A5
:103A200016F1800745F100054FEA17274FEA0666B1
:103A300047EA0567A6F1DE46B6F1805F4FEA152535
:103A40001FD9384624F0010C05EBC471BCF1FE6FA0
:103A500001EB0C1102D8F0BCBDE8008124425CBF30
:103A600001F5801E9EEAC47F02D4F0BCBDE800814F
:103A7000244238D4F0BCA1F1C041BDE8004100F0BF
:103A800049B94FEAD22242EA43524FEAD323A7FB75
:103A900002864FEAD02040EA415007FB03661EEA47
:103AA0000E0F4FEAD12105FB026658BFA6EB005668
:103AB000B6EB00564FEA520E4EEAC37E18EB0E0EDE
:103AC00056EB530EBDD518EB02085E417F1C55F135
:103AD0000005B6E74FF480154FF000074FF00006E1
:103AE0004FF00008ADE7F0BC4FF0000001F1C0411D
:103AF00001F00041BDE8008111EA0C1F0CEA13152A
:103B000000D00CE013EA0C1F00F025804FF00000FD
:103B1000F0BC81EA030101F00041BDE80081F0BC86
:103B2000BDE8004181EA030100F0F4B8F0BCBDE853
:103B3000004170B500F0A0F8097EFC3E00F007B827
:103B400081EA03014FF0000001F00041704781EA73
:103B5000030100F0DFB8F0BCBDE800414FF0000009
:103B600021497047FFFDFBF9F7F5F4F2F0EEEDEBBC
:103B7000E9E8E6E4E3E1E0DEDDDBDAD8D7D5D4D36B
:103B8000D1D0CFCDCCCBCAC8C7C6C5C4C2C1C0BFB7
:103B9000BEBDBCBBBAB9B8B7B6B5B4B3B2B1B0AFBD
:103BA000AEADACABAAA9A8A8A7A6A5A4A3A3A2A1A1
:103BB000A09F9F9E9D9C9C9B9A999998979796955C
:103BC00095949393929191908F8F8E8E8D8C8C8BF8
:103BD0008B8A898988888787868585848483838280
:103BE000828181800000FF070000F87F4FEA4103D7
:103BF0004FEA5353A3F58063D3F11E03C8BFD3F13B
:103C0000210C0CDD4FF0004242EAC12242EA505240
:103C100032FA03FC8CEAE17CACEBE1707047102BCC
:103C2000C4BF0020704703F5787CBCF1FF3F04D08F
:103C30006FF0004282EA2100704770B500F01CF876
:103C40004992248000207047F2E710F0004248BFFC
:103C50004042B0FA80F310FA03F10AD0C3F11D0319
:103C600003F580634FEA415002EB035202EBD1218E
:103C700070474FF0000070470EF1020E2EF0030E59
:103C80005EF8046B364205D4012A43EB030515F5B3
:103C9000001F12D8012841EB010C1CF5001F0CD8A5
:103CA0000ED14FEAD17C15F5001F0CEB4C0C0CF13A
:103CB000020C08BF4CEBD37C04E04FF0080C01E091
:103CC0004FEAD37C0CEB4C0526FA05F606F0070606
:103CD000B6F1040C06D20EEB860CBDE870404CF039
:103CE000010C6047DFE80CF0090B02024FF00041C5
:103CF0004FF00000A1F5002170BD194610460128C3
:103D000051EB010418BFD4F5001484BF002001F06A
:103D1000004170BD0808A0F500114FEA310170475D
:103D20004FF47F0C1CEAD0121EBF1CEAD11392EA9A
:103D30000C0F93EA0C0F00F0858090EA010F48BF4A
:103D400042F4807240F4000C41F400002CF07F41FA
:103D500020F07F4000B58142A2EB03020FF2081C65
:103D6000ACEB504EC0F100009EF800E04FEA4E0E62
:103D700000FB0EFC38BF49004FEA2C1C02F5FA028A
:103D80000CFB0EF34FEACE1E4FEA112C4FEAC12175
:103D90000EEB635E42EB22420EFB0CFC4FEA1C531F
:103DA00000FB03114FEA112C4FEA01310EFB0CFC12
:103DB0004FEADC4C00FB0C11C14228BF09184CEB48
:103DC00003335DF804EB10EB410143EBC250B2F555
:103DD0007C0F38BF704729D512F0F00F1CBF00F1DF
:103DE000C04000F000407047008182838485868750
:103DF00088898B8C8D8E8F919293959697999A9CAA
:103E00009D9FA0A2A3A5A7A8AAACAEB0B2B3B5B718
:103E1000B9BCBEC0C2C5C7C9CCCED1D4D7D9DCDFEE
:103E2000E2E6E9ECF0F3F7FAFE0000004FEA400C9E
:103E30000CF1807CBCF17E4F28BF7047B0F1C040D0
:103E400000F00BB990EA010F0CEAD11348BF42F41D
:103E50008072624538BF634507D213F47F0F16D0D6
:103E600080EA010000F00040704710B500F0AFF8A4
:103E7000097EFC3E00F005B880EA010000F0004039
:103E8000704780EA010000F0004000F0E6B812F44C
:103E90007F0F04BF0248704780EA010000F0DDB8E0
:103EA0000000C07FB0FA80F310FA03F2C3F19D0363
:103EB0000AD0D90501EB1220530638BF704700F134
:103EC000010008BF20F00100704700004FF47F0C94
:103ED0001CEAD0121EBF1CEAD11392EA0C0F93EA1F
:103EE0000C0F00F0478090EA010F48BF42F4807247
:103EF0004FF0004C4CEA00204CEA012102EB030297
:103F0000A0FB0113A2F50002002918BF43F0010332
:103F10005B0028BF4FEA330342EB22425FEA132CD7
:103F20004CEBC2502EBFBCEB436FB2F57C0F704719
:103F30004FEA036CBCF1004F08BF20F00100B2F55E
:103F40007C0F38BF70470BD582F0FF0212F5803F1F
:103F5000C8BF704700F1C040D8BF00F000407047B4
:103F600000F5000C5FEA4C0C48BF7047B0F1C04050
:103F700000F073B890EA010F0CEAD11348BF42F485
:103F80008072624538BF634504D280EA010000F0C8
:103F90000040704710B500F01AF800BF8900013EDC
:103FA00000F007B800F009B85FEA410C5FEA1C6C4A
:103FB00008D080EA010000F050B85FEA400C5FEAE8
:103FC0001C6CF6D14FF00040A0F5800070470EF158
:103FD000020E2EF0030E5EF8044B244204D44FEA86
:103FE0004102B2F17F4F11D84FEA4003B3F17F4F46
:103FF0000CD80ED14FEAD07CB2F17F4F0CEB4C0CB9
:104000000CF1020C08BF4CEBD17C04E04FF0080C23
:1040100001E04FEAD17C0CEB4C0324FA03F404F0EA
:104020000704B4F1040C06D20EEB840CBDE810407A
:104030004CF0010C6047DFE80CF0070802024FF07B
:104040000040A0F5800010BD0846420018BFD2F124
:10405000807288BF00F0004010BDFF2141EAD050BF
:10406000C0057047000000003333333333331F4043
:10407000CDCCCCCCCCCC24403333333333332F4072
:10408000CDCCCCCCCCCC34400000000000403F4034
:104090009A99999999D944400000000000404F40F6
:1040A0000000000000405F400000000000406F4042
:1040B0000000000000407F400102020304050607E3
:1040C00008090A0B0C0D0E0F101000000000000074
:1040D00000000102030406070809000000000102B5
:1040E0000304000004410008000000205C00000000
:1040F00028010008604100085C000020B40A0000AC
:104100004401000800FF0000000000000000000063
:104110000000FA00000000000000000000000000A5
:10412000000000000000000000000000204E000021
:10413000000000000000000000000000000000007F
:10414000000000000000000000000000000000006F
:1041500001000000100000000000000000127A00C2
:04000005080000ED02
:00000001FF
