:020000040800F2
:10000000E809002091010008633000081928000861
:100010006130000865070008513600080000000044
:10002000000000000000000000000000B1310008E6
:10003000AB0700080000000065300008B33100087D
:10004000AB010008AB010008AB010008AB010008E0
:10005000AB010008AB010008AB010008AD070008C8
:10006000AB010008AB010008AB01000869070008FC
:10007000AB010008AB01000875070008AB010008E0
:10008000AB010008AB010008AB010008AB010008A0
:10009000AB010008AB010008AB010008AB01000890
:1000A000AB01000831320008AB010008AB010008C9
:1000B000AB0100083D320008AB010008AB010008AD
:1000C000AB010008AB010008AB010008AB01000860
:1000D000AB01000845360008AB010008AB01000881
:1000E000AB010008AB010008AB01000800F002F80A
:1000F00000F03FF80AA090E8000C82448344AAF183
:100100000107DA4501D100F034F8AFF2090EBAE880
:100110000F0013F0010F18BFFB1A43F0010318473B
:10012000E43C0000043D0000103A24BF78C878C1C8
:10013000FAD8520724BF30C830C144BF04680C60ED
:10014000704700000023002400250026103A28BF35
:1001500078C1FBD8520728BF30C148BF0B60704739
:10016000752900F0F580002070471FB51FBD10B540
:1001700010BD00F01AFA1146FFF7F7FF03F07AFA04
:1001800000F038FA03B4FFF7F2FF03BC00F040FAC6
:100190000948804709480047FEE7FEE7FEE7FEE71B
:1001A000FEE7FEE7FEE7FEE7FEE7FEE70448054957
:1001B000054A064B704700002F320008ED0000088A
:1001C000E8030020E8090020E8050020E8050020F9
:1001D00053EA020C00F069802DE9F04B4FF0000665
:1001E000002B1FBFB3FA83F503FA05F424FA05F6D2
:1001F0005E4012BF1643B2FA82F502FA05F4C5F169
:1002000020051EBF22FA05FC44EA0C04203556EAFC
:10021000044C4FEA144418BF641C4FF000084FF020
:100220000009904271EB030C39D3002919BFB1FAD0
:1002300081F701FA07F6B0FA80F700FA07F6C7F17E
:1002400020071EBF20FA07FC46EA0C062037B6FB43
:10025000F4FCA7EB0507103F07F01F0BCBF12006BE
:100260000CFA0BFB2CFA06F644BFB3460026202FEF
:10027000A4BF5E464FF0000B5BEA060C08BF4FF0D0
:10028000010B19EB0B09ABFB027C48EB0608C01B0A
:1002900006FB02CC0BFB03CC71EB0C01C1E70B4658
:1002A000024641464846BDE8F08B13B54FF00000CA
:1002B0004FF00001AFF30080BDE81C407047000024
:1002C0000FB41CB5074B06AA7B44694600900598FD
:1002D00000F053F90020694600F062F91CBC5DF89B
:1002E00014FB0000D50200002DE9F0410E46044643
:1002F000002020622046E168884730B3252805D0D9
:10030000D4E901219047206A401CF2E7E1682046C9
:1003100000278847050018D0A5F14100192802D808
:1003200020354FF400673246294620462760FFF704
:1003300017FF40B1012804D0F61D26F00706083645
:10034000D8E7361DD6E72846DAE7206ABDE8F0810F
:100350002DE9F0410646002410687529314616A59E
:1003600010D0AFF30080002802DA404213A507E066
:1003700031688A0701D512A502E0490704D511A505
:10038000012401E0AFF3008000210A2206F12407D6
:1003900009E0B0FBF2FCB0FBF2F302FB1C003030D2
:1003A00078541846491C0028F3D123462A46304683
:1003B000BDE8F04100F083B8000000002D0000000F
:1003C0002B0000002000000010B5431C02E010F8D4
:1003D000011B71B18107FAD14FF0013202C88C1AAA
:1003E0008C4314EAC211F9D0C01A0A0603D0C01E09
:1003F00010BDC01A10BD0A0401D0801E10BD090234
:10040000FCD0401E10BD10B5203AC0F00B80B1E802
:100410001850203AA0E81850B1E81850A0E8185039
:10042000BFF4F5AF5FEA027C24BFB1E81850A0E842
:10043000185044BF18C918C0BDE810405FEA827C5C
:1004400024BF51F8043B40F8043B08BF7047D20773
:1004500028BF31F8023B48BF11F8012B28BF20F814
:10046000023B48BF00F8012B70474FF0000200B577
:10047000134694469646203922BFA0E80C50A0E8C7
:100480000C50B1F12001BFF4F7AF090728BFA0E875
:100490000C5048BF0CC05DF804EB890028BF40F841
:1004A000042B08BF704748BF20F8022B11F0804F83
:1004B00018BF00F8012B70477047704770472DE94F
:1004C000F0470D4699469246044600F1240801681B
:1004D000880604D5E06921F01001216000E00120C8
:1004E000A84201DD471B00E00027A1697A1902EB51
:1004F0000900081AA0612078C00602D42046AFF394
:100500000080002608E0D4E901211AF8060090478F
:10051000206A401C761C20624E45F4DB2078C00621
:100520000AD52046AFF3008006E0D4E9012130204F
:100530009047206A401C2062381EA7F10107F4DCB6
:1005400007E0D4E9012118F805009047206A401C13
:100550002062281EA5F10105F3DC2046AFF30080E0
:100560002078000602D50220BDE8F0870120FBE7D5
:1005700001694A1C02610878704700B58FB0CDE967
:1005800001310021059105497944CDE90310114657
:100590006846FFF7A9FE0FB000BD0000E5FFFFFFB2
:1005A0000A6802F8010B0A607047754600F02CF8E3
:1005B000AE4605006946534620F00700854618B050
:1005C00020B5FFF7F3FDBDE820404FF000064FF0E7
:1005D00000074FF000084FF0000B21F00701AC4678
:1005E000ACE8C009ACE8C009ACE8C009ACE8C00997
:1005F0008D46704710B50446AFF300802046BDE835
:100600001040FFF7BFBD000000487047880300207E
:1006100001491820ABBEFEE726000200704700002B
:1006200070B5044600688168C943C90717D181685D
:1006300021F00101816000F079FD05460AE000BF6C
:1006400000F074FD401B022804D920688068C04374
:10065000C00706D020688068C043C007F0D00020E3
:1006600070BDA06A40F01000A062E06A40F0010096
:10067000E062012070BD10B50146406A826A12F046
:10068000500F05D0006A026BBDE8104008461047C5
:10069000816A41F40071816201688968C1F3424155
:1006A00007290CD1017B51B9816A21F480718162E3
:1006B000816AC90403D4816A41F00101816200F0BA
:1006C0000BF910BD10B5406A816A41F040018162AA
:1006D000C16A41F00401C16200F000F910BD10B51B
:1006E000406A00F0FAF810BDF8B5002604460096FE
:1006F00000688168C943C9072DD0816841F00101B4
:100700008160164816490068B0FBF1F000E0401E19
:1007100000900028FBD100F009FD054616E000BF5F
:1007200000F004FD401B022810D920688068C043F7
:10073000C0070BD0A06A40F01000A062E06A40F051
:100740000100E06284F824600120F8BD2068806820
:10075000C043C007E4D10020F8BD00006C000020B9
:1007600040420F00FEE70000014800F0A3BA00007D
:1007700000030020014800F09DBA0000440300205F
:1007800030B590F840500124AC40C56B6C600468F3
:1007900063604368102B036803D099600068C260EF
:1007A00030BD9A600068C16030BD7047022000F023
:1007B000B3BB72B6FEE7000010B50649064CC86A26
:1007C0002268CB6A9842FAD1010C0004801841F1EA
:1007D000000110BD0000002024040040F8B50024F2
:1007E000009490F824202546012A12D0012280F896
:1007F00024204A681F23072A0DD20668776B521EF1
:1008000002EB820293409F430B6893401F43776340
:1008100019E00220F8BD06680D2A0AD2376BD21FF4
:1008200002EB820293409F430B6893401F43376360
:1008300009E0F76A0D3A02EB820293409F430B688E
:1008400093401F43F7620A68072306680A2A0AD3FF
:10085000F7680A3A02EB420293409F438B68934049
:100860001F43F76008E0376902EB420293409F4361
:100870008B6893401F4337610A68102A01D0112A00
:1008800020D1124B02689A4217D193681B0219D4E7
:10089000936843F4000393600968102912D10C494E
:1008A0000C4A0968B1FBF2F101EB8101490000E05B
:1008B000491E00910029FBD104E0816A41F020012A
:1008C0008162012480F824502046F8BD00240140B4
:1008D0006C00002040420F007047704770470000D6
:1008E0002DE9F0414FF0000704003D467ED0A06A9C
:1008F000002628B9E66284F82460204600F07EF8DD
:100900002046FFF78DFEA16AC90600D420B1A06A77
:1009100040F01000A06269E0A16A21F4885141F022
:100920000201A1626268E169237B0A4347EA43014D
:100930000A43A1684FF48077B94209D0012907D052
:100940005FF0000194F814C0BCF1010F02D00AE07E
:100950003946F7E7F3B1A36A43F02003A362E36AE1
:1009600043F00103E3622368D3F804C02CF4694C1C
:100970004CEA010CC3F804C021688B68DFF870C032
:1009800003EA0C0313438B60A168B9420BD0012921
:1009900009D00CE0DFF85CC0A3690CEB43330B43D8
:1009A00043F40061DFE7218A0D05A5F58015216874
:1009B000CB6A23F470032B43CB62216889680E4B0A
:1009C0001940914208D1E662A16A21F0020141F08A
:1009D0000101A162BDE8F081A06A20F0020040F0B0
:1009E0001000A062E06A40F00100E0620120F1E73F
:1009F000FDF7E1FF00E0FFFFFE0E1FFF70B586B0C0
:100A0000002500950195029503950646284C02683D
:100A100028490320284BA2422ED18A6942F4007251
:100A20008A618A6902F4007204928A6942F00402BF
:100A30008A61896901F0040104910121CDE9001066
:100A40006946184600F074FA1D4C1C48C4E90005BC
:100A50008020C4E9025040002061800060612020B5
:100A6000C4E90605204600F0CFF908B1FFF7A1FE62
:100A70003462666206B070BD124CA242FAD18A6935
:100A800042F480628A618A6902F4806204928A690F
:100A900042F004028A61896901F004010491022193
:100AA000CDE900106946184600F042FAE2E700007E
:100AB00000240140001002400008014008000240EC
:100AC00000030020002801402DE9F0478946044634
:100AD0003B4900683B4F0E1D9046884201D0B8420A
:100AE00007D1306810F4702F03D001252846BDE8E7
:100AF000F08794F8240001280CD0012084F8240009
:100B00002046FFF7F1FD05004FF0000004D084F807
:100B10002400EBE70220EAE7A16A40F60162914374
:100B200041F48071A1622168B94218D1326812F48F
:100B3000702F14D0A16A41F48011A1623168490577
:100B400005D5A16A21F4005141F48051A162A16A46
:100B5000C9040AD5E16A21F00601E16206E0A26A51
:100B600022F48012A2624968E9E7E06284F8240076
:100B7000216A15488862216A1448C862216A1448AB
:100B8000086321686FF0020008602068816841F402
:100B900080718160216843464A464C31206A00F0EA
:100BA00061F920688168C1F342410729816803D057
:100BB00041F48011816099E741F4A001FAE7000057
:100BC000002401400028014077060008DF060008E5
:100BD000C506000810B590F821100022022905D0A2
:100BE0000421816380F82020012010BD01680B687A
:100BF00023F00E030B6001680B6823F001030B6008
:100C000090F84030C46B012101FA03F3636080F86F
:100C1000211080F82020104610BD000010B590F87B
:100C200021100024022903D00421816301243DE026
:100C300001680A6822F00E020A6001680A6822F060
:100C400001020A601A4A0168914201D1012121E0A2
:100C5000174A1432914201D110211BE0144A283264
:100C6000914201D1891515E0114A3C32914201D1DE
:100C700089140FE00E4A5032914202D14FF4803174
:100C800008E00B4A6432914202D14FF4801101E036
:100C90004FF08071064A083A5160012180F8211016
:100CA000002180F82010416B01B18847204610BD1B
:100CB000080002402DE9F05FC16B0C6801680B6809
:100CC000D0F840C0042202FA0CF2494DDFF824A10A
:100CD000494E4A4FDFF828B1DFF828E122422CD0F4
:100CE0005A072AD50A68920603D40A6822F0040239
:100CF0000A600168A94201D1042219E0514501D1DD
:100D0000402215E0B14202D14FF4806210E0B942B6
:100D100002D14FF480420BE0594502D14FF48022BA
:100D200006E0714502D14FF4800201E04FF080628D
:100D30002F4908394A60C16A3BE04FF0020808FABF
:100D40000CF818EA040F4FF000094FF0010235D0FB
:100D50005FEA837832D50B689B0605D40B6823F0D5
:100D60000A030B6080F821200168A94201D1022208
:100D700019E0514501D1202215E0B14202D14FF4D2
:100D8000007210E0B94202D14FF400520BE0594515
:100D900002D14FF4003206E0714502D14FF4001247
:100DA00001E04FF00072124908394A6080F8209043
:100DB000816A00291AD0BDE8F05F0847082505FAC6
:100DC0000CF5254212D01B0710D50B6823F00E033B
:100DD0000B6090F84010C36B02FA01F15960826316
:100DE00080F8212080F82090016BE2E7BDE8F09FB9
:100DF000080002401C000240300002404400024053
:100E0000580002406C00024030B528B308C81349AE
:100E100014221944B1FBF2F18900C16310498163C6
:100E2000022141771A6843F6F0718A43D0E9001431
:100E30002143D0E902452C432143046921434469FD
:100E40002143846921431143196000214163012238
:100E500042770177084630BD012030BDF8FFFDBF65
:100E60000000024070B5044690F8200000250128DB
:100E70000CD0012084F8200094F821600020012E7D
:100E800006D084F820000225284670BD022070BDDF
:100E9000022684F82160A0632068066826F0010617
:100EA00006602046FFF76CFCE06A002820680168B5
:100EB00002D041F00E0106E021F00401016020683B
:100EC000016841F00A0101602068016841F00101F8
:100ED0000160D9E770B5044600F028F90546601CAA
:100EE00002D004480078044400F020F9401BA042DE
:100EF000FAD370BD600000200549898A814205D17E
:100F00000448C188491CC18001214170704700001C
:100F10004802002000000020044910B50A6802427F
:100F200002D00860FFF7E8FF10BD00001404014084
:100F30002DE9F84FDFF8B8910024A9F1040B2346FE
:100F40000F2709F1040AABF1040EC9E00125A54001
:100F50002A40AA427DD1674ED1F804C0ACEB060806
:100F6000B44532D014DCBCF1030F3AD009DCBCF13B
:100F7000000F2AD0BCF1010F1CD0BCF1020F31D1FF
:100F80001DE0BCF1110F17D0BCF1120F2AD119E0EE
:100F9000B8F5881F19D006DCB8F5803F15D0B8F534
:100FA000801F1FD111E0B8F5001F0ED0B8F5041F47
:100FB00018D10AE0CB6815E0CB681B1D12E0CB68A6
:100FC00008330FE0CB680C330CE08B682BB1012B9E
:100FD0004FF0080303D0456104E0042302E00561FB
:100FE00000E00023FF2A01D8064601E000F10406D4
:100FF0004FEA840501D9A5F12005D6F8008007FA4B
:1010000005FC28EA0C0803FA05F548EA0508C6F8C5
:1010100000804D68ED0062D5374DAE6946F001069F
:10102000AE61AD6924F0030605F001050095334D6E
:1010300006EB050CDCF80850A607360F07FA06F891
:1010400025EA0805DFF8B880404503D14FF00008D5
:1010500017E044E0DFF8AC80404502D14FF00108D2
:101060000FE0DFF8A480404502D14FF0020808E00D
:10107000DFF89880404502D14FF0030801E04FF0BF
:10108000040808FA06F848EA0508CCF808804D6814
:10109000D9F80060ED024D4601D5164300E09643B5
:1010A0002E604D68DAF80060AD02554601D5164352
:1010B00000E096432E604D68DBF80060AD035D46AE
:1010C00001D5164300E096432E604D68DEF80060BF
:1010D000ED03754601D5164300E096432E60641C6F
:1010E0000D682A46E5407FF431AFBDE8F88F000077
:1010F00008040140000011100010024000000140EF
:1011000000080140000C01400010014000140140A3
:10111000C26821EA02030A4043EA024101617047C2
:101120000AB1016170470904FBE7000001488068CB
:101130007047000060000020024881680278114476
:101140008160704760000020074810B5016841F0D9
:1011500010010160032000F075F80F2000F006F880
:1011600000F024F8002010BD0020024070B50D4DA5
:1011700004464FF47A712878B1FBF0F00A49096807
:10118000B1FBF0F000F03BFE48B9102C07D2002272
:101190002146501E00F036F800206C6070BD012022
:1011A00070BD0000600000206C0000200C4808B5F5
:1011B000816941F001018161816901F001010091C2
:1011C000C16941F08051C161C06900F08050009058
:1011D0000448416821F0E06141F00071416008BDC0
:1011E0000010024000000140002809DB00F01F024F
:1011F000012191404009800000F1E020C0F8001179
:1012000070470000F0B40E4B1B680C46C3F302237A
:10121000C3F10705042D00D90425191D072901D2A2
:10122000002300E0DB1E012606FA05F1491E2140DD
:1012300099409E40761E16403143F0BC02F009BA38
:101240000CED00E0064900F0070208684FF6FF03C6
:10125000184040EA0220034A10430860704700002B
:101260000CED00E00000FA052DE9F8430546007892
:10127000354CC00754D0E0690026C00008D4E069AE
:1012800040F08050E061E069012600F0805000905D
:101290002E480168C90512D40168804641F4807166
:1012A0000160FFF743FF074605E000BFFFF73EFF81
:1012B000C01B642823D8D8F80000C005F6D5206AE2
:1012C00010F4407021D0A98801F4407181421CD0F3
:1012D000206A1F49012220F440700A6000220A603F
:1012E0002062C00711D0FFF721FF074641F288387E
:1012F00008E000BFFFF71AFFC11B414502D90320D8
:10130000BDE8F883206A8007F4D5206A696820F474
:101310004070084320621EB1E06920F08050E06117
:101320002878800705D56068A96820F44040084304
:1013300060602878C00605D56068E96820F4800000
:10134000084360600020DBE70010024000700040AE
:10135000400442422DE9F0470F46050061D0434E5C
:10136000306800F00700B84209D2306820F007006A
:1013700038433060306800F00700B84251D1286827
:101380003B4C810712D5400703D5606840F4E0600C
:1013900060602878000703D5606840F460506060A2
:1013A0006068A96820F0F000084360602878C007F2
:1013B00028D06868012810D02168022810D0890739
:1013C00000292EDA616821F0030101436160FFF713
:1013D000ADFE804641F288390DE021688903EFE7D0
:1013E0008901EDE7FFF7A2FEA0EB0801494502D90C
:1013F0000320BDE8F0876068696800F00C00B0EB7E
:10140000810FEFD1306800F00700B8420BD9306887
:1014100020F0070038433060306800F00700B84221
:1014200001D00120E5E72878400705D56068E96824
:1014300020F4E060084360602878000706D5606803
:10144000296920F4605040EAC100606000F038F87B
:101450006168084AC1F30311515CC840064908603D
:1014600006480068FFF782FE0020C2E70020024025
:1014700000100240EA3D00086C00002064000020DB
:101480000448054900684968044AC1F30221515CD7
:10149000C84070476C00002000100240FA3D000870
:1014A0000448054900684968044AC1F3C221515CF7
:1014B000C84070476C00002000100240FA3D000850
:1014C0000E4A51680E4801F00C03042B11D0082B72
:1014D0000FD10C48C1F38343C903C05C0AD55168DE
:1014E000084AC1F34041921E515C054A5043B0FB8B
:1014F000F1F0704704494843704700000010024073
:1015000000127A00DA3D000800093D002DE9F84F8D
:10151000040070D02078C04DC00749D06868C0F37F
:101520008100012807D06868C0F38100022809D132
:101530006868C00306D52868800339D5606800282C
:10154000E7D035E06068B0F5803F0BD010B1B0F562
:10155000A02F11D0286820F480302860286820F45B
:10156000802002E0286840F480302860606890B1F4
:10157000FFF7DCFD06460AE0286840F4802028607A
:10158000F0E700BFFFF7D2FD801B642873D82868FE
:101590008003F7D50CE0FFF7C9FD064605E000BF64
:1015A000FFF7C4FD801B6428F0D828688003F7D4B7
:1015B00020789A4E80074FF001094FF0000839D586
:1015C000686810F00C0F07D06868C0F3810002282B
:1015D00009D16868C00306D42868800714D520693B
:1015E000012808D110E02069B0B1C6F80090FFF7DB
:1015F0009DFD074605E00AE1FFF798FDC01B0228A4
:10160000C4D828688007F7D52868616920F0F800F9
:1016100040EAC10028600DE0C6F80080FFF786FDB3
:10162000074604E0FFF782FDC01B022823D8286884
:101630008007F7D4207800072CD57948A169D9B163
:10164000C0F80090FFF772FD074604E0FFF76EFD5B
:10165000C01B02280FD8686A8007F7D571484FF47D
:10166000FA510068B0FBF1F0009000BF0098411EF5
:101670000091FAD20EE080E0C0F80080FFF756FD3E
:10168000074604E0FFF752FDC01B022875D8686AC0
:101690008007F7D42078400760D5E8690027C000AC
:1016A00008D4E86940F08050E861E869012700F05B
:1016B000805000905C480168C90513D401688346D6
:1016C00041F480710160FFF731FD824606E000BF02
:1016D000FFF72CFDA0EB0A0064284ED8DBF80000D1
:1016E000C005F5D5E06801280AD008B1052813D057
:1016F000286A20F001002862286A20F0040002E035
:10170000286A40F001002862E06841F2883B98B105
:10171000FFF70CFD82460BE0286A40F004002862C7
:10172000EEE700BFFFF702FDA0EB0A0159455AD8CA
:10173000286A8007F6D50CE0FFF7F8FC824605E042
:10174000FFF7F4FCA0EB0A0159454CD8286A800742
:10175000F6D41FB1E86920F08050E861E06988B3F1
:101760006968C1F38101022944D00228C6F860806B
:1017700004D0FFF7DBFC044638E034E0FFF7D6FC8A
:10178000074604E0FFF7D2FCC01B02282BD82868CC
:101790008001F7D4206AB0F5803F05D16868A16860
:1017A00020F4003008436860D4E908010843696800
:1017B00021F4741108436860C6F86090FFF7B6FC26
:1017C000044606E025E000BFFFF7B0FC001B02283E
:1017D00009D828688001F7D51BE000BFFFF7A6FCF9
:1017E000001B022802D90320BDE8F88F2868800179
:1017F000F4D40EE00128F7D06868226A00F4803142
:10180000914204D1616A00F47010884201D0012035
:10181000EAE70020E8E70000001002400000424232
:10182000800442426C0000200070004090F851009B
:10183000704770B5040009D0606A002540B1256189
:101840006561A56294F8510040B10CE0012070BDC3
:101850006068B0F5827FF4D0E561F2E784F850501B
:10186000204600F03FF8022084F85100206801680B
:1018700021F040010160A088218900F4827001F408
:1018800004410843A18901F400610843217C01F06F
:1018900002010843217D01F001010843218B01F47D
:1018A00000710843217F01F03801084394F82010AB
:1018B00001F080010843218D01F4005108432168A3
:1018C0000860A069042101EA10402168486020688E
:1018D000C16921F40061C1616565012084F851008E
:1018E000002070BD30B585B00024009401940294AE
:1018F000039400681449884223D11448816941F453
:1019000080518161816901F480510491816941F0C4
:101910000401816180690E4D00F004000490A02054
:101920000090022001900320039069462846FFF7AB
:10193000FFFA4020CDE90004694628460294FFF7EB
:10194000F7FA05B030BD0000003001400010024041
:10195000000801402DE9F84F044690F851001D465B
:1019600016460F46012838D160684FF00408B0F5DC
:10197000827F01D1A06830B3FFF7D8FB8246002FE9
:1019800075D0002E73D094F85000012825D04FF068
:10199000010984F8509084F851804FF00008C4F891
:1019A0005480A763A687E687C4F83080A4F8348003
:1019B000A4F83680C4F84080C4F84480A068B0F52C
:1019C000004F0CD015E084F85180009313460A466E
:1019D000204600F01CF9BDE8F88F0220FBE72068E4
:1019E000016821F0400101602068016821F4804114
:1019F000016020680168490603D4016841F0400194
:101A00000160E068C0B134E020688168C90709D08E
:101A1000007BA16B0870A06B401CA063E08F401E90
:101A2000E08709E0FFF782FBA0EB0A00A84202D39F
:101A3000681C01D032E085B3E08F0028E4D11BE0C0
:101A400020688168C90709D0C068A16B0880A06BB5
:101A5000801CA063E08F401EE0870AE0FFF766FB72
:101A6000A0EB0A00A84203D3681C02D016E012E0E3
:101A70009DB1E08F0028E3D152462946204601F06F
:101A8000F2FA08B12020606584F8519084F8508003
:101A9000606D00289FD001209DE7FFE784F85190FA
:101AA00084F85080032096E72DE9F84F98461646B3
:101AB0008A460446FFF73AFB814694F85100012814
:101AC0001ED1BAF1000F73D0002E71D094F85000DF
:101AD000012815D0012784F85070032084F85100A4
:101AE00000256565C4F830A0A686E686A563A587AF
:101AF000E58765642564A068B0F5004F03D00CE06D
:101B00000220BDE8F88F2068016821F040010160E3
:101B10002068016841F4804101602068016849063D
:101B200003D4016841F040010160E068B0F5006F46
:101B3000606803D048B3012E27D047E008B1012EDA
:101B40001FD1206B21680088C86006E0206881688A
:101B5000890709D5216B0988C160206B801C20632F
:101B6000E08E401EE0860CE0FFF7E0FAA0EB0901F2
:101B7000414503D3B8F1FF3F03D035E0B8F1000F82
:101B800032D0E08E0028E1D123E0206B216800787C
:101B9000087306E02068816889070AD5216B0978F7
:101BA0000173206B401C2063E08E401EE0860DE038
:101BB0002BE0FFF7BBFAA0EB0901414503D3B8F1D5
:101BC000FF3F03D010E0B8F1000F0DD0E08E0028E9
:101BD000E0D14A464146204601F073FA08B1202080
:101BE0006065A06830B109E084F8517084F8505005
:101BF000032086E72068C1688068009084F85170EF
:101C000004F8505F60680028F3D0012079E72DE9DF
:101C1000FF4F81B01D46934604464FF001090E9ECA
:101C2000FFF784FA074694F851006168012806D04E
:101C3000B1F5827F3CD1A168C9BB042838D1029894
:101C4000002871D0BBF1000FFBD0002DF9D094F823
:101C5000500001282CD04FF0010A84F850A094F8CD
:101C60005100042802D0052084F851004FF00008EC
:101C7000C4F85480C4F838B0E587A5870299216379
:101C8000E586A586C4F84080C4F8448020680168D1
:101C9000490603D4016841F040010160E068B0F5F5
:101CA000006F606808D0F0B3012D49D081E0FFE7F4
:101CB000022005B0BDE8F08F08B1012D39D1206BAD
:101CC00021680088C860206B801C2063E08E401E65
:101CD000E0862EE02068816889070FD5E18E69B122
:101CE000B9F1010F0AD1216B0988C160206B801CFA
:101CF0002063E08E401EE0864FF000092068816876
:101D0000C9070CD0E18F51B1C068A16B0880A06BEE
:101D1000801CA063E08F401EE0874FF00109FFF7B1
:101D200005FAC01B01E00BE067E0B04201D3701C74
:101D300050D1E08E0028CDD1E08F0028CAD13EE0FE
:101D4000206B216800780873206B401C2063E08EB4
:101D5000401EE0862DE02068816889070FD5E18E5E
:101D600069B1B9F1010F0AD1216B09780173206BB8
:101D7000401C2063E08E401EE0864FF00009206882
:101D80008168C9070CD0E18F51B1C068A16B0870A0
:101D9000A06B401CA063E08F401EE0874FF001095C
:101DA000FFF7C4F9C01BB04202D3701C01D011E090
:101DB00086B1E08E0028CED1E08F0028CBD13A4604
:101DC0003146204601F07DF950B12020606584F84D
:101DD000508012E084F851A084F85080032068E716
:101DE000A06818B92068C1688068009084F851A084
:101DF00084F85080606D0028F1D0012059E710B5BB
:101E0000401EB0F1807F01D3012010BD4FF0E024CF
:101E100060610F21601701F01CFC0020A061072009
:101E20002061002010BD70477047000070B590F829
:101E30003C20012A26D0012480F83C40022280F870
:101E40003D2003685A689D6822F070060A68324394
:101E50005A600D4B02689A4208D0B2F1804F05D00B
:101E60000A4B9A4202D00A4B9A4204D1496825F0A3
:101E700080031943916080F83D40002180F83C10B8
:101E8000084670BD022070BD002C014000040040D7
:101E90000008004010B5040003D094F83D0010B1D4
:101EA00007E0012010BD002084F83C00204600F02F
:101EB0001FF8022084F83D00211D206801F0C4F9BC
:101EC000012084F8460084F83E0084F83F0084F83E
:101ED000400084F8410084F8420084F8430084F80C
:101EE000440084F8450084F83D00002010BD000047
:101EF00000B585B000210091019102910391264A1D
:101F00000168264891420ED1816941F400618161E6
:101F10008069002200F40060049011461920FFF748
:101F200071F9192013E0B1F1804F14D01C4A91428D
:101F30000FD1C16941F00201C161C069002200F006
:101F40000200049001211D20FFF75CF91D20FFF71E
:101F50004BF905B000BDC16941F00101C161C16922
:101F600001F001010491816941F0040181618069FE
:101F7000694600F0040004904FF4004000900948C6
:101F8000FEF7D6FF0848416821F4407141F0E06156
:101F900041F480714160DCE7002C014000100240F8
:101FA00000040040000801400000014090F83D108E
:101FB000012901D001207047022180F83D100168FD
:101FC000CA6842F00102CA6000680B49884208D022
:101FD000B0F1804F05D00949884202D008498842B3
:101FE00004D1816801F00701062903D0016841F09E
:101FF0000101016000207047002C014000040040F6
:102000000008004070B5044690F83C000025012807
:1020100017D0012684F83C60022084F83D00206837
:10202000826822F0770222F47F428260086850289A
:1020300038D00DDC20284FD005DC90B3102811D10A
:102040004AE0022070BD302846D040280AD13BE04B
:1020500060282FD070280DD0B0F5805F03D0B0F588
:10206000005F12D0012584F83D60002084F83C0018
:10207000284670BDCB68D1E90121206801F020F924
:102080002068816841F0770109E0CB68D1E901213E
:10209000206801F015F92068816841F48041816071
:1020A000E1E719E0CA684968206801F01BF950218E
:1020B000206806E0CA684968206801F051F960218B
:1020C000206801F007F9CEE7CA684968206801F086
:1020D00009F940212068F4E7226801461046F0E73C
:1020E00070472DE9F041054690F83C0000260C466B
:1020F000012810D0012085F83C0072B1042A1CD0C0
:10210000082A2CD00C2A50D00126002085F83C004B
:102110003046BDE8F0810220FBE7D4E90012E36815
:10212000286801F0F1F82868816921F00C018161CB
:1021300028688169A26811430FE0D4E90012E368BE
:10214000286801F01FF92868816921F440618161E4
:1021500028688169A26841EA02218161D5E728687F
:10216000D4E9002C277B036A016A21F480710162A3
:10217000C16923F4007321F0030141EA0C0121F04D
:10218000F00C39074FF400774CEA116107EA02229C
:102190001A43C16102622868C16921F00C01C16162
:1021A0002868C169A26811432BE02868D4E900219E
:1021B000E768036AD0F820C02CF4805CC0F820C027
:1021C000D0F81CC023F400532CF4407C4CEA0121CD
:1021D00021F4704C4FF6FF7101EA07314FF40057BC
:1021E00041EA0C0107EA02321A43C161026228681F
:1021F000C16921F44061C1612868C169A26841EAEE
:102200000221C16181E710B5040003D094F83D00BC
:1022100010B107E0012010BD002084F83C002046EA
:1022200000F01EF8022084F83D00211D206801F016
:102230000BF8012084F8460084F83E0084F83F0043
:1022400084F8400084F8410084F8420084F8430098
:1022500084F8440084F8450084F83D00002010BD57
:1022600070472DE9F04104460068C66805694FF0E3
:102270000007A90713D5B10711D5F91E0161012087
:102280002077206880698007204602D0FFF728FF6A
:1022900004E000F07EF8204600F07CF8277768071D
:1022A00016D5700714D521686FF00400086102206C
:1022B00020772068806910F4407F204602D0FFF725
:1022C0000FFF04E000F065F8204600F063F8277780
:1022D000280715D5300713D521686FF0080008616D
:1022E000042020772068C0698007204602D0FFF7CD
:1022F000F7FE04E000F04DF8204600F04BF8277799
:10230000E80616D5F00614D521686FF010000861B4
:10231000082020772068C06910F4407F204602D052
:10232000FFF7DEFE04E000F034F8204600F032F85B
:102330002777E80708D0F00706D021686FF0010082
:102340000861204600F028F8280608D5300606D592
:1023500021686FF0800008612046FFF764FD680681
:1023600008D5700606D521686FF040000861204648
:1023700000F04EF8A8060AD5B00608D521686FF01F
:10238000200008612046BDE8F041FFF74DBDBDE8E3
:10239000F08170477047000030B505460068184965
:1023A000184C884224D1206A401C2062E078401CEE
:1023B000E070E07802281BD30020E07061891248A9
:1023C00000F08FFCA081E08180B1228A72B140F2DE
:1023D000B3718A420AD8884208D9FEF7EDF9C4E9F8
:1023E0001201226C821AA262C4E91001E0892082E3
:1023F00006492868884202D1E06A401CE06230BD8C
:10240000002C014000000020EC02002000040040ED
:102410007047704770470000F8B5016804460868C7
:10242000CA684B6910F00F0F4FF0000559D003F048
:10243000010602F49077374365D0C10705D0D10576
:1024400003D5616C41F001016164410705D5D907ED
:1024500003D0616C41F002016164810705D5D907A1
:1024600003D0616C41F004016164010707D502F0FB
:102470002001314303D0616C41F008016164616C5B
:1024800000293AD0800604D5900602D5204601F0F6
:102490001CF820684069616CC0F38010090700D403
:1024A00060B3204600F0DCFF20684069400621D57B
:1024B0002068143050E8001F21F0400140E800126D
:1024C000002AF5D1E06BA8B16D494163E06BFEF7DE
:1024D000A5FB002811D0E06B416B01B0BDE8F040D6
:1024E000084783060FD593060DD52046BDE8F84072
:1024F00000F0EBBF2046FFF78DFFF8BD2046FFF749
:1025000089FF6564F8BD266B2023012E7CD1C606A9
:102510007AD5D60678D508684868009048694FF0A3
:102520000206400640D5E16B086840680004000CD4
:10253000E8D0A28D8242E5D9E085886920282DD097
:1025400020680C3050E8001F21F4807140E8001230
:10255000002AF5D12068143050E8001F21F0010155
:1025600040E80012002AF5D12068143050E8001F1E
:1025700021F0400140E80012002AF5D184F84230F1
:10258000256320680C3050E8001F21F0100140E85E
:102590000012002AF5D1E06BFEF71CFB6663A08DEC
:1025A000E18D401A81B22AE0A08DE18D401A81B2FE
:1025B000E08D0028A6D00029A4D022680C3252E871
:1025C000000F20F4907042E80007002FF5D120683A
:1025D000143050E8002F22F0010240E80027002FBD
:1025E000F5D184F84230256320680C3050E8002F84
:1025F00022F0100240E80023002BF5D1666320464C
:10260000FFF707FFF8BDFFE705062BD5150629D50F
:1026100094F841002128F5D1A068B0F5805F01D180
:102620002069B0B1206A411C2162216800784860AD
:10263000E08C401E0004000CE084E3D12068C168F7
:1026400021F08001C1602068C16841F04001C16093
:10265000D8E7206A0088C0F308004860206A801C20
:102660002062E5E74006CDD55006CBD5CA682046A6
:1026700022F04002CA6084F8413000F0CBF8C1E794
:10268000BB33000870B5040004D094F84100002565
:1026900010B106E0012070BD84F84050204600F0E3
:1026A00023F8242084F841002068C16821F40051F7
:1026B000C160204600F06AFF2068016921F4904162
:1026C00001612068416921F02A0141612068C168E7
:1026D00041F40051C1606564202084F8410084F811
:1026E00042006563002070BD70B586B000250646C7
:1026F00000950195029503950068224988423FD1D3
:102700002149886940F480408861886900F48040EC
:102710000490886940F00400886188691B4C00F0CF
:1027200004000490481500900220019003200390BB
:1027300069462046FEF7FCFB2015CDE900056946F9
:1027400020460295FEF7F4FB124C11482060102041
:10275000C4E901058020C4E903056561A56120463F
:10276000E561FEF751FB08B1FEF723F8B4630022E0
:10277000114625206662FEF745FD2520FEF734FD53
:1027800006B070BD00380140001002400008014052
:1027900044000240440300207047000070B5044626
:1027A00090F84100202801D0022070BD49B342B307
:1027B0002162A284E28400206064212384F84130F5
:1027C000A56B114BAB62A56B104BEB62A56B104B6D
:1027D0002B63A36B5863256813462A1DA06BFEF775
:1027E00041FB21686FF0400008602068143050E819
:1027F000001F41F0800140E80012002AF5D10020BE
:1028000070BD012070BD0000153400085734000869
:10281000CB33000870477047FEE770B504460021CF
:1028200000F06DF80A20FEF755FB0121204600F06C
:10283000A9F805460A20FEF74DFB45F0800201216C
:10284000204600F0E4F96420FEF744FB2046216AAC
:1028500000F04CF994F82A10204600F09BF994F807
:102860002B10204600F077F923220C21204600F09F
:10287000CEF9204600F0B8F994F82410204600F074
:1028800093F9FF221F21204600F0C1F994F825009A
:1028900094F82610000100EB4100C2B21D21204631
:1028A00000F0B5F9204600F0FBF8208D2021020A47
:1028B000204600F0ACF994F828202121204600F0B1
:1028C000A6F94021204600F05DF840F03F0240218B
:1028D000204600F09CF90121204600F010F801206C
:1028E000E0610A20FEF7F6FA4221204600F04AF89D
:1028F000122802D04FF4CA7070BDC82070BD70B5E8
:102900000C460546012100F03DF8024664B1012C59
:102910000FD0032C13D0052C17D0062C1BD0022C63
:102920001FD0042C23D027E0002002F0F802E86139
:1029300022E0012002F0F802521CE8611CE00320B2
:1029400002F0F802D21CE86116E0052002F0F8025D
:10295000521DE86110E0062002F0F802921DE861C5
:102960000AE0022002F0F802921CE86104E0042070
:1029700002F0F802121DE8612846BDE8704001210E
:1029800000F045B90EB501F07F018DF80810012166
:102990000A46009101AB02A900F003F89DF804007B
:1029A0000EBD2DE9F0470E4615460446818898462F
:1029B000DDF8209000680022FEF7B2FB4FF4FA67C2
:1029C0003B462A463146A069FFF76EF8A069FEF73C
:1029D0002DFF0128FAD13B464A464146A069FEF741
:1029E000B9FFA069FEF722FF0128FAD1A18820686B
:1029F000BDE8F0470122FEF793BB2DE9F041002529
:102A00000E46074614462846294601E03154401C2C
:102A1000A042FBDB01213846FFF771FF1221384647
:102A2000FFF7B0FF40061FD5FF221221384600F005
:102A3000EEF813213846FFF7A5FF0546102138466A
:102A4000FFF7A0FF02460D21384600F0E0F8AC4247
:102A500000D22546002405E000213846FFF792FF0A
:102A60003055641CAC42F7DB05213846FFF747FFC1
:102A70002846BDE8F08110B50446818980680022AF
:102A8000FEF74EFB0220FEF725FAA1890122A0687D
:102A9000FEF746FBBDE810406420FEF71BBA0000BD
:102AA00010B594B0044650220F496846FDF7ABFCC0
:102AB00094F824100120884001F0F9F894F82520BA
:102AC0006B4603EBC203D3E9002300F069FF01F07A
:102AD000BFF8102801DD012100E00021204600F0B0
:102AE00025F814B010BD0000883D000870B50546FB
:102AF000C8044411C4F307420621284600F087F8B1
:102B00000520FEF7E7F9C4F307220721284600F065
:102B10007EF80520FEF7DEF9E2B20821284600F033
:102B200076F8BDE870400520FEF7D4B970B50C46C4
:102B300005462621FFF726FF14B140F0080201E008
:102B400000F0F7022621284600F061F8BDE8704049
:102B50000A20FEF7BFB910B52D2901D22D2105E0BD
:102B6000F02901D9F02106E0782904D805222D3971
:102B700091FBF2F103E00A221E31B1FBF2F1C9B27E
:102B80002031CAB20B2100F042F8BDE810400A2003
:102B9000FEF7A0B910B50A46092100F038F8BDE8E3
:102BA00010400A20FEF796B970B50C4606460C296F
:102BB00001DD0C2402E0072C00DA07241E21FFF7B8
:102BC000E1FE05460A20FEF785F964F31F15EAB217
:102BD0001E21304600F01BF80A20FEF77BF9304634
:102BE000BDE87040FFF75CBF10B504461E21FFF73B
:102BF000C9FE40F007021E21204600F008F8BDE89B
:102C000010400A20FEF766B90521FFF778BE0EB521
:102C100041F080018DF8081001218DF804200A464A
:102C2000009101AB02A900F001F80EBD2DE9F047BB
:102C30000E461546044681889846DDF820900068C7
:102C40000022FEF76DFA4FF4FA673B462A463146FA
:102C5000A069FEF729FFA069FEF7E8FD0128FAD177
:102C60003B464A464146A069FEF71EFFA069FEF7B3
:102C7000DDFD0128FAD1A1882068BDE8F0470122D6
:102C8000FEF74EBA81610E49012302C0102120F8DF
:102C9000041B0C4902C003804160022101810C2108
:102CA00042610176062141768376FF218177782182
:102CB000C1770A21818300210162416270470000CF
:102CC00000080140000C01400022C26080F8102082
:102CD00020F81210C368521C0B44C360052AF7DBAE
:102CE000704710B5027CC36830F812401B1BC360EC
:102CF00020F81210C2681144C160027C521CD2B28A
:102D00000274052A01D3002202740520B1FBF0F001
:102D100080B210BD3EB50024114800940194029485
:102D20000E498460016001250573047505614FF447
:102D300060214460C161FDF7D3FD08B172B6FEE7C2
:102D400005200094CDE9015069460548FDF746FD90
:102D5000002801D072B6FEE73EBD0000002401400D
:102D6000700000203EB500241048009401940294A5
:102D70000D498460016004730475012505614FF4F9
:102D800060214460C161FDF7ABFD08B172B6FEE79A
:102D90000095CDE9015469460448FDF71FFD002860
:102DA00001D072B6FEE73EBD00280140A000002021
:102DB0002DE9F04786B000253B4800950195029526
:102DC0000395816941F010018161816901F0100171
:102DD0000491816941F020018161816901F0200144
:102DE0000491816941F004018161816901F004016C
:102DF0000491816941F0080181618069DFF8AC804C
:102E000000F008004FF40054049000222146404690
:102E1000FEF786F9DFF898904FF4116700223946E3
:102E20004846FEF77DF9DFF88CA0002248F2E13138
:102E30005046FEF775F90126CDE900460224CDE99A
:102E4000025469464046FEF773F8CDE90254CDE9D5
:102E5000007669464846FEF76BF848F20130CDE946
:102E60000006CDE9025469465046FEF761F8124863
:102E70006946CDE9004050460294FEF759F8E0203B
:102E80000090CDE90164694650460394FEF750F87E
:102E9000002211460720FEF7B5F90720FEF7A4F936
:102EA00006B0BDE8F08700000010024000100140AD
:102EB00000080140000C0140000011100F4810B53F
:102EC0000D4901604FF48271416000218160C16051
:102ED0004FF400720161C0E905120822C0E9072120
:102EE000416281620A21C162FEF7A3FC002801D081
:102EF00072B6FEE710BD000000300140D000002097
:102F000010B586B0002417480094019402940394ED
:102F100004941349059401604721C0E9011431214B
:102F2000C0E903148021C0E90541FEF7B3FF08B1F1
:102F300072B6FEE74FF48050009069460948FFF7EB
:102F400061F808B172B6FEE7049404A90548059437
:102F5000FEF76CFF002801D072B6FEE706B010BD88
:102F6000002C01402801002010B58AB0002421481F
:102F70000494059406940794089409940094019489
:102F800002944FF080410394C0E900144FF6FF71A2
:102F9000C0E9024104618461FEF77CFF08B172B6AA
:102FA000FEE74FF48050049004A91248FFF72AF876
:102FB00008B172B6FEE70F48FFF725F908B172B6FF
:102FC000FEE7089408A90B480994FEF72FFF08B103
:102FD00072B6FEE70120CDE9004002940022694666
:102FE00004480394FFF77DF8002801D072B6FEE78D
:102FF0000AB010BD7001002010B586B0002417483B
:10300000009401940294039404941349059401607C
:103010004721C0E901144FF6FF71C0E90314846130
:10302000FEF738FF08B172B6FEE74FF4805000900B
:1030300069460A48FEF7E6FF08B172B6FEE7049457
:1030400004A906480594FEF7F1FE002801D072B6E7
:10305000FEE706B010BD000000040040B8010020EB
:10306000FEE7FEE77047F8B5044640684FF4827308
:10307000984217D1A0684FF48065B0F5004F01D099
:10308000A8420FD12068066826F0400606606068F6
:10309000984207D1A068A84204D100920B460022B2
:1030A000012103E000920B4600228021204600F01F
:1030B00023F8002804D0606D40F0200060650320F4
:1030C000F8BDF8B515460E460B460092044601229F
:1030D000022100F011F840B9334600228021204639
:1030E000009500F009F8002804D0606D40F0200041
:1030F00060650320F8BD00002DE9F8431E469146A7
:1031000088460446089DFEF711F8401B351AFEF765
:103110000DF8074625480068C0F3CB30684338E017
:10312000701C37D0FEF702F8C01BA84203D215B1BD
:10313000009860B32CE02068416821F0E001416014
:103140006068B0F5827F0BD1A068B0F5004F02D067
:10315000B0F5806F04D12068016821F04001016062
:10316000A06AB0F5005F09D12068016821F4005120
:1031700001602068016841F400510160012084F879
:103180005100002084F850000320BDE8F88300259A
:10319000401E00902068816838EA010004D00021B8
:1031A0004945BDD10020F0E70121F9E76C0000207E
:1031B0007047FDF7C1BF30B593B028216846FDF7D1
:1031C00054F914210AA8FDF750F9002501200F95A4
:1031D00010951195010412958DE8230004904FF489
:1031E000E010CDE90810022407946846FEF78EF936
:1031F00008B172B6FEE70AA90F2081E831004FF44A
:103200008060CDE90D0502210AA8FEF7A3F808B1F8
:1032100072B6FEE74FF4004011900F940FA8FEF72E
:1032200023F8002801D072B6FEE713B030BD704716
:103230000148FFF716B80000280100200148FFF7F9
:1032400010B80000B8010020F0B50268194B1A4C04
:103250001A4D4FF08047984205D0B84203D0A042A3
:1032600001D0A84203D122F070064A683243984246
:1032700005D0B84203D0A04201D0A84203D122F425
:103280004074CA6822434C6922F0800222430260E3
:103290008A68C2620A688262984201D10969016340
:1032A000012141610169C90703D0016921F00101D0
:1032B0000161F0BD002C0140000400400008004006
:1032C00010B5846842EA032224F47F440A4322436F
:1032D000826010BD826822F070020A4342F007014A
:1032E0008160704710B5036A046A24F00104046227
:1032F000846924F0F00444EA021423F00A020A4329
:103300008461026210BD000070B5056A046A24F091
:103310000104046284690F4EB04208D0B0F1804FBE
:1033200005D00D4EB04202D00C4EB04203D124F075
:103330000304144301E044F001041A0724F0F004EC
:1033400044EA126225F00A0301F00A01194382617E
:10335000016270BD002C01400004004000080040E4
:1033600010B5036A046A24F010040462846923F02F
:10337000A00324F4704444EA023243EA011182615A
:10338000016210BD30B5046A056A25F010050562BA
:10339000856925F4407545EA022222F470454FF60E
:1033A000FF7202EA033224F0A0032A43A02404EAB5
:1033B000011119438261016230BD10B5406A0021DC
:1033C000C185C184FFF726F810BD70B5446A206836
:1033D000406994F84110C0F3C0100025212904D1A0
:1033E00018B1E584204600F062F82068406994F83E
:1033F0004210C0F38010222904D118B1E58520467F
:1034000000F02EF8606C40F0100060642046FFF77A
:1034100001F870BD10B50146406A0968096889065F
:1034200016D40021C1840168143151E8002F22F024
:10343000800241E80023002BF5D101680C3151E8EE
:10344000002F42F0400241E80023002BF5D110BDCF
:10345000FFF7E0F910BD10B5406AFFF7DCF910BDC9
:1034600001680C3151E8002F22F4907241E80023EA
:10347000002BF5D10168143151E8002F22F0010230
:1034800041E80023002BF5D1016B012909D1016826
:103490000C3151E8002F22F0100241E80023002BEC
:1034A000F5D1202180F842100021016370470168A6
:1034B0000C3151E8002F22F0C00241E80023002B1C
:1034C000F5D1202180F84110704708B590F84210DE
:1034D000222901D0022008BD82684FF480539A420D
:1034E00001D1016921B1816A9A421BD04AB10AE037
:1034F0000268816A5268C2F308020A80816A891CE4
:1035000008E0026972B10268526802F07F020A7034
:10351000816A491C8162C18D491E0904090CC1855B
:1035200003D01BE002685268F1E70168CA6822F024
:103530002002CA600168CA6822F48072CA60016809
:103540004A6922F001024A61202180F842100021DC
:103550004163026B012A03D0FFF71EF9002008BD6A
:10356000016301680C3151E8002F22F0100241E89C
:103570000023002BF5D101680A68D20602D50A683B
:1035800049680091818DFEF744FFE7E770B5044676
:1035900000680169E26821F4405111430161216929
:1035A000A0680843616908432168CA6841F20C6356
:1035B0009A430243CA6020684169A26921F44071BC
:1035C000114341611E492068884202D1FDF768FF1E
:1035D00001E0FDF755FF00EBC00101EB0012606850
:1035E00064218000B2FBF0F3B3FBF1F36FF0180637
:1035F0007343B2FBF0F5B2FBF0F605EB8305322323
:1036000003EB0515B5FBF1F5B6FBF1F605F0F0059A
:1036100005EB0615B2FBF0F6B2FBF0F0B0FBF1F0F3
:103620006FF01802504306EB800003EB0010B0FB74
:10363000F1F0216800F00F002844886070BD0000A0
:10364000003801400148FEF7E7BE000000020020FC
:10365000FEE70907090E002804DB00F1E02080F8EE
:103660000014704700F00F0000F1E02080F8141DF6
:10367000704700000EB5FDF767FDFFF79CFDFFF7F3
:1036800097FBBB48416941F001014161406900225B
:1036900000F00100009011460B20FDF7B3FD0B2058
:1036A000FDF7A2FD002211460E20FDF7ABFD0E2016
:1036B000FDF79AFDFFF724FCAF48AE494FF0000834
:1036C0000160AE49C0E901180C22C0F80C80C0E9C5
:1036D0000482C0F81880C0F81C80FEF7D3FF08B140
:1036E00072B6FEE7FFF716FBFFF7E8FBFFF784FC77
:1036F000FFF738FBFFF738FCA14F4FF400550022CD
:1037000029463846FDF70CFD9E4C0122202120461B
:10371000FDF706FD012240212046FDF701FD0122B3
:1037200080212046FDF7FCFC97494FF4647201F5B7
:10373000BC70FFF7A7FA90484830FFF79CF98E4815
:103740004830FFF76AF8914E308104E000222946A4
:103750003846FDF7E5FC3089C828F7D1012251032E
:103760008748FDF7DDFC84484830FFF74DFA86486E
:103770005830FEF71BFC80484838FEF717FC834999
:10378000814801220A316038FDF79EF97A4840F2FB
:10379000B371EC30FFF798FAA14600222021484689
:1037A000FDF7BEFC002240212046FDF7B9FC0022B7
:1037B00080212046FDF7B4FCDFF8BCA140F69F7BDA
:1037C0000AF17C0A4FF47A77F069401CF061306AA4
:1037D000716A884201D3C6F82080707801286FD1C1
:1037E000654986F801807C310522A1F13400FFF79C
:1037F00004F930709AF800109AF801209AF8024003
:103800008B189AF80320AA2922441A44D2B257D11D
:103810009AF804005546904252D14FF4005158484E
:10382000FDF776FCFCF7C8FFC6E91601D6E91023C0
:103830000446801A61EB030144F620620023FCF782
:10384000C7FCC6E90D20316D4FF06403601AF063C8
:10385000697841F26F7401FB03F1B182A97801FB31
:1038600003F1F182E87800FB03F0A2F10103308359
:10387000A34205D3A2F598432D3BB3F5F97F0DD8AC
:10388000012220214C464846FDF74AFC00224021F7
:103890002046FDF745FC002240210EE06FF4FA536C
:1038A000D4185C451DD288420ED9002220214C46F6
:1038B0004846FDF735FC01221BE02046FDF730FCB1
:1038C000B078012824D03DE0002220214C46484613
:1038D000FDF726FC002240212046FDF721FC0122B5
:1038E0000CE0A2F55852B13A5A4509D28842EBD8B9
:1038F000DBE740212046FDF713FC00228021DCE7B6
:10390000002220214C464846FDF70AFC0022F0E741
:1039100086F80280B06B328BF18A8DE80700326B3B
:103920001548521C32631AA18830736BFCF7C8FC2F
:1039300011488830FCF748FD0F4982B288310E48A3
:10394000FEF72CFF307900283FF43EAF86F8048064
:1039500000252C46708905440120FDF7BBFA641C44
:10396000A4B2BC42F6D3B5FBF7F070822CE700009E
:1039700000100240003801400002002020A1070092
:1039800000100140000C0140D00000200000002089
:1039900025752025752025752025752025750A009B
:1039A0002DE9C04130B4DFF8A0C23CEA111418BFC1
:1039B0003CEA131400F0EC8081EA03051CEA1114C0
:1039C00044EAD57418BF1CEA131500F0C780A4EBB5
:1039D00005044FF0004545EAC12145EAC32341EA09
:1039E000505143EA525304F17F74994204F5003474
:1039F0004FEAC0204FEAC22208BF904200F09C80EC
:103A00004FEA13650FF24016765D4FEA134506FB49
:103A100005F7C7F1807706FB07F74FEAD737A7FB13
:103A200003687642C8F58038A7FB06CE38BFA8F1F8
:103A3000010807FB08E64FF0000EA6FB028CE6FB30
:103A400003CEDCF1000CCEF1004E38BFAEF1010E1A
:103A5000A6FB0C584FF000074FF00005E6FB0E8761
:103A6000A1FB08C6A0FB07CE16EB0E0645F100052C
:103A7000E1FB076515F1E04E7EBFA4F580345FEAF7
:103A800046066D4116F1800745F100054FEA1727FC
:103A90004FEA066647EA0567A6F1DE46B6F1805FA3
:103AA0004FEA15251FD9384624F0010C05EBC471E7
:103AB000BCF1FE6F01EB0C1102D8F0BCBDE8008137
:103AC00024425CBF01F5801E9EEAC47F02D4F0BC94
:103AD000BDE80081244238D4F0BCA1F1C041BDE86A
:103AE000004100F049B94FEAD22242EA43524FEA7C
:103AF000D323A7FB02864FEAD02040EA415007FBC0
:103B000003661EEA0E0F4FEAD12105FB026658BF7D
:103B1000A6EB0056B6EB00564FEA520E4EEAC37EB5
:103B200018EB0E0E56EB530EBDD518EB02085E4196
:103B30007F1C55F10005B6E74FF480154FF00007E4
:103B40004FF000064FF00008ADE7F0BC4FF000006A
:103B500001F1C04101F00041BDE8008111EA0C1FF4
:103B60000CEA131500D00CE013EA0C1F00F02580BE
:103B70004FF00000F0BC81EA030101F00041BDE814
:103B80000081F0BCBDE8004181EA030100F0F4B817
:103B9000F0BCBDE8004170B500F0A0F8097EFC3E25
:103BA00000F007B881EA03014FF0000001F0004186
:103BB000704781EA030100F0DFB8F0BCBDE80041C6
:103BC0004FF0000021497047FFFDFBF9F7F5F4F2D3
:103BD000F0EEEDEBE9E8E6E4E3E1E0DEDDDBDAD8A8
:103BE000D7D5D4D3D1D0CFCDCCCBCAC8C7C6C5C406
:103BF000C2C1C0BFBEBDBCBBBAB9B8B7B6B5B4B31D
:103C0000B2B1B0AFAEADACABAAA9A8A8A7A6A5A407
:103C1000A3A3A2A1A09F9F9E9D9C9C9B9A999998CB
:103C20009797969595949393929191908F8F8E8E6E
:103C30008D8C8C8B8B8A89898888878786858584FB
:103C400084838382828181800000FF070000F87FE7
:103C50004FEA41034FEA5353A3F58063D3F11E03A8
:103C6000C8BFD3F1210C0CDD4FF0004242EAC12263
:103C700042EA505232FA03FC8CEAE17CACEBE17090
:103C80007047102BC4BF0020704703F5787CBCF14F
:103C9000FF3F04D06FF0004282EA2100704770B508
:103CA00000F01CF84992248000207047F2E710F0E1
:103CB000004248BF4042B0FA80F310FA03F10AD044
:103CC000C3F11D0303F580634FEA415002EB035239
:103CD00002EBD12170474FF0000070470EF1020E49
:103CE0002EF0030E5EF8046B364205D4012A43EB36
:103CF000030515F5001F12D8012841EB010C1CF536
:103D0000001F0CD80ED14FEAD17C15F5001F0CEB2B
:103D10004C0C0CF1020C08BF4CEBD37C04E04FF0D0
:103D2000080C01E04FEAD37C0CEB4C0526FA05F6B3
:103D300006F00706B6F1040C06D20EEB860CBDE8C1
:103D400070404CF0010C6047DFE80CF0090B0202F8
:103D50004FF000414FF00000A1F5002170BD194661
:103D60001046012851EB010418BFD4F5001484BF9C
:103D7000002001F0004170BD0808A0F500114FEAD5
:103D800031017047000000003333333333331F40B9
:103D9000CDCCCCCCCCCC24403333333333332F4055
:103DA000CDCCCCCCCCCC34400000000000403F4017
:103DB0009A99999999D944400000000000404F40D9
:103DC0000000000000405F400000000000406F4025
:103DD0000000000000407F400102020304050607C6
:103DE00008090A0B0C0D0E0F101000000000000057
:103DF0000000010203040607080900000000010298
:103E000003040000243E00080000002070000000B1
:103E100028010008943E0008700000207809000086
:103E2000440100080000000000000000FA0000004B
:103E30000000000000000000000000000000000082
:103E40000000000000000000204E00000000000004
:103E50000000000000000000000000000000000062
:103E60000000000000000000000000000000000052
:103E70000000000000000000000000000000000042
:103E80000000000001000000100000000000000021
:043E900000127A00A2
:04000005080000ED02
:00000001FF
