:020000040800F2
:10000000380B0020890100087B350008352C0008DA
:10001000793500083F060008CD3C000800000000CC
:10002000000000000000000000000000753800081B
:100030008306000800000000E53500087738000856
:10004000A3010008A3010008A3010008A301000800
:10005000A3010008A3010008A30100088506000809
:10006000A3010008A3010008A3010008410600083D
:10007000A3010008A30100084D060008A301000821
:10008000A3010008A3010008A3010008A3010008C0
:10009000A3010008A3010008A30100088B060008C3
:1000A000A3010008F5380008A3010008A301000817
:1000B000A301000801390008A3010008A3010008FA
:1000C000A3010008A3010008A3010008A301000880
:1000D000A3010008593C0008A3010008A30100087F
:1000E000A3010008A3010008A301000800F002F822
:1000F00000F03AF80AA090E8000C82448344AAF188
:100100000107DA4501D100F02FF8AFF2090EBAE885
:100110000F0013F0010F18BFFB1A43F0010318473B
:100120008C4A0000AC4A0000103A24BF78C878C15D
:10013000FAD8520724BF30C830C144BF04680C60ED
:10014000704700000023002400250026103A28BF35
:1001500078C1FBD8520728BF30C148BF0B60704739
:100160001FB51FBD10B510BD00F0C9F81146FFF74F
:10017000F7FF03F0BDFD00F0E7F803B4FFF7F2FF6F
:1001800003BC00F0EFF80000094880470948004729
:10019000FEE7FEE7FEE7FEE7FEE7FEE7FEE7FEE737
:1001A000FEE7FEE704480549054A064B7047000094
:1001B000F3380008ED00000838050020380B002057
:1001C0003807002038070020B2F120030AD5C2F119
:1001D000200320FA02F001FA03F321FA02F140EAC7
:1001E0000300704721FA03F04FF00001704740EA26
:1001F000010310B59B070FD1042A0DD310C808C9FD
:10020000121F9C42F8D020BA19BA884201D90120A5
:1002100010BD4FF0FF3010BD1AB1D30703D0521CF0
:1002200007E0002010BD10F8013B11F8014B1B1B2B
:1002300007D110F8013B11F8014B1B1B01D1921E95
:10024000F1D1184610BD10B5203AC0F00B80B1E8CE
:100250001850203AA0E81850B1E81850A0E81850FB
:10026000BFF4F5AF5FEA027C24BFB1E81850A0E804
:10027000185044BF18C918C0BDE810405FEA827C1E
:1002800024BF51F8043B40F8043B08BF7047D20735
:1002900028BF31F8023B48BF11F8012B28BF20F8D6
:1002A000023B48BF00F8012B70474FF0000200B539
:1002B000134694469646203922BFA0E80C50A0E889
:1002C0000C50B1F12001BFF4F7AF090728BFA0E837
:1002D0000C5048BF0CC05DF804EB890028BF40F803
:1002E000042B08BF704748BF20F8022B11F0804F45
:1002F00018BF00F8012B704770477047704775466C
:1003000000F02CF8AE4605006946534620F0070081
:10031000854618B020B5FFF745FFBDE820404FF0F7
:1003200000064FF000074FF000084FF0000B21F0DF
:100330000701AC46ACE8C009ACE8C009ACE8C009AC
:10034000ACE8C0098D46704710B50446AFF3008095
:100350002046BDE81040FFF710BF0000004870477E
:10036000D804002001491820ABBEFEE72600020099
:100370007047000070B5044600688168C943C9072A
:1003800017D1816821F00101816000F0F9FF054675
:100390000AE000BF00F0F4FF401B022804D92068E7
:1003A0008068C043C00706D020688068C043C0078B
:1003B000F0D0002070BDA06A40F01000A062E06A9A
:1003C00040F00100E062012070BD10B50146406AB6
:1003D000826A12F0500F05D0006A026BBDE810402F
:1003E00008461047816A41F400718162016889689A
:1003F000C1F3424107290CD1017B51B9816A21F433
:1004000080718162816AC90403D4816A41F001016B
:10041000816200F0FDFA10BD10B5406A816A41F0BA
:1004200040018162C16A41F00401C16200F0F2FA48
:1004300010BD10B5406A00F0ECFA10BDF8B500260A
:100440000446009600688168C943C9072DD08168B9
:1004500041F001018160164816490068B0FBF1F0D7
:1004600000E0401E00900028FBD100F089FF054607
:1004700016E000BF00F084FF401B022810D920685E
:100480008068C043C0070BD0A06A40F01000A06293
:10049000E06A40F00100E06284F824600120F8BDC9
:1004A00020688068C043C007E4D10020F8BD000088
:1004B0005400002040420F002DE9F05F044600F098
:1004C0005FFFC4F8F000D4F8E810DFF82CA1411A5F
:1004D000DFF828B1DFF828814FF00209B1F5FA7F83
:1004E0007ED3C4F8E8002068008804F03FFA45494C
:1004F00004F07AF9444904F04DFA444904F04AFA08
:100500000646C4F8D400D4F8DC0004F041F95246A1
:100510005B4603F03BFD07460D46304604F038F9D4
:100520003A462B4604F014F801D288F8059020686A
:100530000188201D02F05BFEA4F8E00004F016FA2A
:10054000304904F051F9304904F024FA2F4904F0FD
:1005500021FAC4F8D80098F8052001214546002664
:1005600022B1012A14D0022A15D117E0284A90425C
:100570000BDAB4F8E200142803D2401CA4F8E2001D
:1005800034E0697185F8019030E0A4F8E2602DE074
:10059000204988422ADB88F8056027E005226A7036
:1005A0001D4A904209DDB4F8E400782803D2401CCB
:1005B000A4F8E40003E0697001E0A4F8E460D4F872
:1005C000DC0004F0E5F852465B4603F0F7FF07460F
:1005D0008846D4F8D40004F0DBF83A46434600E0FD
:1005E00007E003F025FF01D26E716E7054F8D80F4A
:1005F0006060BDE8F09F00009A9999999999C93F68
:100600000000002000F07F4533335340CDCC9C40A8
:100610009A991941CDCC1C410000404140F8D41BAF
:10062000002140F80C190822016101830162416236
:100630008162418381838177C43802F0C1BDFEE7C6
:10064000014800F0B3BB000024040020014800F082
:10065000ADBB00006804002030B590F84050012484
:10066000AC40C56B6C60046863604368102B036822
:1006700003D099600068C26030BD9A600068C160B4
:1006800030BD7047022000F075BD4FF4807000F05F
:1006900071BD72B6FEE7000006490020C861064839
:1006A000016941F004010161016941F0400101610A
:1006B00070470000B804002000200240064A0021D4
:1006C000D16106490A6942F002020A61486108697B
:1006D00040F0400008617047B8040020002002404C
:1006E000044B0022DA61044A136943F001031361E9
:1006F00001807047B8040020002002401448002206
:10070000C168CB06134904D5CA6942F00202CA6126
:100710001022C3685B0705D5CB6943F00103CB61A9
:1007200042F00402C369DB0707D0CB6943F004033E
:10073000CB61C16921F00101C161A2F5807101396C
:1007400001D0C2607047C16921F00101C1617047E9
:1007500000200240B804002070B5054600F010FEED
:100760000646114C09E0681C07D025B100F008FED0
:10077000801BA84201D9032070BDE068C007F2D1F8
:10078000E068800601D52020E060E068C00605D45E
:10079000E069C00702D1E068400703D5FFF7AEFF6C
:1007A000012070BD002070BD0020024010B586B051
:1007B000044600F0BBFC0120CDE90240019000207E
:1007C000009004A9684600F013FC00F065FC06B038
:1007D00010BD10B50023521C05E030F813405B1C1F
:1007E00021F8024BDBB2B3EB520FF6D310BD0C2253
:1007F000FFF7EFBF2DE9F041164607460D4600F022
:1008000095FC0024761C09E02A8807EB44010023AC
:10081000012000F04BFC641CE4B2AD1CB4EB560F9D
:10082000F2D3BDE8F04100F037BC1FB50C2201A99E
:10083000FFF7E0FF1FBD000010B50549054C886AB1
:1008400022688B6A9842FAD102EB004010BD00008A
:1008500000000020240400402DE9F041294EB07929
:1008600000284DD00020B0710546044606F1380836
:100870004FF47A77B8F800000544012000F0A6FB99
:10088000641CBC42F6DBB5FBF7F01F49308248819F
:1008900003F0E8F9592831D01C4E1D4DF414012203
:1008A0002021304600F067FD01224021304600F053
:1008B00062FD01228021304600F05DFD01222146CB
:1008C000284600F058FD642000F080FB0022202123
:1008D000304600F050FD00224021304600F04BFD34
:1008E00000228021304600F046FD002221462846A5
:1008F00000F041FD642000F069FBD0E70120B070FA
:10090000BDE8F08100000020AC040020000C014094
:1009100000080140F8B50024009490F824202546F2
:10092000012A12D0012280F824204A681F23072AB6
:100930000DD20668776B521E02EB820293409F43F2
:100940000B6893401F43776319E00220F8BD0668E7
:100950000D2A0AD2376BD21F02EB820293409F43CB
:100960000B6893401F43376309E0F76A0D3A02EBC7
:10097000820293409F430B6893401F43F7620A68CB
:10098000072306680A2A0AD3F7680A3A02EB4202EA
:1009900093409F438B6893401F43F76008E037699B
:1009A00002EB420293409F438B6893401F433761A1
:1009B0000A68102A01D0112A20D1124B02689A42EB
:1009C00017D193681B0219D4936843F40003936012
:1009D0000968102912D10C490C4A0968B1FBF2F1DF
:1009E00001EB8101490000E0491E00910029FBD183
:1009F00004E0816A41F020018162012480F82450E2
:100A00002046F8BD002401405400002040420F0061
:100A100070477047704700002DE9F0414FF0000724
:100A200004003D467ED0A06A002628B9E66284F81C
:100A30002460204600F07EF82046FFF79BFCA16A68
:100A4000C90600D420B1A06A40F01000A06269E09D
:100A5000A16A21F4885141F00201A1626268E16952
:100A6000237B0A4347EA43010A43A1684FF4807796
:100A7000B94209D0012907D05FF0000194F814C0F1
:100A8000BCF1010F02D00AE03946F7E7F3B1A36ADF
:100A900043F02003A362E36A43F00103E3622368A7
:100AA000D3F804C02CF4694C4CEA010CC3F804C020
:100AB00021688B68DFF870C003EA0C0313438B6076
:100AC000A168B9420BD0012909D00CE0DFF85CC065
:100AD000A3690CEB43330B4343F40061DFE7218A46
:100AE0000D05A5F580152168CB6A23F470032B430F
:100AF000CB62216889680E4B1940914208D1E662A9
:100B0000A16A21F0020141F00101A162BDE8F0817A
:100B1000A06A20F0020040F01000A062E06A40F0FD
:100B20000100E0620120F1E7FDF7E1FF00E0FFFFD7
:100B3000FE0E1FFF70B586B0002506460095019594
:100B4000029503950068194988422DD11849886992
:100B500040F400708861886900F40070049088692E
:100B600040F0040088618869694600F00400049040
:100B70000320009001900F4800F008FB0F4C0E4836
:100B8000C4E900058020C4E90250400020618000D3
:100B900060612020C4E90605204600F0B1F908B1E3
:100BA000FFF777FD3462666206B070BD0024014035
:100BB0000010024000080140080002402404002008
:100BC0002DE9F047894604463B4900683B4F0E1D1E
:100BD0009046884201D0B84207D1306810F4702F97
:100BE00003D001252846BDE8F08794F824000128A9
:100BF0000CD0012084F824002046FFF71FFC0500DC
:100C00004FF0000004D084F82400EBE70220EAE76C
:100C1000A16A40F60162914341F48071A1622168AA
:100C2000B94218D1326812F4702F14D0A16A41F47D
:100C30008011A1623168490505D5A16A21F40051EE
:100C400041F48051A162A16AC9040AD5E16A21F088
:100C50000601E16206E0A26A22F48012A2624968FB
:100C6000E9E7E06284F82400216A15488862216A75
:100C70001448C862216A1448086321686FF00200B2
:100C800008602068816841F4807181602168434672
:100C90004A464C31206A00F061F920688168C1F34E
:100CA00042410729816803D041F48011816099E7AE
:100CB00041F4A001FAE700000024014000280140AF
:100CC000CB030008330400081904000810B590F89D
:100CD00021100022022905D00421816380F8202000
:100CE000012010BD01680B6823F00E030B60016842
:100CF0000B6823F001030B6090F84030C46B0121B6
:100D000001FA03F3636080F8211080F82020104678
:100D100010BD000010B590F821100024022903D066
:100D20000421816301243DE001680A6822F00E027B
:100D30000A6001680A6822F001020A601A4A016822
:100D4000914201D1012121E0174A1432914201D18F
:100D500010211BE0144A2832914201D1891515E077
:100D6000114A3C32914201D189140FE00E4A5032AF
:100D7000914202D14FF4803108E00B4A6432914233
:100D800002D14FF4801101E04FF08071064A083A19
:100D90005160012180F82110002180F82010416B62
:100DA00001B18847204610BD080002402DE9F05FE0
:100DB000C16B0C6801680B68D0F840C0042202FACD
:100DC0000CF2494DDFF824A1494E4A4FDFF828B113
:100DD000DFF828E122422CD05A072AD50A68920669
:100DE00003D40A6822F004020A600168A94201D112
:100DF000042219E0514501D1402215E0B14202D14F
:100E00004FF4806210E0B94202D14FF480420BE00F
:100E1000594502D14FF4802206E0714502D14FF4CA
:100E2000800201E04FF080622F4908394A60C16AB0
:100E30003BE04FF0020808FA0CF818EA040F4FF0F4
:100E400000094FF0010235D05FEA837832D50B6894
:100E50009B0605D40B6823F00A030B6080F8212061
:100E60000168A94201D1022219E0514501D1202295
:100E700015E0B14202D14FF4007210E0B94202D144
:100E80004FF400520BE0594502D14FF4003206E016
:100E9000714502D14FF4001201E04FF00072124987
:100EA00008394A6080F82090816A00291AD0BDE88C
:100EB000F05F0847082505FA0CF5254212D01B07FC
:100EC00010D50B6823F00E030B6090F84010C36B35
:100ED00002FA01F15960826380F8212080F82090A5
:100EE000016BE2E7BDE8F09F080002401C000240F1
:100EF0003000024044000240580002406C000240B2
:100F000030B528B308C8134914221944B1FBF2F1D3
:100F10008900C16310498163022141771A6843F651
:100F2000F0718A43D0E900142143D0E902452C43F3
:100F300021430469214344692143846921431143C6
:100F4000196000214163012242770177084630BDD4
:100F5000012030BDF8FFFDBF0000024070B504461F
:100F600090F82000002501280CD0012084F82000F2
:100F700094F821600020012E06D084F8200002257C
:100F8000284670BD022070BD022684F82160A0634F
:100F90002068066826F0010606602046FFF75CFB25
:100FA000E06A00282068016802D041F00E0106E0E6
:100FB00021F0040101602068016841F00A0101602C
:100FC0002068016841F001010160D9E770B504466D
:100FD00000F0D6F90546601C02D0044800780444AD
:100FE00000F0CEF9401BA042FAD370BD48000020AB
:100FF0002DE9F047054626480F460126017E0129C6
:101000000FD00121814601762868DFF888804CF2F4
:101010005034022808D0A2462046FFF79DFBA8B115
:1010200031E00220BDE8F0872046FFF795FB08BBC2
:101030000120FFF731FB2046FFF78EFBD8F8101098
:10104000064621F00401C8F810101CE04FF0FF30F4
:101050003860AC6811E02046FFF730FB5046FFF7E0
:101060007BFBD8F81010060021F00201C8F8101020
:1010700001D03C6007E004F58064D5E9020100EB93
:101080008120A042E7D8002189F818103046C9E72E
:10109000B8040020002002400348016941F08001AB
:1010A0000161002070470000002002402DE9F05F40
:1010B00007461C4888460024017E15461E46012925
:1010C00009D00121814601764CF2503A5046FFF793
:1010D00043FB18B122E00220BDE8F09F012F02D0AF
:1010E000022F00D00427D346DFF83CA02201284677
:1010F0003146FFF769F881B208EB4400FFF7F0FAD8
:101100005846FFF729FBDAF8102022F00102CAF84E
:10111000102018B9641CE4B2BC42E7D3002289F85D
:101120001820D9E7B804002000200240064900201A
:101130000A69120607D5054A4A60054A4A600969E4
:10114000090600D5012070470020024023016745B1
:10115000AB89EFCD0549898A814205D10448C1890F
:10116000491CC1810121017170470000000200206B
:1011700000000020044910B50A68024202D008604D
:10118000FFF7E8FF10BD0000140401402DE9F84FFF
:10119000DFF8B8910024A9F1040B23460F2709F1C9
:1011A000040AABF1040EC9E00125A5402A40AA4279
:1011B0007DD1674ED1F804C0ACEB0608B44532D0FF
:1011C00014DCBCF1030F3AD009DCBCF1000F2AD0CB
:1011D000BCF1010F1CD0BCF1020F31D11DE0BCF1FC
:1011E000110F17D0BCF1120F2AD119E0B8F5881FE2
:1011F00019D006DCB8F5803F15D0B8F5801F1FD197
:1012000011E0B8F5001F0ED0B8F5041F18D10AE0A0
:10121000CB6815E0CB681B1D12E0CB6808330FE0EC
:10122000CB680C330CE08B682BB1012B4FF008031B
:1012300003D0456104E0042302E0056100E00023DF
:10124000FF2A01D8064601E000F104064FEA8405B2
:1012500001D9A5F12005D6F8008007FA05FC28EA97
:101260000C0803FA05F548EA0508C6F800804D6841
:10127000ED0062D5374DAE6946F00106AE61AD694D
:1012800024F0030605F001050095334D06EB050C2F
:10129000DCF80850A607360F07FA06F825EA080515
:1012A000DFF8B880404503D14FF0000817E044E074
:1012B000DFF8AC80404502D14FF001080FE0DFF8C5
:1012C000A480404502D14FF0020808E0DFF8988082
:1012D000404502D14FF0030801E04FF0040808FA3E
:1012E00006F848EA0508CCF808804D68D9F800608F
:1012F000ED024D4601D5164300E096432E604D6841
:10130000DAF80060AD02554601D5164300E0964379
:101310002E604D68DBF80060AD035D4601D51643D5
:1013200000E096432E604D68DEF80060ED037546E0
:1013300001D5164300E096432E60641C0D682A46D2
:10134000E5407FF431AFBDE8F88F000008040140AC
:101350000000111000100240000001400008014090
:10136000000C01400010014000140140806808405A
:1013700000D0012070470AB1016170470904FBE702
:1013800001488068704700004800002002488168DA
:10139000027811448160704748000020074810B56A
:1013A000016841F010010160032000F075F80F2082
:1013B00000F006F800F024F8002010BD00200240E4
:1013C00070B50D4D04464FF47A712878B1FBF0F0FA
:1013D0000A490968B1FBF0F000F03BFE48B9102C57
:1013E00007D200222146501E00F036F800206C6023
:1013F00070BD012070BD0000480000205400002096
:101400000C4808B5816941F001018161816901F0F1
:1014100001010091C16941F08051C161C06900F0D2
:10142000805000900448416821F0E06141F0007173
:10143000416008BD0010024000000140002809DBA7
:1014400000F01F02012191404009800000F1E020DE
:10145000C0F8001170470000F0B40E4B1B680C463A
:10146000C3F30223C3F10705042D00D90425191D78
:10147000072901D2002300E0DB1E012606FA05F150
:10148000491E214099409E40761E16403143F0BCD3
:1014900002F01DBC0CED00E0064900F007020868F0
:1014A0004FF6FF03184040EA0220034A1043086049
:1014B000704700000CED00E00000FA052DE9F8434C
:1014C00005460078354CC00754D0E0690026C000BE
:1014D00008D4E06940F08050E061E069012600F046
:1014E000805000902E480168C90512D401688046DA
:1014F00041F480710160FFF743FF074605E000BF3C
:10150000FFF73EFFC01B642823D8D8F80000C005B1
:10151000F6D5206A10F4407021D0A98801F44071FA
:1015200081421CD0206A1F49012220F440700A60C9
:1015300000220A602062C00711D0FFF721FF074692
:1015400041F2883808E000BFFFF71AFFC11B414590
:1015500002D90320BDE8F883206A8007F4D5206A09
:10156000696820F44070084320621EB1E06920F0F1
:101570008050E0612878800705D56068A96820F46C
:101580004040084360602878C00605D56068E96877
:1015900020F48000084360600020DBE70010024078
:1015A00000700040400442422DE9F0470F4605001C
:1015B00061D0434E306800F00700B84209D230686D
:1015C00020F0070038433060306800F00700B84270
:1015D00051D128683B4C810712D5400703D560687C
:1015E00040F4E06060602878000703D5606840F44C
:1015F000605060606068A96820F0F0000843606097
:101600002878C00728D06868012810D021680228EF
:1016100010D0890700292EDA616821F00301014307
:101620006160FFF7ADFE804641F288390DE0216828
:101630008903EFE78901EDE7FFF7A2FEA0EB0801C0
:10164000494502D90320BDE8F0876068696800F069
:101650000C00B0EB810FEFD1306800F00700B8420A
:101660000BD9306820F0070038433060306800F054
:101670000700B84201D00120E5E72878400705D5EA
:101680006068E96820F4E06008436060287800073B
:1016900006D56068296920F4605040EAC1006060A6
:1016A00000F038F86168084AC1F30311515CC84082
:1016B0000649086006480068FFF782FE0020C2E77E
:1016C0000020024000100240924B0008540000200D
:1016D0004C0000200448054900684968044AC1F3E9
:1016E0000221515CC84070475400002000100240A5
:1016F000A24B00080448054900684968044AC1F340
:10170000C221515CC84070475400002000100240C4
:10171000A24B00080E4A51680E4801F00C03042B3E
:1017200011D0082B0FD10C48C1F38343C903C05C0F
:101730000AD55168084AC1F34041921E515C054ADE
:101740005043B0FBF1F07047044948437047000034
:101750000010024000127A00824B000800093D0090
:101760002DE9F84F040070D02078C04DC00749D053
:101770006868C0F38100012807D06868C0F3810061
:10178000022809D16868C00306D52868800339D5C6
:1017900060680028E7D035E06068B0F5803F0BD086
:1017A00010B1B0F5A02F11D0286820F48030286047
:1017B000286820F4802002E0286840F48030286007
:1017C000606890B1FFF7DCFD06460AE0286840F447
:1017D00080202860F0E700BFFFF7D2FD801B64285F
:1017E00073D828688003F7D50CE0FFF7C9FD0646DB
:1017F00005E000BFFFF7C4FD801B6428F0D828680F
:101800008003F7D420789A4E80074FF001094FF0FB
:10181000000839D5686810F00C0F07D06868C0F36D
:101820008100022809D16868C00306D428688007AF
:1018300014D52069012808D110E02069B0B1C6F89C
:101840000090FFF79DFD074605E00AE1FFF798FDD0
:10185000C01B0228C4D828688007F7D528686169AA
:1018600020F0F80040EAC10028600DE0C6F80080D2
:10187000FFF786FD074604E0FFF782FDC01B022844
:1018800023D828688007F7D4207800072CD579481A
:10189000A169D9B1C0F80090FFF772FD074604E0D6
:1018A000FFF76EFDC01B02280FD8686A8007F7D5C6
:1018B00071484FF4FA510068B0FBF1F0009000BF9E
:1018C0000098411E0091FAD20EE080E0C0F800803E
:1018D000FFF756FD074604E0FFF752FDC01B022844
:1018E00075D8686A8007F7D42078400760D5E86922
:1018F0000027C00008D4E86940F08050E861E8693A
:10190000012700F0805000905C480168C90513D49D
:101910000168834641F480710160FFF731FD824622
:1019200006E000BFFFF72CFDA0EB0A0064284ED8AC
:10193000DBF80000C005F5D5E06801280AD008B141
:10194000052813D0286A20F001002862286A20F0B8
:10195000040002E0286A40F001002862E06841F2D9
:10196000883B98B1FFF70CFD82460BE0286A40F0F7
:1019700004002862EEE700BFFFF702FDA0EB0A01BA
:1019800059455AD8286A8007F6D50CE0FFF7F8FCCD
:10199000824605E0FFF7F4FCA0EB0A0159454CD85C
:1019A000286A8007F6D41FB1E86920F08050E8610A
:1019B000E06988B36968C1F38101022944D0022833
:1019C000C6F8608004D0FFF7DBFC044638E034E062
:1019D000FFF7D6FC074604E0FFF7D2FCC01B022845
:1019E0002BD828688001F7D4206AB0F5803F05D154
:1019F0006868A16820F4003008436860D4E90801F1
:101A00000843696821F4741108436860C6F860905F
:101A1000FFF7B6FC044606E025E000BFFFF7B0FC88
:101A2000001B022809D828688001F7D51BE000BFF9
:101A3000FFF7A6FC001B022802D90320BDE8F88F9F
:101A400028688001F4D40EE00128F7D06868226A83
:101A500000F48031914204D1616A00F47010884230
:101A600001D00120EAE70020E8E700000010024072
:101A700000004242800442425400002000700040B6
:101A800090F85100704770B5040009D0606A0025D5
:101A900040B125616561A56294F8510040B10CE048
:101AA000012070BD6068B0F5827FF4D0E561F2E797
:101AB00084F85050204600F03FF8022084F851008E
:101AC0002068016821F040010160A088218900F4AC
:101AD000827001F404410843A18901F400610843C4
:101AE000217C01F002010843217D01F0010108433E
:101AF000218B01F400710843217F01F03801084374
:101B000094F8201001F080010843218D01F4005168
:101B1000084321680860A069042101EA1040216897
:101B200048602068C16921F40061C16165650120D8
:101B300084F85100002070BD30B585B000240094B9
:101B400001940294039400681449884223D11448F4
:101B5000816941F480518161816901F4805104916E
:101B6000816941F00401816180690E4D00F004003B
:101B70000490A02000900220019003200390694669
:101B80002846FFF703FB4020CDE9000469462846BC
:101B90000294FFF7FBFA05B030BD000000300140B1
:101BA00000100240000801402DE9F84F044690F86B
:101BB00051001D4616460F46012838D160684FF087
:101BC0000408B0F5827F01D1A06830B3FFF7D8FBDD
:101BD0008246002F75D0002E73D094F85000012853
:101BE00025D04FF0010984F8509084F851804FF0CF
:101BF0000008C4F85480A763A687E687C4F830803D
:101C0000A4F83480A4F83680C4F84080C4F8448036
:101C1000A068B0F5004F0CD015E084F85180009317
:101C200013460A46204600F01CF9BDE8F88F022052
:101C3000FBE72068016821F040010160206801682D
:101C400021F48041016020680168490603D40168DD
:101C500041F040010160E068C0B134E02068816873
:101C6000C90709D0007BA16B0870A06B401CA06362
:101C7000E08F401EE08709E0FFF782FBA0EB0A003F
:101C8000A84202D3681C01D032E085B3E08F00285F
:101C9000E4D11BE020688168C90709D0C068A16B46
:101CA0000880A06B801CA063E08F401EE0870AE0E4
:101CB000FFF766FBA0EB0A00A84203D3681C02D022
:101CC00016E012E09DB1E08F0028E3D1524629468C
:101CD000204601F02BFD08B12020606584F851906A
:101CE00084F85080606D00289FD001209DE7FFE7B9
:101CF00084F8519084F85080032096E72DE9F84F3E
:101D0000984616468A460446FFF73AFB814694F801
:101D1000510001281ED1BAF1000F73D0002E71D0EE
:101D200094F85000012815D0012784F85070032042
:101D300084F8510000256565C4F830A0A686E686C3
:101D4000A563A587E58765642564A068B0F5004FA5
:101D500003D00CE00220BDE8F88F2068016821F074
:101D6000400101602068016841F480410160206801
:101D70000168490603D4016841F040010160E06850
:101D8000B0F5006F606803D048B3012E27D047E05C
:101D900008B1012E1FD1206B21680088C86006E0C1
:101DA00020688168890709D5216B0988C160206B8B
:101DB000801C2063E08E401EE0860CE0FFF7E0FA16
:101DC000A0EB0901414503D3B8F1FF3F03D035E053
:101DD000B8F1000F32D0E08E0028E1D123E0206B73
:101DE00021680078087306E02068816889070AD5B1
:101DF000216B09780173206B401C2063E08E401E2C
:101E0000E0860DE02BE0FFF7BBFAA0EB09014145AE
:101E100003D3B8F1FF3F03D010E0B8F1000F0DD0AD
:101E2000E08E0028E0D14A464146204601F0ACFC55
:101E300008B120206065A06830B109E084F85170D5
:101E400084F85050032086E72068C16880680090BD
:101E500084F8517004F8505F60680028F3D00120C6
:101E600079E72DE9FF4F81B01D46934604464FF0B8
:101E700001090E9EFFF784FA074694F85100616845
:101E8000012806D0B1F5827F3CD1A168C9BB0428E6
:101E900038D10298002871D0BBF1000FFBD0002D83
:101EA000F9D094F8500001282CD04FF0010A84F8A2
:101EB00050A094F85100042802D0052084F8510065
:101EC0004FF00008C4F85480C4F838B0E587A587FF
:101ED00002992163E586A586C4F84080C4F8448051
:101EE00020680168490603D4016841F0400101609F
:101EF000E068B0F5006F606808D0F0B3012D49D0FC
:101F000081E0FFE7022005B0BDE8F08F08B1012DA8
:101F100039D1206B21680088C860206B801C206349
:101F2000E08E401EE0862EE02068816889070FD58C
:101F3000E18E69B1B9F1010F0AD1216B0988C16045
:101F4000206B801C2063E08E401EE0864FF000096D
:101F500020688168C9070CD0E18F51B1C068A16BBE
:101F60000880A06B801CA063E08F401EE0874FF0CC
:101F70000109FFF705FAC01B01E00BE067E0B04282
:101F800001D3701C50D1E08E0028CDD1E08F002805
:101F9000CAD13EE0206B216800780873206B401C9A
:101FA0002063E08E401EE0862DE02068816889076E
:101FB0000FD5E18E69B1B9F1010F0AD1216B097812
:101FC0000173206B401C2063E08E401EE0864FF0C2
:101FD000000920688168C9070CD0E18F51B1C06841
:101FE000A16B0870A06B401CA063E08F401EE087CF
:101FF0004FF00109FFF7C4F9C01BB04202D3701CB7
:1020000001D011E086B1E08E0028CED1E08F00280B
:10201000CBD13A463146204601F0B6FB50B12020E4
:10202000606584F8508012E084F851A084F85080F4
:10203000032068E7A06818B92068C168806800902C
:1020400084F851A084F85080606D0028F1D0012000
:1020500059E710B5401EB0F1807F01D3012010BDBB
:102060004FF0E02460610F21601701F030FE002086
:10207000A06107202061002010BD7047704700005C
:1020800070B590F83C20012A26D0012480F83C400D
:10209000022280F83D2003685A689D6822F070068D
:1020A0000A6832435A600D4B02689A4208D0B2F176
:1020B000804F05D00A4B9A4202D00A4B9A4204D173
:1020C000496825F080031943916080F83D40002164
:1020D00080F83C10084670BD022070BD002C014005
:1020E000000400400008004010B5040003D094F83C
:1020F0003D0010B107E0012010BD002084F83C0035
:10210000204600F01FF8022084F83D00211D2068C1
:1021100001F0FCFB012084F8460084F83E0084F8BE
:102120003F0084F8400084F8410084F8420084F8BD
:10213000430084F8440084F8450084F83D00002002
:1021400010BD000000B585B0002100910191029101
:102150000391264A0168264891420ED1816941F4D3
:10216000006181618069002200F4006004901146E2
:102170001920FFF771F9192013E0B1F1804F14D045
:102180001C4A91420FD1C16941F00201C161C0698D
:10219000002200F00200049001211D20FFF75CF9ED
:1021A0001D20FFF74BF905B000BDC16941F00101E9
:1021B000C161C16901F001010491816941F004012B
:1021C00081618069694600F0040004904FF400408A
:1021D00000900948FEF7DAFF0848416821F4407191
:1021E00041F0E06141F480714160DCE7002C014086
:1021F00000100240000400400008014000000140BF
:1022000090F83D10012901D001207047022180F88B
:102210003D100168CA6842F00102CA6000680B49BB
:10222000884208D0B0F1804F05D00949884202D0D9
:102230000849884204D1816801F00701062903D0CA
:10224000016841F00101016000207047002C01404D
:10225000000400400008004070B5044690F83C00BF
:102260000025012817D0012684F83C60022084F85C
:102270003D002068826822F0770222F47F4282606B
:102280000868502838D00DDC20284FD005DC90B3EA
:10229000102811D14AE0022070BD302846D04028D5
:1022A0000AD13BE060282FD070280DD0B0F5805FB8
:1022B00003D0B0F5005F12D0012584F83D60002006
:1022C00084F83C00284670BDCB68D1E90121206824
:1022D00001F058FB2068816841F0770109E0CB6884
:1022E000D1E90121206801F04DFB2068816841F4AB
:1022F00080418160E1E719E0CA684968206801F01F
:1023000053FB5021206806E0CA684968206801F044
:1023100089FB6021206801F03FFBCEE7CA6849686D
:10232000206801F041FB40212068F4E72268014663
:102330001046F0E770472DE9F041054690F83C0063
:1023400000260C46012810D0012085F83C0072B10F
:10235000042A1CD0082A2CD00C2A50D00126002098
:1023600085F83C003046BDE8F0810220FBE7D4E967
:102370000012E368286801F029FB2868816921F0D0
:102380000C01816128688169A26811430FE0D4E9DA
:102390000012E368286801F057FB2868816921F47E
:1023A0004061816128688169A26841EA02218161F6
:1023B000D5E72868D4E9002C277B036A016A21F459
:1023C00080710162C16923F4007321F0030141EAC5
:1023D0000C0121F0F00C39074FF400774CEA116141
:1023E00007EA02221A43C16102622868C16921F02A
:1023F0000C01C1612868C169A26811432BE02868FB
:10240000D4E90021E768036AD0F820C02CF4805C8E
:10241000C0F820C0D0F81CC023F400532CF4407C3A
:102420004CEA012121F4704C4FF6FF7101EA0731AB
:102430004FF4005741EA0C0107EA02321A43C16126
:1024400002622868C16921F44061C1612868C169DC
:10245000A26841EA0221C16181E710B5040003D0FE
:1024600094F83D0010B107E0012010BD002084F871
:102470003C00204600F01EF8022084F83D00211D9B
:10248000206801F043FA012084F8460084F83E00F9
:1024900084F83F0084F8400084F8410084F842004A
:1024A00084F8430084F8440084F8450084F83D0033
:1024B000002010BD70472DE9F04104460068C66851
:1024C00005694FF00007A90713D5B10711D5F91E0B
:1024D000016101202077206880698007204602D0B2
:1024E000FFF728FF04E000F07EF8204600F07CF8BB
:1024F0002777680716D5700714D521686FF0040098
:102500000861022020772068806910F4407F20460F
:1025100002D0FFF70FFF04E000F065F8204600F05E
:1025200063F82777280715D5300713D521686FF092
:1025300008000861042020772068C06980072046D1
:1025400002D0FFF7F7FE04E000F04DF8204600F05F
:102550004BF82777E80616D5F00614D521686FF0FA
:1025600010000861082020772068C06910F4407FBF
:10257000204602D0FFF7DEFE04E000F034F82046EB
:1025800000F032F82777E80708D0F00706D0216876
:102590006FF001000861204600F028F8280608D5F1
:1025A000300606D521686FF0800008612046FFF7ED
:1025B00064FD680608D5700606D521686FF04000F6
:1025C0000861204600F040F8A8060AD5B00608D5F4
:1025D00021686FF0200008612046BDE8F041FFF758
:1025E0004DBDBDE8F08170477047000070B50546ED
:1025F00000681149114C884216D1606A401C606223
:102600002089401C20816089401C60812078401C0A
:10261000C0B22070022807D3FEF70EF90146002051
:102620002070074800F0FCFF06492868884202D164
:10263000A06A401CA06270BD002C01400000002078
:1026400040020020000400407047704770470000BF
:10265000F8B5016804460868CA684B6910F00F0FA6
:102660004FF0000559D003F0010602F4907737438C
:1026700065D0C10705D0D10503D5616C41F00101DA
:102680006164410705D5D90703D0616C41F00201AF
:102690006164810705D5D90703D0616C41F004015D
:1026A0006164010707D502F02001314303D0616C5A
:1026B00041F008016164616C00293AD0800604D5BC
:1026C000900602D5204601F009FA20684069616C45
:1026D000C0F38010090700D460B3204601F0D7F999
:1026E00020684069400621D52068143050E8001F5A
:1026F00021F0400140E80012002AF5D1E06BA8B1BA
:102700006D494163E06BFEF705FB002811D0E06BDB
:10271000416B01B0BDE8F040084783060FD5930632
:102720000DD52046BDE8F84001F0D8B92046FFF7A6
:102730008DFFF8BD2046FFF789FF6564F8BD266B65
:102740002023012E7CD1C6067AD5D60678D5086816
:102750004868009048694FF00206400640D5E16B9A
:10276000086840680004000CE8D0A28D8242E5D9D8
:10277000E085886920282DD020680C3050E8001FA3
:1027800021F4807140E80012002AF5D1206814304D
:1027900050E8001F21F0010140E80012002AF5D1A5
:1027A0002068143050E8001F21F0400140E800127A
:1027B000002AF5D184F84230256320680C3050E8B7
:1027C000001F21F0100140E80012002AF5D1E06B53
:1027D000FEF77CFA6663A08DE18D401A81B22AE093
:1027E000A08DE18D401A81B2E08D0028A6D000298D
:1027F000A4D022680C3252E8000F20F4907042E816
:102800000007002FF5D12068143050E8002F22F087
:10281000010240E80027002FF5D184F842302563FB
:1028200020680C3050E8002F22F0100240E800230E
:10283000002BF5D166632046FFF707FFF8BDFFE7E1
:1028400005062BD5150629D594F841002128F5D188
:10285000A068B0F5805F01D12069B0B1206A411C49
:102860002162216800784860E08C401E0004000C62
:10287000E084E3D12068C16821F08001C160206854
:10288000C16841F04001C160D8E7206A0088C0F308
:1028900008004860206A801C2062E5E74006CDD52C
:1028A0005006CBD5CA68204622F04002CA6084F8A0
:1028B000413000F08EF8C1E77F3A000870B504009F
:1028C00004D094F84100002510B106E0012070BD4D
:1028D00084F84050204600F023F8242084F841007A
:1028E0002068C16821F40051C160204601F058F908
:1028F0002068016921F4904101612068416921F05B
:102900002A0141612068C16841F40051C1606564D9
:10291000202084F8410084F842006563002070BDE7
:1029200070B586B000250646009501950295039581
:102930000068224988423FD12149886940F480409B
:102940008861886900F480400490886940F0040040
:10295000886188691B4C00F00400049048150090C1
:10296000022001900320039069462046FEF70EFCEA
:102970002015CDE90005694620460295FEF706FCC4
:10298000124C114820601020C4E901058020C4E9E0
:1029900003056561A5612046E561FEF7B1FA08B15E
:1029A000FDF777FEB4630022114625206662FEF72C
:1029B00053FD2520FEF742FD06B070BD00380140F2
:1029C000001002400008014044000240680400205A
:1029D0007047704710B5104CA37810484FF4006151
:1029E00063B1012B0CD00022022B0ED0032B04D19B
:1029F0006089B0F5FA6F00D3A27010BD002200E02C
:102A00000122BDE81040FEF7B6BC62810122FEF74C
:102A1000B2FC0320A07010BD00000020000801409F
:102A200070B5234890F8D600224C002590B9258334
:102A3000214E6583A583002220213046FEF79BFCB2
:102A4000002240213046FEF796FC002280213046CD
:102A5000FEF791FC60784FF46161042812D00DDC20
:102A60004FF0FF06A0B1012815D0022816D0032888
:102A70000DD1258100F094FD042017E0052811D028
:102A8000062804D12089884201D32581657070BD54
:102A900000F074FD04E000F083FD01E000F090FD23
:102AA000667070BD258100F08BFD0620607070BDE2
:102AB0004002002000000020000C01402DE9F04100
:102AC000594C2079002871D00026267160790128A0
:102AD0006CD002286AD055490522A1F1340000F0DB
:102AE0009AF9524DE07029786878AA78EB78084412
:102AF0001A441044C0B2AA297CD12979814279D1E3
:102B000003206070FDF798FE05F10C01E06291F87A
:102B1000D620002A79D051F8E02F44F62063821A9B
:102B2000B2FBF3F703FB172222630968401AB0FBDC
:102B3000F3F060636878642148436082A878642376
:102B40004843A082E978594341F60B23E1829A4237
:102B500003D944F638239A4203D9228B521C22838C
:102B60000AE043F215439A4203D8A28B521CA28377
:102B700002E0628B521C6283238B628B02252C4FF6
:102B800093420AD9B4F81CC0634506D9012220211A
:102B90003846FEF7F0FB00222DE09A4207D9B4F840
:102BA0001CC0624503D9884236D808E032E0B4F848
:102BB0001CC09C450FD994450DD988422CD90022C0
:102BC00020213846FEF7D7FB002240213846FEF789
:102BD000D2FB012214E0002220213846FEF7CBFB75
:102BE000002240213846FEF7C6FB002280213846ED
:102BF000FEF7C1FB09E040213846FEF7BCFB00228E
:102C000080213846FEF7B7FBA57008485C38C665DA
:102C100006664666BDE8F081002220213846FEF7B0
:102C2000AAFB0122E7E70000000000203402002098
:102C3000000C0140FEE770B50446002100F06DF87D
:102C40000A20FEF7C3F90121204600F0A9F8054645
:102C50000A20FEF7BBF945F080020121204600F072
:102C6000E4F96420FEF7B2F92046216A00F04CF93D
:102C700094F82A10204600F09BF994F82B10204677
:102C800000F077F923220C21204600F0CEF92046EF
:102C900000F0B8F994F82410204600F093F9FF22D0
:102CA0001F21204600F0C1F994F8250094F8261061
:102CB000000100EB4100C2B21D21204600F0B5F931
:102CC000204600F0FBF8208D2021020A204600F06B
:102CD000ACF994F828202121204600F0A6F94021E3
:102CE000204600F05DF840F03F024021204600F011
:102CF0009CF90121204600F010F80120E0610A2033
:102D0000FEF764F94221204600F04AF8122802D06A
:102D10004FF4CA7070BDC82070BD70B50C46054632
:102D2000012100F03DF8024664B1012C0FD0032CC4
:102D300013D0052C17D0062C1BD0022C1FD0042C2E
:102D400023D027E0002002F0F802E86122E0012011
:102D500002F0F802521CE8611CE0032002F0F802C5
:102D6000D21CE86116E0052002F0F802521DE8616D
:102D700010E0062002F0F802921DE8610AE002204D
:102D800002F0F802921CE86104E0042002F0F8026C
:102D9000121DE8612846BDE87040012100F045B9E8
:102DA0000EB501F07F018DF8081001210A4600914F
:102DB00001AB02A900F003F89DF804000EBD2DE957
:102DC000F0470E461546044681889846DDF8209067
:102DD00000680022FEF7CFFA4FF4FA673B462A4616
:102DE0003146A069FEF78AFFA069FEF749FE012877
:102DF000FAD13B464A464146A069FEF7D5FEA06996
:102E0000FEF73EFE0128FAD1A1882068BDE8F04710
:102E10000122FEF7B0BA2DE9F04100250E46074623
:102E200014462846294601E03154401CA042FBDBF1
:102E300001213846FFF771FF12213846FFF7B0FF36
:102E400040061FD5FF221221384600F0EEF813216C
:102E50003846FFF7A5FF054610213846FFF7A0FFCB
:102E600002460D21384600F0E0F8AC4200D225467B
:102E7000002405E000213846FFF792FF3055641C1E
:102E8000AC42F7DB05213846FFF747FF2846BDE88F
:102E9000F08110B50446818980680022FEF76BFA44
:102EA0000220FEF793F8A1890122A068FEF763FAD9
:102EB000BDE810406420FEF789B8000010B594B05A
:102EC000044650220F496846FDF7BDF994F82410D6
:102ED0000120884001F095FA94F825206B4603EB19
:102EE000C203D3E9002301F005F901F05BFA1028D1
:102EF00001DD012100E00021204600F025F814B09A
:102F000010BD0000304B000870B50546C8044411E0
:102F1000C4F307420621284600F087F80520FEF793
:102F200055F8C4F307220721284600F07EF8052053
:102F3000FEF74CF8E2B20821284600F076F8BDE82A
:102F400070400520FEF742B870B50C4605462621B4
:102F5000FFF726FF14B140F0080201E000F0F7028D
:102F60002621284600F061F8BDE870400A20FEF7EF
:102F70002DB810B52D2901D22D2105E0F02901D958
:102F8000F02106E0782904D805222D3991FBF2F1D1
:102F900003E00A221E31B1FBF2F1C9B22031CAB2FC
:102FA0000B2100F042F8BDE810400A20FEF70EB8F1
:102FB00010B50A46092100F038F8BDE810400A2093
:102FC000FEF704B870B50C4606460C2901DD0C244A
:102FD00002E0072C00DA07241E21FFF7E1FE054678
:102FE0000A20FDF7F3FF64F31F15EAB21E213046F5
:102FF00000F01BF80A20FDF7E9FF3046BDE87040FD
:10300000FFF75CBF10B504461E21FFF7C9FE40F074
:1030100007021E21204600F008F8BDE810400A20F3
:10302000FDF7D4BF0521FFF778BE0EB541F0800152
:103030008DF8081001218DF804200A46009101AB9B
:1030400002A900F001F80EBD2DE9F0470E46154625
:10305000044681889846DDF8209000680022FEF73B
:103060008AF94FF4FA673B462A463146A069FEF7D3
:1030700045FEA069FEF704FD0128FAD13B464A4609
:103080004146A069FEF73AFEA069FEF7F9FC012867
:10309000FAD1A1882068BDE8F0470122FEF76BB99C
:1030A00070B5314C2F492046FDF7A1FB2D48008813
:1030B000A0F52C41CA3953D02046FDF777FB3220CA
:1030C000FDF784FF29480168426883682046FDF7C0
:1030D000ACFB274D4FF40054002221462846FEF752
:1030E0004AF9012221462846FEF745F96420FDF7FA
:1030F0006DFF002221462846FEF73DF94FF4FA768F
:103100003046FDF763FF012221462846FEF733F9DA
:103110006420FDF75BFF002221462846FEF72BF9CD
:103120003046FDF753FF012221462846FEF723F9DA
:103130006420FDF74BFF002221462846FEF71BF9CD
:103140003046FDF743FFBFF34F8F0A4801680A4A34
:1031500001F4E06111430160BFF34F8F00BFFDE751
:1031600070BD0000AC04002000FC00083C00002002
:10317000001001400CED00E00400FA0581610E49E9
:10318000012302C0102120F8041B0C4902C0038057
:103190004160022101810C214261017607214176C3
:1031A0008376FF2181777821C1770A2181830021ED
:1031B000016241627047000000080140000C0140BC
:1031C0000023C0F8C83080F8CC30A0F8CE201A46D2
:1031D00008E000BF20F81210D0F8C830521C0B4491
:1031E000C0F8C830B0F8CE309342F3DC704710B569
:1031F00090F8CC20D0F8C83030F812401B1BC0F833
:10320000C83020F81210D0F8C8200A44C0F8C820EE
:1032100090F8CC10491CCBB280F8CC30B0F8CE106E
:103220008B4202D3002380F8CC30B2FBF1F080B2A5
:1032300010BD0000FEB50024174800940194154904
:1032400002940160891581600125057304750226C9
:1032500006614FF460214460C161FDF7DDFB08B1F8
:1032600072B6FEE705200094CDE9015069460A4890
:10327000FDF750FB08B172B6FEE707200095CDE9D7
:10328000016069460448FDF745FB002801D072B68D
:10329000FEE7FEBD00240140580000202DE9F04764
:1032A00086B00025464800950195029503958169F1
:1032B00041F010018161816901F01001049181697F
:1032C00041F020018161816901F02001049181694F
:1032D00041F004018161816901F004010491816977
:1032E00041F0080181618069DFF8D88000F00800B2
:1032F0004FF400540490002221464046FEF73BF86C
:10330000DFF8C4904FF40167002239464846FEF7C3
:1033100032F8DFF8B8A0002240F2E1315046FEF763
:103320002AF80126CDE900460224CDE90254694677
:103330004046FDF72BFFCDE90254CDE90076694602
:103340004846FDF723FF40F20130CDE90006CDE904
:10335000025469465046FDF719FF1D4F6946CDE9F5
:10336000004750460294FDF711FFA0038DE861006D
:1033700069465046FDF70AFFE001CDE900076946BE
:1033800002954846FDF702FFE0200090CDE9016478
:10339000694650460394FDF7F9FE002211460720C6
:1033A000FEF75AF80720FEF749F8002202211720FD
:1033B000FEF752F81720FEF741F806B0BDE8F08797
:1033C000001002400010014000080140000C0140C4
:1033D000000011100F4810B50D4901604FF48271C3
:1033E000416000218160C1604FF400720161C0E959
:1033F00005120822C0E90721416281620A21C162E7
:10340000FEF741FB002801D072B6FEE710BD0000B8
:10341000003001408800002010B586B00024174815
:103420000094019402940394049413490594016058
:103430004721C0E901143121C0E903148021C0E90A
:103440000541FEF751FE08B172B6FEE74FF4805019
:10345000009069460948FEF7FFFE08B172B6FEE724
:10346000049404A905480594FEF70AFE002801D03B
:1034700072B6FEE706B010BD002C0140E00000204F
:1034800010B58AB00024214804940594069407944A
:10349000089409940094019402944FF0804103949D
:1034A000C0E900144FF6FF71C0E902410461846174
:1034B000FEF71AFE08B172B6FEE74FF48050049092
:1034C00004A91248FEF7C8FE08B172B6FEE70F481D
:1034D000FEF7C3FF08B172B6FEE7089408A90B48CF
:1034E0000994FEF7CDFD08B172B6FEE70120CDE9E3
:1034F000004002940022694604480394FEF71BFF33
:10350000002801D072B6FEE70AB010BD28010020E5
:1035100010B586B0002417480094019402940394D7
:1035200004941349059401604721C0E901144FF642
:10353000FF71C0E903148461FEF7D6FD08B172B6CD
:10354000FEE74FF48050009069460A48FEF784FE7B
:1035500008B172B6FEE7049404A906480594FEF784
:103560008FFD002801D072B6FEE706B010BD000046
:103570000004004070010020FEE7FEE710B5074C94
:1035800000224FF400712046FDF7F5FE0022A11540
:103590002046BDE81040FDF7EEBE0000000C0140E3
:1035A00010B5064C012251022046FDF7E4FE002230
:1035B000A1152046BDE81040FDF7DDBE000C01401E
:1035C00010B5074C00224FF400712046FDF7D3FEE2
:1035D00020460122BDE810401102FDF7CCBE0000DC
:1035E000000C0140704730B50446002544F8D01B5C
:1035F0001346A28025816581A58125616561A5614C
:10360000A57104F81C5FA4F1E80005221946EC3C02
:10361000FFF7D6FD012084F8ED00A4F8EE5030BD90
:1036200070B5044600680D460188201DFFF7DFFDD8
:10363000A4F8D80094F8D600002268B1B4F8EE00DF
:10364000401C80B2A4F8EE00B0F57A7F04D3A4F851
:10365000EE20042084F8ED0094F8ED0001280FD04E
:103660000121022831D003281BD0042816D184F868
:10367000D620A4F8DC20C4F8E020C4F8E42021E03F
:10368000B4F8D810B4F8D4006438814206DA94F85B
:10369000D600012803D0032084F8ED0070BD02207D
:1036A000FAE7B4F8D820B4F8D40064308242F5D9EF
:1036B000B4F8DC00401C80B2A4F8DC00322801D150
:1036C00084F8D61084F8ED1070BDD4F8E000B4F89A
:1036D000DA60281AB4F8D4309E4223D8B4F8D860FF
:1036E0009E421FD9D4F8E0303BB145F208239842FE
:1036F00006D9A0F59C402038F9E7C4F8E0500FE067
:10370000A0F59443383BB3F5FA6F09D8C4F8E450F8
:10371000C4F8E80084F8EC10C4F8E050A4F8EE20F7
:1037200084F8ED1034F8D80F608070BDF8B5044609
:1037300040684FF48273984217D1A0684FF48065B7
:10374000B0F5004F01D0A8420FD12068066826F0DE
:10375000400606606068984207D1A068A84204D17C
:1037600000920B460022012103E000920B4600224A
:103770008021204600F022F8002804D0606D40F03F
:10378000200060650320F8BDF8B515460E460B46CF
:10379000009204460122022100F010F840B933469D
:1037A000002280212046009500F008F8002804D06F
:1037B000606D40F0200060650320F8BD2DE9F843FE
:1037C0001E46914688460446089DFDF7D9FD401BDC
:1037D000351AFDF7D5FD074625480068C0F3CB3004
:1037E000684338E0701C37D0FDF7CAFDC01BA84203
:1037F00003D215B1009860B32CE02068416821F035
:10380000E00141606068B0F5827F0BD1A068B0F53F
:10381000004F02D0B0F5806F04D12068016821F01C
:1038200040010160A06AB0F5005F09D1206801681D
:1038300021F4005101602068016841F400510160E9
:10384000012084F85100002084F850000320BDE8D6
:10385000F8830025401E00902068816838EA010046
:1038600004D000214945BDD10020F0E70121F9E74E
:10387000540000207047FDF789BD30B593B0282172
:103880006846FCF712FD14210AA8FCF70EFD00257E
:1038900001200F9510951195010412958DE82300D4
:1038A00004904FF4E010CDE9081002240794684614
:1038B000FDF756FF08B172B6FEE70AA90F2081E8AE
:1038C00031004FF48060CDE90D0502210AA8FDF713
:1038D0006BFE08B172B6FEE74FF4004011900F94F2
:1038E0000FA8FDF7EBFD002801D072B6FEE713B07C
:1038F00030BD70470148FEF7DEBD0000E00000204B
:103900000148FEF7D8BD000070010020F0B5026844
:10391000194B1A4C1A4D4FF08047984205D0B842C7
:1039200003D0A04201D0A84203D122F070064A6819
:103930003243984205D0B84203D0A04201D0A842F9
:1039400003D122F44074CA6822434C6922F08002F9
:10395000224302608A68C2620A688262984201D188
:1039600009690163012141610169C90703D0016946
:1039700021F001010161F0BD002C01400004004074
:103980000008004010B5846842EA032224F47F4412
:103990000A432243826010BD826822F070020A430B
:1039A00042F007018160704710B5036A046A24F091
:1039B00001040462846924F0F00444EA021423F050
:1039C0000A020A438461026210BD000070B5056AF4
:1039D000046A24F00104046284690F4EB04208D0E6
:1039E000B0F1804F05D00D4EB04202D00C4EB04227
:1039F00003D124F00304144301E044F001041A0746
:103A000024F0F00444EA126225F00A0301F00A01EE
:103A100019438261016270BD002C01400004004026
:103A20000008004010B5036A046A24F01004046220
:103A3000846923F0A00324F4704444EA023243EA88
:103A400001118261016210BD30B5046A056A25F07A
:103A500010050562856925F4407545EA022222F4C5
:103A600070454FF6FF7202EA033224F0A0032A43A6
:103A7000A02404EA011119438261016230BD10B52E
:103A8000406A0021C185C184FEF7E0FD10BD0168D8
:103A90000C3151E8002F22F4907241E80023002BF2
:103AA000F5D10168143151E8002F22F0010241E8FC
:103AB0000023002BF5D1016B012909D101680C31DC
:103AC00051E8002F22F0100241E80023002BF5D12D
:103AD000202180F8421000210163704708B590F85A
:103AE0004210222901D0022008BD82684FF4805381
:103AF0009A4201D1016921B1816A9A421BD04AB12F
:103B00000AE00268816A5268C2F308020A80816A88
:103B1000891C08E0026972B10268526802F07F02F3
:103B20000A70816A491C8162C18D491E0904090C11
:103B3000C18503D01BE002685268F1E70168CA68DA
:103B400022F02002CA600168CA6822F48072CA604A
:103B500001684A6922F001024A61202180F842107E
:103B600000214163026B012A03D0FEF731FF0020E0
:103B700008BD016301680C3151E8002F22F01002EA
:103B800041E80023002BF5D101680A68D20602D56E
:103B90000A6849680091818DFEF757FDE7E700004C
:103BA00070B5044600680169E26821F44051114390
:103BB00001612169A0680843616908432168CA68F6
:103BC00041F20C639A430243CA6020684169A269CA
:103BD00021F44071114341611E492068884202D19D
:103BE000FDF788FD01E0FDF775FD00EBC00101EB7D
:103BF0000012606864218000B2FBF0F3B3FBF1F3C4
:103C00006FF018067343B2FBF0F5B2FBF0F605EB6C
:103C10008305322303EB0515B5FBF1F5B6FBF1F691
:103C200005F0F00505EB0615B2FBF0F6B2FBF0F07F
:103C3000B0FBF1F06FF01802504306EB800003EB8D
:103C40000010B0FBF1F0216800F00F0028448860FC
:103C500070BD0000003801400148FEF7F9BC0000CB
:103C6000B8010020FEB5174D174E4E24286800906D
:103C700068680190A86802903046FCF797FD012023
:103C8000FDF7A4F929686A68AB683046FCF7CDFDFA
:103C90000120FDF79BF929463046FCF7A8FD0120DD
:103CA000FDF794F90C2269462846FCF7A0FA38B1D2
:103CB0003046FCF77BFD0A20FDF788F92046FEBD63
:103CC0005924FBE7AC04002000FC0008FEE70907CC
:103CD000090E002804DB00F1E02080F80014704792
:103CE00000F00F0000F1E02080F8141D7047000084
:103CF00008B5FDF753FBFFF7C0FDFFF7CFFA954876
:103D0000416941F0010141614069002200F0010078
:103D1000009011460B20FDF79FFB0B20FDF78EFB5B
:103D2000002211460E20FDF797FB0E20FDF786FBC3
:103D3000FFF772FB894888490C220160884941607D
:103D400000218160C160C0E904128161C161FEF798
:103D5000B5FD08B172B6FEE7FFF76CFAFFF73AFB64
:103D6000FFF7D6FBFFF78CFB01227E4F560331464F
:103D70003846FDF700FBFFF713FC7B4D01222021A5
:103D80002846FDF7F8FA012240212846FDF7F3FA0C
:103D9000012280212846FDF7EEFA74494FF4647839
:103DA000424601F5BC70FFF7E9F96C484830FFF76F
:103DB00070F86A484830FEF73EFF6D4CA0811BE06A
:103DC000012231463846FDF7D6FA6849424601F5E8
:103DD000BC70FFF7D3F961484830FFF75AF85F48E5
:103DE0004830FEF728FFA081002231463846FDF713
:103DF000C2FA0F20FDF7EAF8A089C828E0D1574899
:103E00004830FFF70FF9002231463846FDF7B3FA84
:103E1000FFF7B4FBFFF744F95648554942894F482C
:103E200038318830FFF7DFFB514953483A31FCF70E
:103E3000F5FB4F494D48022238313038FCF7C0FEBF
:103E400001224E4FD60231463846FDF794FA0F2034
:103E5000FDF7BCF8002231463846FDF78CFA6420A5
:103E6000FDF7B4F8002220212846FDF784FA01224C
:103E700031463846FDF77FFA0F20FDF7A7F80022FC
:103E800031463846FDF777FA6420FDF79FF80022A7
:103E900040212846FDF76FFA012231463846FDF7EA
:103EA0006AFA0F20FDF792F8002231463846FDF7F6
:103EB00062FA6420FDF78AF8002280212846FDF787
:103EC0005AFA2A485830FEF79BF924484838FEF73A
:103ED00097F9002640F6B8374FF4004806E0761C04
:103EE000B6B2BE4202D10121A17105E04146284689
:103EF000FDF73CFA0028F2D0322618E00120FDF749
:103F000065F81D4D28680188281DFFF770F9A5F890
:103F1000E000D83500F02AFD194900F065FC194988
:103F200000F038FD184900F035FD28606860761E05
:103F300016F0FF06E2D1206A401C2062FEF7BEFDAB
:103F4000FEF76EFDFEF746FD0B48FCF7B5FAFCF7F1
:103F500083FCF0E70010024000380140B801002067
:103F600020A1070000100140000C01408800002043
:103F700000000020AC0400203003002000080140B5
:103F800000F07F4533335340CDCC9C4010B591EACF
:103F9000030F48BF83F0004300F11883841A71EBCC
:103FA000030C05D2121943EB0C03001B61EB0C014F
:103FB000DFF824E14FEA1154A4EB135C1EEA430F2F
:103FC00018BF9EEA445F73D023EA0E03DCF1200E93
:103FD00021EA045143F4801332D322FA0CFE10EB91
:103FE0000E0023FA0CFE41EB0E01CCF1200E03FA79
:103FF0000EFE10EB0E0051F10001B1F5801FCCF167
:10400000200E32D201EB045112FA0EF2BDE810403C
:1040100058BF7047401C38BF5FEA420218BF704764
:10402000002814BF20F0010041F100014FEA4103D4
:1040300013F5001F38BF7047A1F1C04100F082BAEC
:10404000012A43EB0302ACF1200CDCF11F0E32BF5E
:104050004FF0000E23FA0CF310EB030041EB045178
:10406000B4EB115FD0D0A1EB045101F580114908E8
:104070005FEA300001EB04510ED350F1000038BF6D
:1040800012FA0EFE08D1BDE81040C9E7401C38BF47
:104090005FEA4202CAD1C3E7BDE810404FEA4103DC
:1040A00013F5001F38BF7047A1F1C04100F04ABAB4
:1040B0009EEA445F08D011EA5E0FBDE8104004BFDD
:1040C00001F0004100207047BDE8104070B500F0DD
:1040D000EBF900BF64FBBE3E0000E0FF491058BF93
:1040E000C1F140415B1058BFC3F140438B42EFF335
:1040F000008070472DE9C04130B4DFF8A0C23CEA2F
:10410000111418BF3CEA131400F0EC8081EA030597
:104110001CEA111444EAD57418BF1CEA131500F008
:10412000C780A4EB05044FF0004545EAC12145EAEC
:10413000C32341EA505143EA525304F17F74994238
:1041400004F500344FEAC0204FEAC22208BF904273
:1041500000F09C804FEA13650FF24016765D4FEA3F
:10416000134506FB05F7C7F1807706FB07F74FEA13
:10417000D737A7FB03687642C8F58038A7FB06CE81
:1041800038BFA8F1010807FB08E64FF0000EA6FBB8
:10419000028CE6FB03CEDCF1000CCEF1004E38BF02
:1041A000AEF1010EA6FB0C584FF000074FF00005D2
:1041B000E6FB0E87A1FB08C6A0FB07CE16EB0E069A
:1041C00045F10005E1FB076515F1E04E7EBFA4F562
:1041D00080345FEA46066D4116F1800745F100051F
:1041E0004FEA17274FEA066647EA0567A6F1DE465B
:1041F000B6F1805F4FEA15251FD9384624F0010C2F
:1042000005EBC471BCF1FE6F01EB0C1102D8F0BCE0
:10421000BDE8008124425CBF01F5801E9EEAC47F98
:1042200002D4F0BCBDE80081244238D4F0BCA1F136
:10423000C041BDE8004100F085B94FEAD22242EA10
:1042400043524FEAD323A7FB02864FEAD02040EA2D
:10425000415007FB03661EEA0E0F4FEAD12105FB12
:10426000026658BFA6EB0056B6EB00564FEA520E58
:104270004EEAC37E18EB0E0E56EB530EBDD518EB6F
:1042800002085E417F1C55F10005B6E74FF480152A
:104290004FF000074FF000064FF00008ADE7F0BC0C
:1042A0004FF0000001F1C04101F00041BDE8008184
:1042B00011EA0C1F0CEA131500D00CE013EA0C1FD6
:1042C00000F025804FF00000F0BC81EA030101F00E
:1042D0000041BDE80081F0BCBDE8004181EA030176
:1042E00000F030B9F0BCBDE8004170B500F0DCF87A
:1042F000097EFC3E00F007B881EA03014FF00000A0
:1043000001F00041704781EA030100F01BB9F0BCE5
:10431000BDE800414FF0000021497047FFFDFBF967
:10432000F7F5F4F2F0EEEDEBE9E8E6E4E3E1E0DEE8
:10433000DDDBDAD8D7D5D4D3D1D0CFCDCCCBCAC85A
:10434000C7C6C5C4C2C1C0BFBEBDBCBBBAB9B8B781
:10435000B6B5B4B3B2B1B0AFAEADACABAAA9A8A874
:10436000A7A6A5A4A3A3A2A1A09F9F9E9D9C9C9B42
:104370009A999998979796959594939392919190ED
:104380008F8F8E8E8D8C8C8B8B8A8989888887877E
:104390008685858484838382828181800000FF07F3
:1043A0000000F87F4FEA41034FEA5353A3F58063BF
:1043B000D3F11E03C8BFD3F1210C0CDD4FF0004236
:1043C00042EAC12242EA505232FA03FC8CEAE17C12
:1043D000ACEBE1707047102BC4BF0020704703F5B1
:1043E000787CBCF1FF3F04D06FF0004282EA2100EC
:1043F000704770B500F058F849922480002070474B
:10440000F2E710F0004248BF4042B0FA80F310FAE1
:1044100003F10AD0C3F11D0303F580634FEA415055
:1044200002EB035202EBD12170474FF000007047BE
:1044300051EA030C17D41CF5801F58BFBCF5801F30
:1044400000F10680994218BF704708BF904270473C
:1044500007D711F5801F58BF13F5801F19D4994253
:104460007047894270471CF5801F08D5BCF5801F36
:10447000F7D58B4218BF704708BF824270474FF490
:10448000001C1CEB410F38BF1CEB430F01D28B42C9
:10449000704770B500F008F8922449004FF00051C1
:1044A0004FF08053FFF71ABE0EF1020E2EF0030EEE
:1044B0005EF8046B364205D4012A43EB030515F57B
:1044C000001F12D8012841EB010C1CF5001F0CD86D
:1044D0000ED14FEAD17C15F5001F0CEB4C0C0CF102
:1044E000020C08BF4CEBD37C04E04FF0080C01E059
:1044F0004FEAD37C0CEB4C0526FA05F606F00706CE
:10450000B6F1040C06D20EEB860CBDE870404CF000
:10451000010C6047DFE80CF0090B02024FF000418C
:104520004FF00000A1F5002170BD1946104601288A
:1045300051EB010418BFD4F5001484BF002001F032
:10454000004170BD0808A0F500114FEA3101704725
:1045500053EA010C17D41CF5801F58BFBCF5801F0F
:1045600000F106808B4218BF704708BF8242704737
:1045700007D713F5801F58BF11F5801F19D48B4240
:1045800070479B4270471CF5801F08D5BCF5801F03
:10459000F7D5994218BF704708BF904270474FF453
:1045A000001C1CEB430F38BF1CEB410F01D299429A
:1045B00070470FB40CBC03BCFFF76BBF10B591EA9A
:1045C000030F48BF83F000433FF5E8AC841A71EB5A
:1045D000030C07D212198CF0004C43EB0C03001BA8
:1045E00061EB0C01DFF8A4E14FEA1154A4EB135C7A
:1045F0001EEA430F18BF9EEA445F00F0B08023EA32
:104600006E03524221EA0451C3EB6E0338BF5B1EB6
:10461000DCF1200E25D322FA0CFE10EB0E0043FA3B
:104620000CFE41EB0E01CCF1200E03FA0EFE10EB56
:104630000E0051F10001CCF1200E29D412FA0EF235
:1046400001EB0451BDE8104058BF7047401C1CBF2F
:10465000B2F1004F704700280CBF491C20F0010048
:10466000704712EB020E43EB030218BF4FF0010E2E
:104670004EEA4202ACF1200CDCF11E0E54D943FA92
:104680000CFE10EB0E0051F1FF31CCF11E0ED5D512
:104690000EF1010E12FA0EFE404141EB010101EB59
:1046A000445C5FEA5C5C10D910EBDE7001EB0451F6
:1046B00038BFBEF1004FBDE8104018BF704700285A
:1046C0000CBF491C20F00100704730D24FEAD42CB7
:1046D00011F5001124F400641BD0B1FA81F20B3AF9
:1046E000A41AA41ED2F12003914030FA03F3194317
:1046F000904001EBCC71002C01EB0451BDE810405F
:10470000A8BF704701F1C0414FF0000001F0004127
:104710007047B0FA80F310FA03F100D110BDE41A2B
:10472000173C4805C90AE4E701EB045110BD4910E4
:1047300001EB0451BDE810404FEA300002E04FF0B9
:10474000000170474A0008BF0042F8D0B2F5001FD0
:1047500028BF704701F000414FF0000070479EEA0B
:10476000445F07D011EA5E0FBDE8104004BF00218E
:1047700000207047BDE8104070B5FFF795FE00BF00
:1047800040DFF63E83F00041104670470000E0FF36
:1047900043004FEAD30C4FEA3C0C43401FBF400795
:1047A0000CF1605113F0FE4F70471CF0006F03D105
:1047B00000200CF0004170470CF0004343EA5070B9
:1047C00010B540EACC0000F066F900BF000000928E
:1047D0004FEA0001FFF7B6BE4FF000414FF0000076
:1047E000A1F50021704700004FF47F0C1CEAD012A5
:1047F0001EBF1CEAD11392EA0C0F93EA0C0F00F0D3
:10480000858090EA010F48BF42F4807240F4000CAA
:1048100041F400002CF07F4120F07F4000B5814240
:10482000A2EB03020FF2081CACEB504EC0F10000EB
:104830009EF800E04FEA4E0E00FB0EFC38BF490028
:104840004FEA2C1C02F5FA020CFB0EF34FEACE1EC7
:104850004FEA112C4FEAC1210EEB635E42EB22427C
:104860000EFB0CFC4FEA1C5300FB03114FEA112C0A
:104870004FEA01310EFB0CFC4FEADC4C00FB0C1143
:10488000C14228BF09184CEB03335DF804EB10EB71
:10489000410143EBC250B2F57C0F38BF704729D5B8
:1048A00012F0F00F1CBF00F1C04000F00040704754
:1048B000008182838485868788898B8C8D8E8F91F9
:1048C0009293959697999A9C9D9FA0A2A3A5A7A81D
:1048D000AAACAEB0B2B3B5B7B9BCBEC0C2C5C7C949
:1048E000CCCED1D4D7D9DCDFE2E6E9ECF0F3F7FAAD
:1048F000FE0000004FEA400C0CF1807CBCF17E4FC2
:1049000028BF7047B0F1C04000F00BB990EA010F2A
:104910000CEAD11348BF42F48072624538BF634548
:1049200007D213F47F0F16D080EA010000F0004098
:10493000704710B500F0AFF8097EFC3E00F005B8F6
:1049400080EA010000F00040704780EA010000F0BA
:10495000004000F0E6B812F47F0F04BF0248704731
:1049600080EA010000F0DDB80000C07FB0FA80F3FB
:1049700010FA03F2C3F19D030AD0D90501EB12200E
:10498000530638BF704700F1010008BF20F0010056
:10499000704700004FF47F0C1CEAD0121EBF1CEAC7
:1049A000D11392EA0C0F93EA0C0F00F0478090EAC3
:1049B000010F48BF42F480724FF0004C4CEA0020D7
:1049C0004CEA012102EB0302A0FB0113A2F5000255
:1049D000002918BF43F001035B0028BF4FEA3303EF
:1049E00042EB22425FEA132C4CEBC2502EBFBCEBD1
:1049F000436FB2F57C0F70474FEA036CBCF1004F78
:104A000008BF20F00100B2F57C0F38BF70470BD50E
:104A100082F0FF0212F5803FC8BF704700F1C0402E
:104A2000D8BF00F00040704700F5000C5FEA4C0C66
:104A300048BF7047B0F1C04000F073B890EA010F72
:104A40000CEAD11348BF42F48072624538BF634517
:104A500004D280EA010000F00040704710B500F079
:104A60001AF800BF8900013E00F007B800F009B84D
:104A70005FEA410C5FEA1C6C08D080EA010000F09C
:104A800050B85FEA400C5FEA1C6CF6D14FF0004072
:104A9000A0F5800070470EF1020E2EF0030E5EF8B6
:104AA000044B244204D44FEA4102B2F17F4F11D8A3
:104AB0004FEA4003B3F17F4F0CD80ED14FEAD07CC0
:104AC000B2F17F4F0CEB4C0C0CF1020C08BF4CEB1D
:104AD000D17C04E04FF0080C01E04FEAD17C0CEBF4
:104AE0004C0324FA03F404F00704B4F1040C06D2D6
:104AF0000EEB840CBDE810404CF0010C6047DFE881
:104B00000CF0070802024FF00040A0F5800010BD35
:104B10000846420018BFD2F1807288BF00F0004002
:104B200010BDFF2141EAD050C005704700000000D1
:104B30003333333333331F40CDCCCCCCCCCC2440B7
:104B40003333333333332F40CDCCCCCCCCCC344087
:104B50000000000000403F409A99999999D944403B
:104B60000000000000404F400000000000405F4097
:104B70000000000000406F400000000000407F4047
:104B8000010202030405060708090A0B0C0D0E0FAB
:104B900010100000000000000000010203040607DE
:104BA000080900000000010203040000CC4B0008CB
:104BB000000000205800000028010008244C0008D4
:104BC00058000020E00A00004401000800FF000037
:104BD0000000000000000000FA00000000000000DB
:104BE00000000000000000000000000000000000C5
:104BF00000000000000000000000000000000000B5
:104C00000000000000000000CAAC0000D007D00780
:104C1000D007D007010000001000000000000000D5
:044C200000127A0004
:04000005080000ED02
:00000001FF
