:020000040800F2
:10000000E8090020890100087F3000083D2700082A
:100010007D300008B90400086936000800000000BF
:100020000000000000000000000000003D33000858
:10003000FF04000800000000E93000083F3300081A
:10004000A3010008A3010008A3010008A301000800
:10005000A3010008A3010008A3010008010500088E
:10006000A3010008A3010008A3010008BD040008C3
:10007000A3010008A3010008C9040008A3010008A7
:10008000A3010008A3010008A3010008A3010008C0
:10009000A3010008A3010008A3010008A3010008B0
:1000A000A3010008BD330008A3010008A301000854
:1000B000A3010008C9330008A3010008A301000838
:1000C000A3010008A3010008A3010008A301000880
:1000D000A3010008A3010008A3010008A301000870
:1000E000A3010008A3010008A301000800F002F822
:1000F00000F03AF80AA090E8000C82448344AAF188
:100100000107DA4501D100F02FF8AFF2090EBAE885
:100110000F0013F0010F18BFFB1A43F0010318473B
:100120005C3C00007C3C0000103A24BF78C878C1D9
:10013000FAD8520724BF30C830C144BF04680C60ED
:10014000704700000023002400250026103A28BF35
:1001500078C1FBD8520728BF30C148BF0B60704739
:100160001FB51FBD10B510BD00F0C9F81146FFF74F
:10017000F7FF03F08BFA00F0E7F803B4FFF7F2FFA4
:1001800003BC00F0EFF80000094880470948004729
:10019000FEE7FEE7FEE7FEE7FEE7FEE7FEE7FEE737
:1001A000FEE7FEE704480549054A064B7047000094
:1001B000BB330008ED000008E8030020E809002038
:1001C000E8050020E8050020B2F120030AD5C2F1BD
:1001D000200320FA02F001FA03F321FA02F140EAC7
:1001E0000300704721FA03F04FF00001704740EA26
:1001F000010310B59B070FD1042A0DD310C808C9FD
:10020000121F9C42F8D020BA19BA884201D90120A5
:1002100010BD4FF0FF3010BD1AB1D30703D0521CF0
:1002200007E0002010BD10F8013B11F8014B1B1B2B
:1002300007D110F8013B11F8014B1B1B01D1921E95
:10024000F1D1184610BD10B5203AC0F00B80B1E8CE
:100250001850203AA0E81850B1E81850A0E81850FB
:10026000BFF4F5AF5FEA027C24BFB1E81850A0E804
:10027000185044BF18C918C0BDE810405FEA827C1E
:1002800024BF51F8043B40F8043B08BF7047D20735
:1002900028BF31F8023B48BF11F8012B28BF20F8D6
:1002A000023B48BF00F8012B70474FF0000200B539
:1002B000134694469646203922BFA0E80C50A0E889
:1002C0000C50B1F12001BFF4F7AF090728BFA0E837
:1002D0000C5048BF0CC05DF804EB890028BF40F803
:1002E000042B08BF704748BF20F8022B11F0804F45
:1002F00018BF00F8012B704770477047704775466C
:1003000000F02CF8AE4605006946534620F0070081
:10031000854618B020B5FFF745FFBDE820404FF0F7
:1003200000064FF000074FF000084FF0000B21F0DF
:100330000701AC46ACE8C009ACE8C009ACE8C009AC
:10034000ACE8C0098D46704710B50446AFF3008095
:100350002046BDE81040FFF710BF0000004870477E
:100360008803002001491820ABBEFEE726000200EA
:100370007047000070B5044600688168C943C9072A
:1003800017D1816821F00101816000F0D7FE054698
:100390000AE000BF00F0D2FE401B022804D920680A
:1003A0008068C043C00706D020688068C043C0078B
:1003B000F0D0002070BDA06A40F01000A062E06A9A
:1003C00040F00100E062012070BD10B50146406AB6
:1003D000826A12F0500F05D0006A026BBDE810402F
:1003E00008461047816A41F400718162016889689A
:1003F000C1F3424107290CD1017B51B9816A21F433
:1004000080718162816AC90403D4816A41F001016B
:10041000816200F04FFA10BD10B5406A816A41F068
:1004200040018162C16A41F00401C16200F044FAF6
:1004300010BD10B5406A00F03EFA10BDF8B50026B8
:100440000446009600688168C943C9072DD08168B9
:1004500041F001018160164816490068B0FBF1F0D7
:1004600000E0401E00900028FBD100F067FE05462A
:1004700016E000BF00F062FE401B022810D9206881
:100480008068C043C0070BD0A06A40F01000A06293
:10049000E06A40F00100E06284F824600120F8BDC9
:1004A00020688068C043C007E4D10020F8BD000088
:1004B0004C00002040420F00FEE70000014800F021
:1004C00059BB0000E0020020014800F053BB0000CF
:1004D0002403002030B590F840500124AC40C56B97
:1004E0006C60046863604368102B036803D09960F4
:1004F0000068C26030BD9A600068C16030BD70475E
:10050000022000F00DBD72B6FEE700000649002093
:10051000C8610648016941F004010161016941F0C7
:100520004001016170470000680300200020024084
:10053000064A0021D16106490A6942F002020A61B5
:100540004861086940F04000086170476803002076
:1005500000200240044B0022DA61044A136943F090
:1005600001031361018070476803002000200240EE
:1005700014480022C168CB06134904D5CA6942F069
:100580000202CA611022C3685B0705D5CB6943F03C
:100590000103CB6142F00402C369DB0707D0CB69DA
:1005A00043F00403CB61C16921F00101C161A2F5EF
:1005B0008071013901D0C2607047C16921F0010129
:1005C000C1617047002002406803002070B50546F5
:1005D00000F0B4FD0646114C09E0681C07D025B1B7
:1005E00000F0ACFD801BA84201D9032070BDE0687B
:1005F000C007F2D1E068800601D52020E060E06805
:10060000C00605D4E069C00702D1E068400703D501
:10061000FFF7AEFF012070BD002070BD002002403A
:1006200010B586B0044600F065FC0120CDE902401B
:1006300001900020009004A9684600F0BDFB00F086
:100640000FFC06B010BD10B50023521C05E030F8B9
:1006500013405B1C21F8024BDBB2B3EB520FF6D315
:1006600010BD0C22FFF7EFBF2DE9F04116460746FB
:100670000D4600F03FFC0024761C09E02A8807EBB9
:1006800044010023012000F0F5FB641CE4B2AD1C22
:10069000B4EB560FF2D3BDE8F04100F0E1BB1FB55B
:1006A0000C2201A9FFF7E0FF1FBD000010B50549AE
:1006B000054C486A22684B6A9842FAD102EB004026
:1006C00010BD00000C000020240400402DE9F0477C
:1006D00035488179002964D00021814681710F4617
:1006E0000E460D460C4600F12C0A4FF47A7800BFF6
:1006F000BAF800100F44BAF80210BAF804000E4419
:100700000544012000F046FB641C4445F0DB4046F4
:10071000B7FBF0F1B6FBF8F2B5FBF8F3A9F814104B
:100720002248A9F81620A9F818308180C2804C46CA
:10073000038102F065FF592831D01D4E1D4DF41480
:1007400001222021304600F0F4FC012240213046F5
:1007500000F0EFFC01228021304600F0EAFC01228B
:100760002146284600F0E5FC642000F013FB00223F
:100770002021304600F0DDFC00224021304600F010
:10078000D8FC00228021304600F0D3FC0022214614
:10079000284600F0CEFC642000F0FCFAD0E70120EF
:1007A000E070BDE8F08700000C0000205000002041
:1007B000000C014000080140F8B50024009490F8B6
:1007C00024202546012A12D0012280F824204A68DC
:1007D0001F23072A0DD20668776B521E02EB820296
:1007E00093409F430B6893401F43776319E00220B7
:1007F000F8BD06680D2A0AD2376BD21F02EB8202BF
:1008000093409F430B6893401F43376309E0F76AA7
:100810000D3A02EB820293409F430B6893401F43C3
:10082000F7620A68072306680A2A0AD3F7680A3AB1
:1008300002EB420293409F438B6893401F43F76053
:1008400008E0376902EB420293409F438B68934074
:100850001F4337610A68102A01D0112A20D1124B98
:1008600002689A4217D193681B0219D4936843F423
:10087000000393600968102912D10C490C4A0968D9
:10088000B1FBF2F101EB8101490000E0491E00914A
:100890000029FBD104E0816A41F02001816201243A
:1008A00080F824502046F8BD002401404C00002070
:1008B00040420F0070477047704700002DE9F0413B
:1008C0004FF0000704003D467ED0A06A002628B9FC
:1008D000E66284F82460204600F07EF82046FFF7A8
:1008E00049FDA16AC90600D420B1A06A40F01000F9
:1008F000A06269E0A16A21F4885141F00201A1627D
:100900006268E169237B0A4347EA43010A43A1681D
:100910004FF48077B94209D0012907D05FF0000178
:1009200094F814C0BCF1010F02D00AE03946F7E791
:10093000F3B1A36A43F02003A362E36A43F0010327
:10094000E3622368D3F804C02CF4694C4CEA010C30
:10095000C3F804C021688B68DFF870C003EA0C0399
:1009600013438B60A168B9420BD0012909D00CE078
:10097000DFF85CC0A3690CEB43330B4343F4006125
:10098000DFE7218A0D05A5F580152168CB6A23F4E0
:1009900070032B43CB62216889680E4B194091424A
:1009A00008D1E662A16A21F0020141F00101A162D1
:1009B000BDE8F081A06A20F0020040F01000A062C3
:1009C000E06A40F00100E0620120F1E7FDF7E1FF9D
:1009D00000E0FFFFFE0E1FFF70B586B00025064643
:1009E000009501950295039500681A4988422ED119
:1009F0001949886940F400708861886900F40070C2
:100A00000490886940F0040088618869694600F0B4
:100A10000400049007200090032001900F4800F08C
:100A20008BFA104C0E48C4E900058020C4E902503E
:100A300040002061800060612020C4E90605204656
:100A400000F042F908B1FFF75EFD3462666206B05D
:100A500070BD000000240140001002400008014069
:100A600008000240E00200202DE9F04789460446D4
:100A70003B4900683B4F0E1D9046884201D0B8426A
:100A800007D1306810F4702F03D001252846BDE847
:100A9000F08794F8240001280CD0012084F8240069
:100AA0002046FFF7CBFC05004FF0000004D084F88F
:100AB0002400EBE70220EAE7A16A40F601629143D5
:100AC00041F48071A1622168B94218D1326812F4F0
:100AD000702F14D0A16A41F48011A16231684905D8
:100AE00005D5A16A21F4005141F48051A162A16AA7
:100AF000C9040AD5E16A21F00601E16206E0A26AB2
:100B000022F48012A2624968E9E7E06284F82400D6
:100B1000216A15488862216A1448C862216A14480B
:100B2000086321686FF0020008602068816841F462
:100B300080718160216843464A464C31206A00F04A
:100B4000F1F820688168C1F342410729816803D028
:100B500041F48011816099E741F4A001FAE70000B7
:100B60000024014000280140CB03000833040008A2
:100B7000190400082DE9F05FC16B0C6801680B686F
:100B8000D0F840C0042202FA0CF2494DDFF824A14B
:100B9000494E4A4FDFF828B1DFF828E122422CD035
:100BA0005A072AD50A68920603D40A6822F004027A
:100BB0000A600168A94201D1042219E0514501D11E
:100BC000402215E0B14202D14FF4806210E0B942F8
:100BD00002D14FF480420BE0594502D14FF48022FC
:100BE00006E0714502D14FF4800201E04FF08062CF
:100BF0002F4908394A60C16A3BE04FF0020808FA01
:100C00000CF818EA040F4FF000094FF0010235D03C
:100C10005FEA837832D50B689B0605D40B6823F016
:100C20000A030B6080F821200168A94201D1022249
:100C300019E0514501D1202215E0B14202D14FF413
:100C4000007210E0B94202D14FF400520BE0594556
:100C500002D14FF4003206E0714502D14FF4001288
:100C600001E04FF00072124908394A6080F8209084
:100C7000816A00291AD0BDE8F05F0847082505FA07
:100C80000CF5254212D01B0710D50B6823F00E037C
:100C90000B6090F84010C36B02FA01F15960826357
:100CA00080F8212080F82090016BE2E7BDE8F09FFA
:100CB000080002401C000240300002404400024094
:100CC000580002406C00024030B528B308C81349F0
:100CD00014221944B1FBF2F18900C1631049816308
:100CE000022141771A6843F6F0718A43D0E9001473
:100CF0002143D0E902452C4321430469214344693F
:100D00002143846921431143196000214163012279
:100D100042770177084630BD012030BDF8FFFDBFA6
:100D20000000024070B5044690F82000002501281C
:100D30000CD0012084F8200094F821600020012EBE
:100D400006D084F820000225284670BD022070BD20
:100D5000022684F82160A0632068066826F0010658
:100D600006602046FFF7B6FBE06A002820680168AD
:100D700002D041F00E0106E021F00401016020687C
:100D8000016841F00A0101602068016841F0010139
:100D90000160D9E770B5044600F0D0F90546601C43
:100DA00002D004480078044400F0C8F9401BA04277
:100DB000FAD370BD400000202DE9F04705462648D3
:100DC0000F460126017E01290FD0012181460176BF
:100DD0002868DFF888804CF25034022808D0A246F8
:100DE0002046FFF7F3FBA8B131E00220BDE8F08711
:100DF0002046FFF7EBFB08BB0120FFF787FB2046EF
:100E0000FFF7E4FBD8F81010064621F00401C8F8FB
:100E100010101CE04FF0FF303860AC6811E0204645
:100E2000FFF786FB5046FFF7D1FBD8F810100600FD
:100E300021F00201C8F8101001D03C6007E004F571
:100E40008064D5E9020100EB8120A042E7D80021AF
:100E500089F818103046C9E76803002000200240D6
:100E60000348016941F080010161002070470000E2
:100E7000002002402DE9F05F07461C488846002408
:100E8000017E15461E46012909D0012181460176C1
:100E90004CF2503A5046FFF799FB18B122E002207D
:100EA000BDE8F09F012F02D0022F00D00427D346C7
:100EB000DFF83CA0220128463146FFF785F981B2D0
:100EC00008EB4400FFF746FB5846FFF77FFBDAF8D4
:100ED000102022F00102CAF8102018B9641CE4B2F4
:100EE000BC42E7D3002289F81820D9E76803002024
:100EF00000200240064900200A69120607D5054A6B
:100F00004A60054A4A600969090600D50120704710
:100F10000020024023016745AB89EFCD70470000F8
:100F2000044910B50A68024202D00860FFF7F6FFD4
:100F300010BD0000140401402DE9F84FDFF8B8910E
:100F40000024A9F1040B23460F2709F1040AABF191
:100F5000040EC9E00125A5402A40AA427DD1674E72
:100F6000D1F804C0ACEB0608B44532D014DCBCF1B7
:100F7000030F3AD009DCBCF1000F2AD0BCF1010FFD
:100F80001CD0BCF1020F31D11DE0BCF1110F17D004
:100F9000BCF1120F2AD119E0B8F5881F19D006DC70
:100FA000B8F5803F15D0B8F5801F1FD111E0B8F516
:100FB000001F0ED0B8F5041F18D10AE0CB6815E069
:100FC000CB681B1D12E0CB6808330FE0CB680C33F5
:100FD0000CE08B682BB1012B4FF0080303D0456167
:100FE00004E0042302E0056100E00023FF2A01D8A9
:100FF000064601E000F104064FEA840501D9A5F197
:101000002005D6F8008007FA05FC28EA0C0803FA48
:1010100005F548EA0508C6F800804D68ED0062D580
:10102000374DAE6946F00106AE61AD6924F00306A6
:1010300005F001050095334D06EB050CDCF8085072
:10104000A607360F07FA06F825EA0805DFF8B88084
:10105000404503D14FF0000817E044E0DFF8AC80D2
:10106000404502D14FF001080FE0DFF8A480404571
:1010700002D14FF0020808E0DFF89880404502D125
:101080004FF0030801E04FF0040808FA06F848EAB8
:101090000508CCF808804D68D9F80060ED024D468F
:1010A00001D5164300E096432E604D68DAF80060E3
:1010B000AD02554601D5164300E096432E604D68BB
:1010C000DBF80060AD035D4601D5164300E09643B2
:1010D0002E604D68DEF80060ED03754601D51643BD
:1010E00000E096432E60641C0D682A46E5407FF4BC
:1010F00031AFBDE8F88F0000080401400000111076
:10110000001002400000014000080140000C0140B6
:1011100000100140001401408068084000D0012008
:101120007047C26821EA02030A4043EA02410161B2
:1011300070470AB1016170470904FBE70148806804
:101140007047000040000020024881680278114486
:101150008160704740000020074810B5016841F0E9
:1011600010010160032000F075F80F2000F006F870
:1011700000F024F8002010BD0020024070B50D4D95
:1011800004464FF47A712878B1FBF0F00A490968F7
:10119000B1FBF0F000F03BFE48B9102C07D2002262
:1011A0002146501E00F036F800206C6070BD012012
:1011B00070BD0000400000204C0000200C4808B525
:1011C000816941F001018161816901F001010091B2
:1011D000C16941F08051C161C06900F08050009048
:1011E0000448416821F0E06141F00071416008BDB0
:1011F0000010024000000140002809DB00F01F023F
:10120000012191404009800000F1E020C0F8001168
:1012100070470000F0B40E4B1B680C46C3F302236A
:10122000C3F10705042D00D90425191D072901D292
:10123000002300E0DB1E012606FA05F1491E2140CD
:1012400099409E40761E16403143F0BC02F00DBA24
:101250000CED00E0064900F0070208684FF6FF03B6
:10126000184040EA0220034A10430860704700001B
:101270000CED00E00000FA052DE9F8430546007882
:10128000354CC00754D0E0690026C00008D4E0699E
:1012900040F08050E061E069012600F0805000904D
:1012A0002E480168C90512D40168804641F4807156
:1012B0000160FFF743FF074605E000BFFFF73EFF71
:1012C000C01B642823D8D8F80000C005F6D5206AD2
:1012D00010F4407021D0A98801F4407181421CD0E3
:1012E000206A1F49012220F440700A6000220A602F
:1012F0002062C00711D0FFF721FF074641F288386E
:1013000008E000BFFFF71AFFC11B414502D90320C7
:10131000BDE8F883206A8007F4D5206A696820F464
:101320004070084320621EB1E06920F08050E06107
:101330002878800705D56068A96820F440400843F4
:1013400060602878C00605D56068E96820F48000F0
:10135000084360600020DBE700100240007000409E
:10136000400442422DE9F0470F46050061D0434E4C
:10137000306800F00700B84209D2306820F007005A
:1013800038433060306800F00700B84251D1286817
:101390003B4C810712D5400703D5606840F4E060FC
:1013A00060602878000703D5606840F46050606092
:1013B0006068A96820F0F000084360602878C007E2
:1013C00028D06868012810D02168022810D0890729
:1013D00000292EDA616821F0030101436160FFF703
:1013E000ADFE804641F288390DE021688903EFE7C0
:1013F0008901EDE7FFF7A2FEA0EB0801494502D9FC
:101400000320BDE8F0876068696800F00C00B0EB6D
:10141000810FEFD1306800F00700B8420BD9306877
:1014200020F0070038433060306800F00700B84211
:1014300001D00120E5E72878400705D56068E96814
:1014400020F4E060084360602878000706D56068F3
:10145000296920F4605040EAC100606000F038F86B
:101460006168084AC1F30311515CC840064908602D
:1014700006480068FFF782FE0020C2E70020024015
:1014800000100240623D00084C0000204400002093
:101490000448054900684968044AC1F30221515CC7
:1014A000C84070474C00002000100240723D000808
:1014B0000448054900684968044AC1F3C221515CE7
:1014C000C84070474C00002000100240723D0008E8
:1014D0000E4A51680E4801F00C03042B11D0082B62
:1014E0000FD10C48C1F38343C903C05C0AD55168CE
:1014F000084AC1F34041921E515C054A5043B0FB7B
:10150000F1F0704704494843704700000010024062
:1015100000127A00523D000800093D002DE9F84F05
:10152000040070D02078C04DC00749D06868C0F36F
:101530008100012807D06868C0F38100022809D122
:101540006868C00306D52868800339D5606800281C
:10155000E7D035E06068B0F5803F0BD010B1B0F552
:10156000A02F11D0286820F480302860286820F44B
:10157000802002E0286840F480302860606890B1E4
:10158000FFF7DCFD06460AE0286840F4802028606A
:10159000F0E700BFFFF7D2FD801B642873D82868EE
:1015A0008003F7D50CE0FFF7C9FD064605E000BF54
:1015B000FFF7C4FD801B6428F0D828688003F7D4A7
:1015C00020789A4E80074FF001094FF0000839D576
:1015D000686810F00C0F07D06868C0F3810002281B
:1015E00009D16868C00306D42868800714D520692B
:1015F000012808D110E02069B0B1C6F80090FFF7CB
:101600009DFD074605E00AE1FFF798FDC01B022893
:10161000C4D828688007F7D52868616920F0F800E9
:1016200040EAC10028600DE0C6F80080FFF786FDA3
:10163000074604E0FFF782FDC01B022823D8286874
:101640008007F7D4207800072CD57948A169D9B153
:10165000C0F80090FFF772FD074604E0FFF76EFD4B
:10166000C01B02280FD8686A8007F7D571484FF46D
:10167000FA510068B0FBF1F0009000BF0098411EE5
:101680000091FAD20EE080E0C0F80080FFF756FD2E
:10169000074604E0FFF752FDC01B022875D8686AB0
:1016A0008007F7D42078400760D5E8690027C0009C
:1016B00008D4E86940F08050E861E869012700F04B
:1016C000805000905C480168C90513D401688346C6
:1016D00041F480710160FFF731FD824606E000BFF2
:1016E000FFF72CFDA0EB0A0064284ED8DBF80000C1
:1016F000C005F5D5E06801280AD008B1052813D047
:10170000286A20F001002862286A20F0040002E024
:10171000286A40F001002862E06841F2883B98B1F5
:10172000FFF70CFD82460BE0286A40F004002862B7
:10173000EEE700BFFFF702FDA0EB0A0159455AD8BA
:10174000286A8007F6D50CE0FFF7F8FC824605E032
:10175000FFF7F4FCA0EB0A0159454CD8286A800732
:10176000F6D41FB1E86920F08050E861E06988B3E1
:101770006968C1F38101022944D00228C6F860805B
:1017800004D0FFF7DBFC044638E034E0FFF7D6FC7A
:10179000074604E0FFF7D2FCC01B02282BD82868BC
:1017A0008001F7D4206AB0F5803F05D16868A16850
:1017B00020F4003008436860D4E9080108436968F0
:1017C00021F4741108436860C6F86090FFF7B6FC16
:1017D000044606E025E000BFFFF7B0FC001B02282E
:1017E00009D828688001F7D51BE000BFFFF7A6FCE9
:1017F000001B022802D90320BDE8F88F2868800169
:10180000F4D40EE00128F7D06868226A00F4803131
:10181000914204D1616A00F47010884201D0012025
:10182000EAE70020E8E70000001002400000424222
:10183000800442424C0000200070004090F85100AB
:10184000704770B5040009D0606A002540B1256179
:101850006561A56294F8510040B10CE0012070BDB3
:101860006068B0F5827FF4D0E561F2E784F850500B
:10187000204600F03FF8022084F8510020680168FB
:1018800021F040010160A088218900F4827001F4F8
:1018900004410843A18901F400610843217C01F05F
:1018A00002010843217D01F001010843218B01F46D
:1018B00000710843217F01F03801084394F820109B
:1018C00001F080010843218D01F400510843216893
:1018D0000860A069042101EA10402168486020687E
:1018E000C16921F40061C1616565012084F851007E
:1018F000002070BD30B585B000240094019402949E
:10190000039400681449884223D11448816941F442
:1019100080518161816901F480510491816941F0B4
:101920000401816180690E4D00F004000490A02044
:101930000090022001900320039069462846FFF79B
:10194000FBFA4020CDE90004694628460294FFF7DF
:10195000F3FA05B030BD0000003001400010024035
:10196000000801402DE9F84F044690F851001D464B
:1019700016460F46012838D160684FF00408B0F5CC
:10198000827F01D1A06830B3FFF7D8FB8246002FD9
:1019900075D0002E73D094F85000012825D04FF058
:1019A000010984F8509084F851804FF00008C4F881
:1019B0005480A763A687E687C4F83080A4F83480F3
:1019C000A4F83680C4F84080C4F84480A068B0F51C
:1019D000004F0CD015E084F85180009313460A465E
:1019E000204600F01CF9BDE8F88F0220FBE72068D4
:1019F000016821F0400101602068016821F4804104
:101A0000016020680168490603D4016841F0400183
:101A10000160E068C0B134E020688168C90709D07E
:101A2000007BA16B0870A06B401CA063E08F401E80
:101A3000E08709E0FFF782FBA0EB0A00A84202D38F
:101A4000681C01D032E085B3E08F0028E4D11BE0B0
:101A500020688168C90709D0C068A16B0880A06BA5
:101A6000801CA063E08F401EE0870AE0FFF766FB62
:101A7000A0EB0A00A84203D3681C02D016E012E0D3
:101A80009DB1E08F0028E3D152462946204601F05F
:101A9000B1FB08B12020606584F8519084F8508033
:101AA000606D00289FD001209DE7FFE784F85190EA
:101AB00084F85080032096E72DE9F84F98461646A3
:101AC0008A460446FFF73AFB814694F85100012804
:101AD0001ED1BAF1000F73D0002E71D094F85000CF
:101AE000012815D0012784F85070032084F8510094
:101AF00000256565C4F830A0A686E686A563A5879F
:101B0000E58765642564A068B0F5004F03D00CE05C
:101B10000220BDE8F88F2068016821F040010160D3
:101B20002068016841F4804101602068016849062D
:101B300003D4016841F040010160E068B0F5006F36
:101B4000606803D048B3012E27D047E008B1012ECA
:101B50001FD1206B21680088C86006E0206881687A
:101B6000890709D5216B0988C160206B801C20631F
:101B7000E08E401EE0860CE0FFF7E0FAA0EB0901E2
:101B8000414503D3B8F1FF3F03D035E0B8F1000F72
:101B900032D0E08E0028E1D123E0206B216800786C
:101BA000087306E02068816889070AD5216B0978E7
:101BB0000173206B401C2063E08E401EE0860DE028
:101BC0002BE0FFF7BBFAA0EB0901414503D3B8F1C5
:101BD000FF3F03D010E0B8F1000F0DD0E08E0028D9
:101BE000E0D14A464146204601F032FB08B12020B0
:101BF0006065A06830B109E084F8517084F85050F5
:101C0000032086E72068C1688068009084F85170DE
:101C100004F8505F60680028F3D0012079E72DE9CF
:101C2000FF4F81B01D46934604464FF001090E9EBA
:101C3000FFF784FA074694F851006168012806D03E
:101C4000B1F5827F3CD1A168C9BB042838D1029884
:101C5000002871D0BBF1000FFBD0002DF9D094F813
:101C6000500001282CD04FF0010A84F850A094F8BD
:101C70005100042802D0052084F851004FF00008DC
:101C8000C4F85480C4F838B0E587A5870299216369
:101C9000E586A586C4F84080C4F8448020680168C1
:101CA000490603D4016841F040010160E068B0F5E5
:101CB000006F606808D0F0B3012D49D081E0FFE7E4
:101CC000022005B0BDE8F08F08B1012D39D1206B9D
:101CD00021680088C860206B801C2063E08E401E55
:101CE000E0862EE02068816889070FD5E18E69B112
:101CF000B9F1010F0AD1216B0988C160206B801CEA
:101D00002063E08E401EE0864FF000092068816865
:101D1000C9070CD0E18F51B1C068A16B0880A06BDE
:101D2000801CA063E08F401EE0874FF00109FFF7A1
:101D300005FAC01B01E00BE067E0B04201D3701C64
:101D400050D1E08E0028CDD1E08F0028CAD13EE0EE
:101D5000206B216800780873206B401C2063E08EA4
:101D6000401EE0862DE02068816889070FD5E18E4E
:101D700069B1B9F1010F0AD1216B09780173206BA8
:101D8000401C2063E08E401EE0864FF00009206872
:101D90008168C9070CD0E18F51B1C068A16B087090
:101DA000A06B401CA063E08F401EE0874FF001094C
:101DB000FFF7C4F9C01BB04202D3701C01D011E080
:101DC00086B1E08E0028CED1E08F0028CBD13A46F4
:101DD0003146204601F03CFA50B12020606584F87D
:101DE000508012E084F851A084F85080032068E706
:101DF000A06818B92068C1688068009084F851A074
:101E000084F85080606D0028F1D0012059E710B5AA
:101E1000401EB0F1807F01D3012010BD4FF0E024BF
:101E200060610F21601701F020FC0020A0610720F5
:101E30002061002010BD70477047000070B590F819
:101E40003C20012A26D0012480F83C40022280F860
:101E50003D2003685A689D6822F070060A68324384
:101E60005A600D4B02689A4208D0B2F1804F05D0FB
:101E70000A4B9A4202D00A4B9A4204D1496825F093
:101E800080031943916080F83D40002180F83C10A8
:101E9000084670BD022070BD002C014000040040C7
:101EA0000008004010B5040003D094F83D0010B1C4
:101EB00007E0012010BD002084F83C00204600F01F
:101EC0001FF8022084F83D00211D206801F082FAED
:101ED000012084F8460084F83E0084F83F0084F82E
:101EE000400084F8410084F8420084F8430084F8FC
:101EF000440084F8450084F83D00002010BD000037
:101F000008B5154A0168154891420ED1816941F41E
:101F1000006181618069002200F400600090114638
:101F20001920FFF777F9192010E00D4A914211D1DD
:101F3000C16941F00201C161C069002200F00200E4
:101F4000009001211D20FFF765F91D20BDE8084024
:101F5000FFF752B908BD0000002C014000100240FC
:101F60000004004090F83D10012901D00120704785
:101F7000022180F83D100168CA6842F00102CA607F
:101F800000680B49884208D0B0F1804F05D009495C
:101F9000884202D00849884204D1816801F00701D3
:101FA000062903D0016841F001010160002070475B
:101FB000002C0140000400400008004070B50446B9
:101FC00090F83C000025012817D0012684F83C60D9
:101FD000022084F83D002068826822F0770222F413
:101FE0007F4282600868502838D00DDC20284FD00E
:101FF00005DC90B3102811D14AE0022070BD3028D2
:1020000046D040280AD13BE060282FD070280DD060
:10201000B0F5805F03D0B0F5005F12D0012584F8E1
:102020003D60002084F83C00284670BDCB68D1E9B3
:102030000121206801F00AFA2068816841F07701E7
:1020400009E0CB68D1E90121206801F0FFF920689F
:10205000816841F480418160E1E719E0CA6849681C
:10206000206801F005FA5021206806E0CA68496836
:10207000206801F03BFA6021206801F0F1F9CEE719
:10208000CA684968206801F0F3F940212068F4E744
:10209000226801461046F0E770472DE9F0410546F9
:1020A00090F83C0000260C46012810D0012085F84D
:1020B0003C0072B1042A1CD0082A2CD00C2A50D023
:1020C0000126002085F83C003046BDE8F081022062
:1020D000FBE7D4E90012E368286801F0DBF928681F
:1020E000816921F00C01816128688169A26811432E
:1020F0000FE0D4E90012E368286801F009FA2868C3
:10210000816921F44061816128688169A26841EA9E
:1021100002218161D5E72868D4E9002C277B036A76
:10212000016A21F480710162C16923F4007321F016
:10213000030141EA0C0121F0F00C39074FF400775C
:102140004CEA116107EA02221A43C161026228685F
:10215000C16921F00C01C1612868C169A2681143FD
:102160002BE02868D4E90021E768036AD0F820C092
:102170002CF4805CC0F820C0D0F81CC023F40053BD
:102180002CF4407C4CEA012121F4704C4FF6FF7195
:1021900001EA07314FF4005741EA0C0107EA023225
:1021A0001A43C16102622868C16921F44061C161BA
:1021B0002868C169A26841EA0221C16181E710B5BE
:1021C000040003D094F83D0010B107E0012010BDD9
:1021D000002084F83C00204600F01EF8022084F81D
:1021E0003D00211D206801F0F5F8012084F846002B
:1021F00084F83E0084F83F0084F8400084F84100F1
:1022000084F8420084F8430084F8440084F84500D0
:1022100084F83D00002010BD10B586B00024009465
:102220000194029403940068B0F1804F31D11A48B0
:10223000C16941F00101C161C16901F0010104916D
:10224000816941F008018161816901F0080104910F
:10225000816941F0040181618069694600F00400F0
:1022600004904FF4816000900C48FEF765FE4FF437
:102270000040CDE90004694609480294FEF75CFE7F
:102280000849486820F4407040F0E06040F4407035
:10229000486006B010BD000000100240000C014074
:1022A00000080140000001402DE9F04104460068AB
:1022B000C66805694FF00007A90713D5B10711D506
:1022C000F91E01610120207720688069800720467F
:1022D00002D0FFF7E1FE04E000F07EF8204600F0B7
:1022E0007CF82777680716D5700714D521686FF03A
:1022F00004000861022020772068806910F4407F84
:10230000204602D0FFF7C8FE04E000F065F8204642
:1023100000F063F82777280715D5300713D5216813
:102320006FF008000861042020772068C0698007EA
:10233000204602D0FFF7B0FE04E000F04DF8204642
:1023400000F04BF82777E80616D5F00614D521687B
:102350006FF010000861082020772068C06910F431
:10236000407F204602D0FFF797FE04E000F034F8EB
:10237000204600F032F82777E80708D0F00706D0AB
:1023800021686FF001000861204600F027F8280658
:1023900008D5300606D521686FF080000861204618
:1023A000FFF749FD680608D5700606D521686FF06D
:1023B00040000861204600F077F8A8060AD5B0066C
:1023C00008D521686FF0200008612046BDE8F04183
:1023D000FFF732BDBDE8F081704770472DE9F0414D
:1023E000074600682C492D4C88424BD12C4DA87EC5
:1023F000002618B1206A401C206200E02662208975
:10240000401C20816089401C60812078401CC0B243
:102410002070022836D3FEF749F98046267001461F
:102420001F4800F079FE1E484146343000F074FE2B
:102430001B484146683000F06FFE95F8302018497F
:10244000343101F13400CAB185F830606278AAB144
:102450006670AA7E92B101222282022363828B7E61
:102460005BB1837E4BB1AB6AD1F824C0A3EB0C0304
:102470002382AB6A456A5B1B6382627181F83060BC
:1024800080F8306007493868884202D1606A401C91
:102490006062BDE8F0810000002C01400C000020CB
:1024A0004402002000040040704770B5040004D0CE
:1024B00094F84100002510B106E0012070BD84F8B9
:1024C0004050204600F024F8242084F84100206881
:1024D000C16821F40051C160204601F035F8206840
:1024E000016921F4904101612068416921F02A01CC
:1024F00041612068C16841F40051C16065642020D9
:1025000084F8410084F842006563002070BD00003B
:1025100070B586B000250646009501950295039595
:1025200000681E49884237D11D49886940F48040BF
:102530008861886900F480400490886940F0040054
:1025400088618869174C00F00400049048150090D9
:10255000022001900320039069462046FEF7ECFC20
:102560002015CDE90005694620460295FEF7E4FCFA
:102570000E4C0D4820601020C4E901058020C4E9FC
:1025800003056561A5612046E561FEF79DFB08B185
:10259000FDF7B9FFB463666206B070BD0038014054
:1025A00000100240000801404400024024030020C3
:1025B00010B5114CE37811484FF400616BB1012B59
:1025C0000DD00022022B0FD0032B05D1608940F6DD
:1025D000B831884200D3E27010BD002200E0012231
:1025E000BDE81040FEF7A5BD62810122FEF7A1FD06
:1025F0000320E07010BD00000C0000200008014026
:10260000254810B5807E254C08B1012200E000224B
:1026100020212046FEF78DFD1F483430807E08B112
:10262000012200E0002240212046FEF782FD1A48E8
:102630006830807E08B1012200E00022802120461F
:10264000FEF777FD164CA17800204FF4167207298B
:1026500020D2DFE801F004080C10151A1500BDE8BF
:10266000104000F00DBDBDE8104000F01BBDBDE8FE
:10267000104000F027BD208100F014FD042008E088
:102680002189914206D3208103E0208100F01AFDC8
:102690000620A07010BD000044020020000C014084
:1026A0000C00002070B5204C607900283BD0002140
:1026B00061711E48AA2202704170228A44F620618C
:1026C000B2FBF1F301FB13226423B2FBF3F282703D
:1026D000658AB5FBF1F601FB1651B1FBF3F1C17050
:1026E0001144AA3101710122114E150229463046CA
:1026F000FEF71FFD0D490F4B0522A1F1340000F03C
:1027000004FA2071002229463046FEF712FD207996
:10271000012808D141030848FEF703FDE089401C69
:10272000E0810320A07070BD0C0000203802002062
:10273000000801408096980000100140FEE7F8B5BF
:10274000044641F080008DF8000017461E46A1881F
:1027500000222068FEF7EDFC4FF4FA652B460122BB
:102760006946A069FFF7A8F9A069FFF767F8012893
:10277000FAD12B4632463946A069FFF79DF9A06988
:10278000FFF75CF80128FAD1A18801222068FEF742
:10279000D0FCF8BD70B50446002100F06DF80A20A9
:1027A000FEF7F8FA0121204600F0A9F805460A20B4
:1027B000FEF7F0FA45F080020121204600F0E1F931
:1027C0006420FEF7E7FA2046216A00F00DF994F83C
:1027D0002A10204600F05CF994F82B10204600F0F7
:1027E00038F923220C21204600F0CBF9204600F0D6
:1027F00079F994F82410204600F054F9FF221F21A3
:10280000204600F0BEF994F8250094F82610000147
:1028100000EB4100C2B21D21204600F0B2F9204673
:1028200000F0BCF8208D2021020A204600F0A9F912
:1028300094F828202121204600F0A3F940212046C9
:1028400000F05DF840F03F024021204600F099F989
:102850000121204600F010F80120E0610A20FEF777
:1028600099FA4221204600F04AF8122802D04FF48B
:10287000CA7070BDC82070BD70B50C4605460121F8
:1028800000F03DF8024664B1012C0FD0032C13D0A8
:10289000052C17D0062C1BD0022C1FD0042C23D0C3
:1028A00027E0002002F0F802E86122E0012002F0B7
:1028B000F802521CE8611CE0032002F0F802D21C6E
:1028C000E86116E0052002F0F802521DE86110E010
:1028D000062002F0F802921DE8610AE0022002F0F0
:1028E000F802921CE86104E0042002F0F802121DD4
:1028F000E8612846BDE87040012100F042B90EB5FC
:1029000001F07F018DF8081001210A46009101AB0A
:1029100002A900F003F89DF804000EBD2DE9F04770
:102920000E461546044681889846DDF820900068DA
:102930000022FEF7FEFB4FF4FA673B462A4631467B
:10294000A069FFF7B9F8A069FEF778FF0128FAD16E
:102950003B464A464146A069FFF704F8A069FEF7E6
:102960006DFF0128FAD1A1882068BDE8F047012257
:10297000FEF7DFBB10B50446818980680022FEF7B0
:10298000D8FB0220FEF706FAA1890122A068FEF713
:10299000D0FBBDE810406420FEF7FCB910B594B040
:1029A000044650220F496846FDF74DFC94F8241068
:1029B0000120884001F037F994F825206B4603EB9D
:1029C000C203D3E9002300F0A7FF01F0FDF81028AF
:1029D00001DD012100E00021204600F025F814B0BF
:1029E00010BD0000003D000870B50546C804441144
:1029F000C4F307420621284600F0C3F80520FEF77D
:102A0000C9F9C4F307220721284600F0BAF80520C7
:102A1000FEF7C0F9E2B20821284600F0B2F8BDE89E
:102A200070400520FEF7B6B970B50C460546262164
:102A3000FFF765FF14B140F0080201E000F0F70273
:102A40002621284600F09DF8BDE870400A20FEF7D8
:102A5000A1B910B52D2901D22D2105E0F02901D908
:102A6000F02106E0782904D805222D3991FBF2F1F6
:102A700003E00A221E31B1FBF2F1C9B22031CAB221
:102A80000B2100F07EF8BDE810400A20FEF782B965
:102A900010B50A46092100F074F8BDE810400A207C
:102AA000FEF778B970B50C4606460C2901DD0C24FA
:102AB00002E0072C00DA07241E21FFF720FF05465D
:102AC0000A20FEF767F964F31F15EAB21E213046AB
:102AD00000F057F80A20FEF75DF93046BDE8704077
:102AE000FFF75CBF10B504461E21FFF708FF40F05A
:102AF00007021E21204600F044F8BDE810400A20DD
:102B0000FEF748B90521FFF7B7BE2DE9F0410F46A2
:102B10001C46164680460121C569FFF7ADFE0E2111
:102B20004046FFF7ECFE02460D21404600F029F832
:102B300032462221404600F024F833463A4600212E
:102B40004046FFF7FCFD03214046FFF795FE1221AA
:102B50004046FFF7D4FE00070BD5FF221221404666
:102B600000F00FF829464046FFF786FE0120BDE839
:102B7000F081641EEBD129464046FFF77DFE002020
:102B8000F5E70EB541F080018DF8081001218DF8B0
:102B900004200A46009101AB02A900F001F80EBD25
:102BA0002DE9F0470E461546044681889846DDF823
:102BB000209000680022FEF7BCFA4FF4FA673B460B
:102BC0002A463146A069FEF777FFA069FEF736FE78
:102BD0000128FAD13B464A464146A069FEF76CFF00
:102BE000A069FEF72BFE0128FAD1A1882068BDE874
:102BF000F0470122FEF79DBA70B5314C2F492046AF
:102C0000FDF72FFD2D480088A0F52C41CA3953D07F
:102C10002046FDF705FD3220FEF7BCF82948016883
:102C2000426883682046FDF73AFD274D4FF4005473
:102C3000002221462846FEF77CFA0122214628463A
:102C4000FEF777FA6420FEF7A5F800222146284611
:102C5000FEF76FFA4FF4FA763046FEF79BF8012242
:102C600021462846FEF765FA6420FEF793F8002215
:102C700021462846FEF75DFA3046FEF78BF8012222
:102C800021462846FEF755FA6420FEF783F8002215
:102C900021462846FEF74DFA3046FEF77BF8BFF393
:102CA0004F8F0A4801680A4A01F4E061114301604C
:102CB000BFF34F8F00BFFDE770BD00005000002044
:102CC00000FC000800000020001001400CED00E0B6
:102CD0000400FA0581610E49012302C0102120F889
:102CE000041B0C4902C003804160022101810C21B8
:102CF00042610176072141768376FF218177782131
:102D0000C1770A218183002101624162704700007E
:102D100000080140000C01400022C26080F8102031
:102D200020F81210C368521C0B44C360052AF7DB5D
:102D3000704710B5027CC36830F812401B1BC3609B
:102D400020F81210C2681144C160027C521CD2B239
:102D50000274052A01D3002202740520B1FBF0F0B1
:102D600080B210BDFEB500241B480094019419499F
:102D7000029401608915816001250573047503269D
:102D800006614FF460214460C161FDF797FD08B111
:102D900072B6FEE705200094CDE9015069460E4861
:102DA000FDF70AFD08B172B6FEE70224CDE9005432
:102DB00069460948FDF700FD08B172B6FEE7CDE9A6
:102DC000004669460448FDF7F7FC002801D072B6BA
:102DD000FEE7FEBD002401405C0000202DE9F04F1D
:102DE00085B00024394800940194029403948169C9
:102DF00041F010018161816901F010010491816944
:102E000041F020018161816901F020010491816913
:102E100041F004018161816901F00401049181693B
:102E200041F0080181618069DFF8A49000F008009A
:102E30004FF400550490002229464846FEF779F9E0
:102E4000DFF890A04FF41167002239465046FEF794
:102E500070F9DFF884B040F2E1380022414658466C
:102E6000FEF767F90126CDE9005602256946484676
:102E7000CDE90245FEF760F8CDE900766946504697
:102E8000CDE90245FEF758F8CDE900866946584677
:102E9000CDE90245FEF750F810486946CDE90050EB
:102EA00058460295FEF748F8A8038DE85100694698
:102EB0005846FEF741F8002211460720FEF7AAF90E
:102EC0000720FEF799F905B0BDE8F08F0010024029
:102ED0000010014000080140000C014000001110EA
:102EE0000F4810B50D4901604FF482714160002117
:102EF0008160C1604FF400720161C0E905120822CF
:102F0000C0E90721416281620A21C162FEF799FC92
:102F1000002801D072B6FEE710BD0000003001406D
:102F20008C00002010B586B000241748009401944E
:102F30000294039404941349059401604721C0E965
:102F400001143121C0E903148021C0E90541FEF7D5
:102F5000A9FF08B172B6FEE74FF4805000906946B1
:102F60000948FFF72BF808B172B6FEE7049404A9EC
:102F700005480594FEF762FF002801D072B6FEE70F
:102F800006B010BD002C0140E400002010B586B052
:102F900000241F48059404940094019402944FF077
:102FA00080410394C0E900144FF6FF71C0E902416B
:102FB00004618461FFF703F908B172B6FEE7049477
:102FC00004A913480594FEF739FF08B172B6FEE76D
:102FD0000120CDE900400294002269460C48039488
:102FE000FFF75BF808B172B6FEE7042269460848AD
:102FF000FFF753F808B172B6FEE7082269460448A5
:10300000FFF74BF8002801D072B6FEE706B010BDFE
:103010002C01002010B586B00024174800940194BC
:103020000294039404941349059401604721C0E974
:1030300001144FF6FF71C0E903148461FEF732FFFB
:1030400008B172B6FEE74FF48050009069460A4816
:10305000FEF7B4FF08B172B6FEE7049404A906486F
:103060000594FEF7EBFE002801D072B6FEE706B02D
:1030700010BD00000004004074010020FEE7FEE7E0
:1030800010B5074C00224FF400712046FEF751F8AE
:103090000022A1152046BDE81040FEF74AB8000006
:1030A000000C014010B5064C012251022046FEF7EB
:1030B00040F80022A1152046BDE81040FEF739B8BF
:1030C000000C014010B5074C00224FF4007120465F
:1030D000FEF72FF820460122BDE810401102FEF74E
:1030E00028B80000000C0140704730B50160028331
:1030F000002504468583C583058445628562C562D3
:10310000857680F830501146001DFFF705FE01203E
:1031100084F83100658630BD70B5044600680D4600
:103120000188201DFFF705FEA083A07E002258B174
:10313000608E401C80B2608640F6C411884203D382
:10314000042084F83100628694F831300220012B8B
:103150000BD00121022B25D0032B12D0042B0FD131
:10316000A27622846262A26219E0A28B218B64396A
:103170008A4205DAA17E012900D0032084F83100BB
:1031800070BDA38B228B64329342F9D9228C521CDE
:1031900092B22284642A02D1A176154AD07084F8B2
:1031A000311070BD606AE68B281A238B9E421CD8B2
:1031B000A68B9E4219D9636A3BB145F20823984217
:1031C00005D9A0F59C402038F9E765620BE0A0F531
:1031D0009443383BB3F5FA6F05D8A562E06284F8F2
:1031E00030106562628684F83110A08BE08370BD78
:1031F0000C000020F8B5044640684FF482739842F2
:1032000017D1A0684FF48065B0F5004F01D0A842F7
:103210000FD12068066826F0400606606068984274
:1032200007D1A068A84204D100920B4600220121D8
:1032300003E000920B4600228021204600F022F895
:10324000002804D0606D40F0200060650320F8BDC8
:10325000F8B515460E460B4600920446012202219F
:1032600000F010F840B93346002280212046009536
:1032700000F008F8002804D0606D40F02000606580
:103280000320F8BD2DE9F8431E46914688460446C2
:10329000089DFDF753FF401B351AFDF74FFF07460A
:1032A00025480068C0F3CB30684338E0701C37D045
:1032B000FDF744FFC01BA84203D215B1009860B3CC
:1032C0002CE02068416821F0E00141606068B0F5C1
:1032D000827F0BD1A068B0F5004F02D0B0F5806FAF
:1032E00004D12068016821F040010160A06AB0F5B6
:1032F000005F09D12068016821F400510160206855
:10330000016841F400510160012084F8510000205F
:1033100084F850000320BDE8F8830025401E00908B
:103320002068816838EA010004D000214945BDD1F8
:103330000020F0E70121F9E74C0000207047FDF77D
:1033400003BF30B593B028216846FCF7AEFF1421C7
:103350000AA8FCF7AAFF002501200F9510951195EA
:10336000010412958DE8230004904FF4E010CDE99C
:103370000810022407946846FEF7D0F808B172B628
:10338000FEE70AA90F2081E831004FF48060CDE903
:103390000D0502210AA8FDF7E5FF08B172B6FEE7A8
:1033A0004FF4004011900F940FA8FDF765FF00281F
:1033B00001D072B6FEE713B030BD70470148FEF78A
:1033C00073BF0000E40000200148FEF76DBF00005D
:1033D00074010020F0B50268194B1A4C1A4D4FF0D9
:1033E0008047984205D0B84203D0A04201D0A842FD
:1033F00003D122F070064A683243984205D0B842A1
:1034000003D0A04201D0A84203D122F44074CA687C
:1034100022434C6922F08002224302608A68C26221
:103420000A688262984201D1096901630121416100
:103430000169C90703D0016921F001010161F0BDF3
:10344000002C0140000400400008004010B58468D2
:1034500042EA032224F47F440A432243826010BDDF
:10346000826822F070020A4342F0070181607047CF
:1034700010B5036A046A24F001040462846924F02C
:10348000F00444EA021423F00A020A43846102624F
:1034900010BD000070B5056A046A24F001040462DE
:1034A00084690F4EB04208D0B0F1804F05D00D4E68
:1034B000B04202D00C4EB04203D124F003041443B6
:1034C00001E044F001041A0724F0F00444EA126217
:1034D00025F00A0301F00A0119438261016270BDFF
:1034E000002C0140000400400008004010B5036AB1
:1034F000046A24F010040462846923F0A00324F415
:10350000704444EA023243EA01118261016210BD53
:1035100030B5046A056A25F010050562856925F451
:10352000407545EA022222F470454FF6FF7202EA26
:10353000033224F0A0032A43A02404EA0111194312
:103540008261016230BD000070B504460068016907
:10355000E26821F44051114301612169A0680843E8
:10356000616908432168CA6841F20C639A430243C7
:10357000CA6020684169A26921F440711143416128
:103580001E492068884202D1FDF792FF01E0FDF755
:103590007FFF00EBC00101EB001260686421800036
:1035A000B2FBF0F3B3FBF1F36FF018067343B2FB19
:1035B000F0F5B2FBF0F605EB8305322303EB0515BE
:1035C000B5FBF1F5B6FBF1F605F0F00505EB0615D8
:1035D000B2FBF0F6B2FBF0F0B0FBF1F06FF01802C6
:1035E000504306EB800003EB0010B0FBF1F02168C4
:1035F00000F00F002844886070BD000000380140D2
:10360000FEB5174D174E4E2428680090686801904B
:10361000A86802903046FDF703F80120FDF7BAFBD9
:1036200029686A68AB683046FDF739F80120FDF774
:10363000B1FB29463046FDF714F80120FDF7AAFB3F
:103640000C2269462846FCF7D2FD38B13046FCF71B
:10365000E7FF0A20FDF79EFB2046FEBD5924FBE74D
:103660005000002000FC0008FEE70907090E0028B2
:1036700004DB00F1E02080F80014704700F00F0038
:1036800000F1E02080F8141D7047000008B5FDF738
:1036900063FDFFF756FEFFF7A1FB9548416941F036
:1036A000010141614069002200F0010000901146D3
:1036B0000B20FDF7AFFD0B20FDF79EFD002211460C
:1036C0000E20FDF7A7FD0E20FDF796FDFFF72AFC63
:1036D00089488849002501608849C0E901150C2105
:1036E000C560C0E904518561C561FEF7DEFE08B121
:1036F00072B6FEE7FFF736FBFFF7F2FBFFF78AFC37
:10370000FFF744FC01227E4F560331463846FDF751
:1037100010FDFFF7C7FCDFF8EC91012220214C4699
:103720004846FDF706FD012240212046FDF701FD38
:10373000012280212046FDF7FCFC73494FF4647898
:10374000424601F5BC70FFF7C5FA6B484830FFF7F9
:1037500011F969484830FFF71DF86C4CA0811BE057
:10376000012231463846FDF7E4FC6749424601F53F
:10377000BC70FFF7AFFA60484830FFF7FBF85E48CF
:103780004830FFF707F8A081002231463846FDF7A0
:10379000D0FC0F20FDF7FEFAA089C828E0D15648DA
:1037A0004830FFF7AFF90022B2463146B8463846F6
:1037B000FDF7BFFCFFF764FCFFF71EFA544E5349B8
:1037C0004D48B2882C318830FFF78FFC4F4F4A4864
:1037D0002C37F288B91CBC30FFF787FC4648328989
:1037E000391DF030FFF781FC474803223946303855
:1037F000FDF73AF9DFF81CB10122D1025E465846C6
:10380000FDF797FC1E20FDF7C5FA00224FF400617A
:103810003046FDF78EFC6420FDF7BCFA0022202123
:103820004F464846FDF785FC0122D1023046FDF7A0
:1038300080FC1E20FDF7AEFA00224FF400613046F6
:10384000FDF777FC6420FDF7A5FA002240213846F9
:10385000FDF76FFC0122D1023046FDF76AFC1E2005
:10386000FDF798FA00224FF400613046FDF761FC45
:103870006420FDF78FFA002280213846FDF759FCBD
:1038800021485830FEF76EFB1B484838FEF76AFBAC
:10389000002640F6B839012705E0761CB6B24E4541
:1038A00001D1A77106E04FF400411648FDF734FC42
:1038B0000028F2D000224FF480715846FDF739FC01
:1038C0004646E069401CE061206AA16A884205D34F
:1038D000256251463046FDF724FC6770FEF7E2FE94
:1038E000FEF78EFEFEF764FEFCF7F0FEE9E700004F
:1038F0000010024000380140BC01002020A1070058
:1039000000100140000C01408C0000200C00002041
:1039100050000020000801402DE9C04130B4DFF81C
:10392000A0C23CEA111418BF3CEA131400F0EC806A
:1039300081EA03051CEA111444EAD57418BF1CEA95
:10394000131500F0C780A4EB05044FF0004545EACD
:10395000C12145EAC32341EA505143EA525304F1DD
:103960007F74994204F500344FEAC0204FEAC22226
:1039700008BF904200F09C804FEA13650FF240169A
:10398000765D4FEA134506FB05F7C7F1807706FB26
:1039900007F74FEAD737A7FB03687642C8F58038A8
:1039A000A7FB06CE38BFA8F1010807FB08E64FF0D9
:1039B000000EA6FB028CE6FB03CEDCF1000CCEF180
:1039C000004E38BFAEF1010EA6FB0C584FF00007B9
:1039D0004FF00005E6FB0E87A1FB08C6A0FB07CE53
:1039E00016EB0E0645F10005E1FB076515F1E04E0B
:1039F0007EBFA4F580345FEA46066D4116F180076C
:103A000045F100054FEA17274FEA066647EA0567C2
:103A1000A6F1DE46B6F1805F4FEA15251FD938467C
:103A200024F0010C05EBC471BCF1FE6F01EB0C112D
:103A300002D8F0BCBDE8008124425CBF01F5801EC5
:103A40009EEAC47F02D4F0BCBDE80081244238D491
:103A5000F0BCA1F1C041BDE8004100F049B94FEA16
:103A6000D22242EA43524FEAD323A7FB02864FEA0F
:103A7000D02040EA415007FB03661EEA0E0F4FEAD2
:103A8000D12105FB026658BFA6EB0056B6EB0056E7
:103A90004FEA520E4EEAC37E18EB0E0E56EB530E53
:103AA000BDD518EB02085E417F1C55F10005B6E755
:103AB0004FF480154FF000074FF000064FF000085C
:103AC000ADE7F0BC4FF0000001F1C04101F0004152
:103AD000BDE8008111EA0C1F0CEA131500D00CE0C0
:103AE00013EA0C1F00F025804FF00000F0BC81EAC3
:103AF000030101F00041BDE80081F0BCBDE80041D8
:103B000081EA030100F0F4B8F0BCBDE8004170B5F3
:103B100000F0A0F8097EFC3E00F007B881EA03013E
:103B20004FF0000001F00041704781EA030100F00E
:103B3000DFB8F0BCBDE800414FF0000021497047FC
:103B4000FFFDFBF9F7F5F4F2F0EEEDEBE9E8E6E462
:103B5000E3E1E0DEDDDBDAD8D7D5D4D3D1D0CFCDE9
:103B6000CCCBCAC8C7C6C5C4C2C1C0BFBEBDBCBB22
:103B7000BAB9B8B7B6B5B4B3B2B1B0AFAEADACAB1D
:103B8000AAA9A8A8A7A6A5A4A3A3A2A1A09F9F9EF7
:103B90009D9C9C9B9A9999989797969595949393A9
:103BA000929191908F8F8E8E8D8C8C8B8B8A898940
:103BB00088888787868585848483838282818180C3
:103BC0000000FF070000F87F4FEA41034FEA53531C
:103BD000A3F58063D3F11E03C8BFD3F1210C0CDD24
:103BE0004FF0004242EAC12242EA505232FA03FC4C
:103BF0008CEAE17CACEBE1707047102BC4BF002075
:103C0000704703F5787CBCF1FF3F04D06FF00042B1
:103C100082EA2100704770B500F01CF849922480B8
:103C200000207047F2E710F0004248BF4042B0FA6F
:103C300080F310FA03F10AD0C3F11D0303F580638A
:103C40004FEA415002EB035202EBD12170474FF093
:103C5000000070470EF1020E2EF0030E5EF8046BAA
:103C6000364205D4012A43EB030515F5001F12D88F
:103C7000012841EB010C1CF5001F0CD80ED14FEAB6
:103C8000D17C15F5001F0CEB4C0C0CF1020C08BF9D
:103C90004CEBD37C04E04FF0080C01E04FEAD37CFE
:103CA0000CEB4C0526FA05F606F00706B6F1040CF7
:103CB00006D20EEB860CBDE870404CF0010C60475C
:103CC000DFE80CF0090B02024FF000414FF000005A
:103CD000A1F5002170BD19461046012851EB0104E1
:103CE00018BFD4F5001484BF002001F0004170BD5E
:103CF0000808A0F500114FEA3101704700000000EC
:103D00003333333333331F40CDCCCCCCCCCC2440F5
:103D10003333333333332F40CDCCCCCCCCCC3440C5
:103D20000000000000403F409A99999999D9444079
:103D30000000000000404F400000000000405F40D5
:103D40000000000000406F400000000000407F4085
:103D5000010202030405060708090A0B0C0D0E0FE9
:103D6000101000000000000000000102030406071C
:103D70000809000000000102030400009C3D000847
:103D8000000000205000000028010008EC3D000861
:103D9000500000209809000044010008CAAC00004F
:103DA000D007D007D007D0070000000000000000B7
:103DB00000000000FA000000000000000000000009
:103DC00000000000000000000000000000000000F3
:103DD00050C30000000000000000000001000000CF
:0C3DE000100000000000000000127A003B
:04000005080000ED02
:00000001FF
